{
  "contracts/RaffleUp.sol": {
    "RaffleUp": {
      "abi": [
        {
          "inputs": [
            {
              "internalType": "address",
              "name": "_cUSD",
              "type": "address"
            },
            {
              "internalType": "address",
              "name": "_agent",
              "type": "address"
            }
          ],
          "stateMutability": "nonpayable",
          "type": "constructor"
        },
        {
          "inputs": [],
          "name": "EnforcedPause",
          "type": "error"
        },
        {
          "inputs": [],
          "name": "ExpectedPause",
          "type": "error"
        },
        {
          "inputs": [
            {
              "internalType": "address",
              "name": "owner",
              "type": "address"
            }
          ],
          "name": "OwnableInvalidOwner",
          "type": "error"
        },
        {
          "inputs": [
            {
              "internalType": "address",
              "name": "account",
              "type": "address"
            }
          ],
          "name": "OwnableUnauthorizedAccount",
          "type": "error"
        },
        {
          "inputs": [],
          "name": "ReentrancyGuardReentrantCall",
          "type": "error"
        },
        {
          "anonymous": false,
          "inputs": [
            {
              "indexed": false,
              "internalType": "address",
              "name": "oldAgent",
              "type": "address"
            },
            {
              "indexed": false,
              "internalType": "address",
              "name": "newAgent",
              "type": "address"
            }
          ],
          "name": "AgentChanged",
          "type": "event"
        },
        {
          "anonymous": false,
          "inputs": [
            {
              "indexed": false,
              "internalType": "uint256",
              "name": "raffleId",
              "type": "uint256"
            },
            {
              "indexed": false,
              "internalType": "uint256",
              "name": "number",
              "type": "uint256"
            },
            {
              "indexed": false,
              "internalType": "address",
              "name": "buyer",
              "type": "address"
            }
          ],
          "name": "NumberPurchased",
          "type": "event"
        },
        {
          "anonymous": false,
          "inputs": [
            {
              "indexed": true,
              "internalType": "address",
              "name": "previousOwner",
              "type": "address"
            },
            {
              "indexed": true,
              "internalType": "address",
              "name": "newOwner",
              "type": "address"
            }
          ],
          "name": "OwnershipTransferred",
          "type": "event"
        },
        {
          "anonymous": false,
          "inputs": [
            {
              "indexed": false,
              "internalType": "address",
              "name": "account",
              "type": "address"
            }
          ],
          "name": "Paused",
          "type": "event"
        },
        {
          "anonymous": false,
          "inputs": [
            {
              "indexed": false,
              "internalType": "address",
              "name": "to",
              "type": "address"
            },
            {
              "indexed": false,
              "internalType": "uint256",
              "name": "amount",
              "type": "uint256"
            }
          ],
          "name": "PlatformFeesWithdrawn",
          "type": "event"
        },
        {
          "anonymous": false,
          "inputs": [
            {
              "indexed": false,
              "internalType": "uint256",
              "name": "raffleId",
              "type": "uint256"
            },
            {
              "indexed": false,
              "internalType": "address[]",
              "name": "winners",
              "type": "address[]"
            },
            {
              "indexed": false,
              "internalType": "uint256",
              "name": "totalDistributable",
              "type": "uint256"
            }
          ],
          "name": "RaffleClosed",
          "type": "event"
        },
        {
          "anonymous": false,
          "inputs": [
            {
              "indexed": false,
              "internalType": "uint256",
              "name": "raffleId",
              "type": "uint256"
            },
            {
              "indexed": false,
              "internalType": "uint256",
              "name": "startNum",
              "type": "uint256"
            },
            {
              "indexed": false,
              "internalType": "uint256",
              "name": "endNum",
              "type": "uint256"
            },
            {
              "indexed": false,
              "internalType": "uint256",
              "name": "entryPrice",
              "type": "uint256"
            },
            {
              "indexed": false,
              "internalType": "uint256",
              "name": "start",
              "type": "uint256"
            },
            {
              "indexed": false,
              "internalType": "uint256",
              "name": "end",
              "type": "uint256"
            }
          ],
          "name": "RaffleCreated",
          "type": "event"
        },
        {
          "anonymous": false,
          "inputs": [
            {
              "indexed": false,
              "internalType": "uint256",
              "name": "raffleId",
              "type": "uint256"
            }
          ],
          "name": "RafflePaused",
          "type": "event"
        },
        {
          "anonymous": false,
          "inputs": [
            {
              "indexed": false,
              "internalType": "uint256",
              "name": "raffleId",
              "type": "uint256"
            }
          ],
          "name": "RaffleRefunded",
          "type": "event"
        },
        {
          "anonymous": false,
          "inputs": [
            {
              "indexed": false,
              "internalType": "uint256",
              "name": "raffleId",
              "type": "uint256"
            }
          ],
          "name": "RaffleUnpaused",
          "type": "event"
        },
        {
          "anonymous": false,
          "inputs": [
            {
              "indexed": false,
              "internalType": "address",
              "name": "account",
              "type": "address"
            }
          ],
          "name": "Unpaused",
          "type": "event"
        },
        {
          "inputs": [],
          "name": "FEE_BASIS_POINTS",
          "outputs": [
            {
              "internalType": "uint256",
              "name": "",
              "type": "uint256"
            }
          ],
          "stateMutability": "view",
          "type": "function"
        },
        {
          "inputs": [],
          "name": "accumulatedFees",
          "outputs": [
            {
              "internalType": "uint256",
              "name": "",
              "type": "uint256"
            }
          ],
          "stateMutability": "view",
          "type": "function"
        },
        {
          "inputs": [],
          "name": "agent",
          "outputs": [
            {
              "internalType": "address",
              "name": "",
              "type": "address"
            }
          ],
          "stateMutability": "view",
          "type": "function"
        },
        {
          "inputs": [],
          "name": "cUSD",
          "outputs": [
            {
              "internalType": "contract IERC20",
              "name": "",
              "type": "address"
            }
          ],
          "stateMutability": "view",
          "type": "function"
        },
        {
          "inputs": [
            {
              "internalType": "uint256",
              "name": "raffleId",
              "type": "uint256"
            }
          ],
          "name": "closeRaffle",
          "outputs": [],
          "stateMutability": "nonpayable",
          "type": "function"
        },
        {
          "inputs": [
            {
              "internalType": "uint256",
              "name": "startNumber",
              "type": "uint256"
            },
            {
              "internalType": "uint256",
              "name": "endNumber",
              "type": "uint256"
            },
            {
              "internalType": "uint256",
              "name": "entryPrice",
              "type": "uint256"
            },
            {
              "internalType": "uint256",
              "name": "startTime",
              "type": "uint256"
            },
            {
              "internalType": "uint256",
              "name": "endTime",
              "type": "uint256"
            }
          ],
          "name": "createRaffle",
          "outputs": [
            {
              "internalType": "uint256",
              "name": "",
              "type": "uint256"
            }
          ],
          "stateMutability": "nonpayable",
          "type": "function"
        },
        {
          "inputs": [
            {
              "internalType": "uint256",
              "name": "raffleId",
              "type": "uint256"
            }
          ],
          "name": "getPurchasedNumbers",
          "outputs": [
            {
              "internalType": "uint256[]",
              "name": "",
              "type": "uint256[]"
            }
          ],
          "stateMutability": "view",
          "type": "function"
        },
        {
          "inputs": [
            {
              "internalType": "uint256",
              "name": "raffleId",
              "type": "uint256"
            }
          ],
          "name": "getRaffleWinners",
          "outputs": [
            {
              "internalType": "address[]",
              "name": "",
              "type": "address[]"
            }
          ],
          "stateMutability": "view",
          "type": "function"
        },
        {
          "inputs": [
            {
              "internalType": "uint256",
              "name": "raffleId",
              "type": "uint256"
            },
            {
              "internalType": "uint256",
              "name": "number",
              "type": "uint256"
            }
          ],
          "name": "isNumberAvailable",
          "outputs": [
            {
              "internalType": "bool",
              "name": "",
              "type": "bool"
            }
          ],
          "stateMutability": "view",
          "type": "function"
        },
        {
          "inputs": [
            {
              "internalType": "uint256",
              "name": "raffleId",
              "type": "uint256"
            },
            {
              "internalType": "uint256[]",
              "name": "numbers",
              "type": "uint256[]"
            }
          ],
          "name": "joinRaffle",
          "outputs": [],
          "stateMutability": "nonpayable",
          "type": "function"
        },
        {
          "inputs": [
            {
              "internalType": "uint256",
              "name": "",
              "type": "uint256"
            },
            {
              "internalType": "uint256",
              "name": "",
              "type": "uint256"
            }
          ],
          "name": "numberOwner",
          "outputs": [
            {
              "internalType": "address",
              "name": "",
              "type": "address"
            }
          ],
          "stateMutability": "view",
          "type": "function"
        },
        {
          "inputs": [
            {
              "internalType": "uint256",
              "name": "",
              "type": "uint256"
            },
            {
              "internalType": "uint256",
              "name": "",
              "type": "uint256"
            }
          ],
          "name": "numberTaken",
          "outputs": [
            {
              "internalType": "bool",
              "name": "",
              "type": "bool"
            }
          ],
          "stateMutability": "view",
          "type": "function"
        },
        {
          "inputs": [],
          "name": "owner",
          "outputs": [
            {
              "internalType": "address",
              "name": "",
              "type": "address"
            }
          ],
          "stateMutability": "view",
          "type": "function"
        },
        {
          "inputs": [],
          "name": "pauseContract",
          "outputs": [],
          "stateMutability": "nonpayable",
          "type": "function"
        },
        {
          "inputs": [
            {
              "internalType": "uint256",
              "name": "raffleId",
              "type": "uint256"
            }
          ],
          "name": "pauseRaffle",
          "outputs": [],
          "stateMutability": "nonpayable",
          "type": "function"
        },
        {
          "inputs": [],
          "name": "paused",
          "outputs": [
            {
              "internalType": "bool",
              "name": "",
              "type": "bool"
            }
          ],
          "stateMutability": "view",
          "type": "function"
        },
        {
          "inputs": [
            {
              "internalType": "uint256",
              "name": "",
              "type": "uint256"
            },
            {
              "internalType": "uint256",
              "name": "",
              "type": "uint256"
            }
          ],
          "name": "purchasedNumbers",
          "outputs": [
            {
              "internalType": "uint256",
              "name": "",
              "type": "uint256"
            }
          ],
          "stateMutability": "view",
          "type": "function"
        },
        {
          "inputs": [],
          "name": "raffleCount",
          "outputs": [
            {
              "internalType": "uint256",
              "name": "",
              "type": "uint256"
            }
          ],
          "stateMutability": "view",
          "type": "function"
        },
        {
          "inputs": [
            {
              "internalType": "uint256",
              "name": "",
              "type": "uint256"
            }
          ],
          "name": "raffles",
          "outputs": [
            {
              "internalType": "uint256",
              "name": "id",
              "type": "uint256"
            },
            {
              "internalType": "uint256",
              "name": "startNumber",
              "type": "uint256"
            },
            {
              "internalType": "uint256",
              "name": "endNumber",
              "type": "uint256"
            },
            {
              "internalType": "uint256",
              "name": "startTime",
              "type": "uint256"
            },
            {
              "internalType": "uint256",
              "name": "endTime",
              "type": "uint256"
            },
            {
              "internalType": "uint256",
              "name": "entryPrice",
              "type": "uint256"
            },
            {
              "internalType": "uint256",
              "name": "totalCollected",
              "type": "uint256"
            },
            {
              "internalType": "uint256",
              "name": "totalEntries",
              "type": "uint256"
            },
            {
              "internalType": "bool",
              "name": "closed",
              "type": "bool"
            },
            {
              "internalType": "bool",
              "name": "paused",
              "type": "bool"
            }
          ],
          "stateMutability": "view",
          "type": "function"
        },
        {
          "inputs": [
            {
              "internalType": "uint256",
              "name": "raffleId",
              "type": "uint256"
            }
          ],
          "name": "refundRaffle",
          "outputs": [],
          "stateMutability": "nonpayable",
          "type": "function"
        },
        {
          "inputs": [],
          "name": "renounceOwnership",
          "outputs": [],
          "stateMutability": "nonpayable",
          "type": "function"
        },
        {
          "inputs": [
            {
              "internalType": "address",
              "name": "_agent",
              "type": "address"
            }
          ],
          "name": "setAgent",
          "outputs": [],
          "stateMutability": "nonpayable",
          "type": "function"
        },
        {
          "inputs": [
            {
              "internalType": "address",
              "name": "newOwner",
              "type": "address"
            }
          ],
          "name": "transferOwnership",
          "outputs": [],
          "stateMutability": "nonpayable",
          "type": "function"
        },
        {
          "inputs": [],
          "name": "unpauseContract",
          "outputs": [],
          "stateMutability": "nonpayable",
          "type": "function"
        },
        {
          "inputs": [
            {
              "internalType": "uint256",
              "name": "raffleId",
              "type": "uint256"
            }
          ],
          "name": "unpauseRaffle",
          "outputs": [],
          "stateMutability": "nonpayable",
          "type": "function"
        },
        {
          "inputs": [
            {
              "internalType": "address",
              "name": "to",
              "type": "address"
            }
          ],
          "name": "withdrawPlatformFees",
          "outputs": [],
          "stateMutability": "nonpayable",
          "type": "function"
        }
      ],
      "evm": {
        "bytecode": {
          "linkReferences": {},
          "object": "60a03461019e57601f611b5e38819003918201601f19168301916001600160401b038311848410176101a357808492604094855283398101031261019e57610052602061004b836101b9565b92016101b9565b9033156101885760008054336001600160a01b0319821681178355604051939290916001600160a01b0316907f8be0079c531659141344cd1fd0a4f28419497f9722a3daafe3b4186f6b6457e09080a3600180556001600160a01b031690811561015757506001600160a01b038216156101225760805260028054610100600160a81b03191660089290921b610100600160a81b031691909117905560405161199090816101ce8239608051818181610276015281816104b4015281816108c9015281816111e801526115300152f35b60405162461bcd60e51b815260206004820152600d60248201526c1a5b9d985b1a59081859d95b9d609a1b6044820152606490fd5b62461bcd60e51b815260206004820152600c60248201526b1a5b9d985b1a590818d554d160a21b6044820152606490fd5b631e4fbdf760e01b600052600060045260246000fd5b600080fd5b634e487b7160e01b600052604160045260246000fd5b51906001600160a01b038216820361019e5756fe6080604052600436101561001257600080fd5b60003560e01c80630cb9ea7a146115965780631952eb811461155f5780631fccf6721461151a578063234d00011461109357806324e303271461105b578063439766ce146110015780634823b02614610f74578063539cd3e514610f13578063587f5ed714610ef55780635c975abb14610ed25780635d4bc0ce14610e3b5780635eaee86d14610dd65780636c473b1e14610d965780636ef5addb14610cea578063715018a614610c915780638da5cb5b14610c68578063a525ad3c14610c4c578063a54c120c14610c2e578063aa1200c2146107d6578063ad7110141461079b578063b33712c514610732578063bcf685ed14610668578063ea0a61c4146103d0578063ec3889b5146101f9578063f2fde38b1461016c5763f5ff5c761461013a57600080fd5b346101675760003660031901126101675760025460405160089190911c6001600160a01b03168152602090f35b600080fd5b34610167576020366003190112610167576004356001600160a01b038116908190036101675761019a6118f2565b80156101e357600080546001600160a01b03198116831782556001600160a01b0316907f8be0079c531659141344cd1fd0a4f28419497f9722a3daafe3b4186f6b6457e09080a3005b631e4fbdf760e01b600052600060045260246000fd5b34610167576020366003190112610167576004356001600160a01b038116808203610167576102266118f2565b61022e611938565b1561039957600454801561036a576000600490815560405163a9059cbb60e01b81526001600160a01b03841691810191909152602481018290526020818060448101038160007f00000000000000000000000000000000000000000000000000000000000000006001600160a01b03165af190811561035e5760009161032f575b50156102f857604080516001600160a01b0393909316835260208301919091527ffc7ad544ff6a06d6499925723d25b6fe70457a42939995b1d3d6f560fe33633391a160018055005b60405162461bcd60e51b815260206004820152600f60248201526e1dda5d1a191c985dcb59985a5b1959608a1b6044820152606490fd5b610351915060203d602011610357575b610349818361188c565b8101906118da565b836102af565b503d61033f565b6040513d6000823e3d90fd5b60405162461bcd60e51b81526020600482015260076024820152666e6f206665657360c81b6044820152606490fd5b60405162461bcd60e51b815260206004820152600f60248201526e696e76616c6964206164647265737360881b6044820152606490fd5b34610167576020366003190112610167576004356103fc60018060a01b0360025460081c1633146117d3565b610404611938565b61040c61191b565b8060005260056020526040600020906008820161042d60ff82541615611812565b61043d6004840154421015611847565b600160078401540361062357600082815260086020526040812080541561060f578152602090819020546000848152600683526040808220838352845280822054600590970154905163a9059cbb60e01b81526001600160a01b0397909716600488015260248701529490918180604481010381887f00000000000000000000000000000000000000000000000000000000000000006001600160a01b03165af19081156106045785916105e5575b50156105b057828452600660205260408420818552602052604084206bffffffffffffffffffffffff60a01b81541690558284526007602052604084209084526020526040832060ff19815416905581835260086020526040832080549084815581610592575b847f4f5be5093383310c2ec5a4cada25a72670734885840f655f42cde6ceb2ccb22860208686600160ff19825416179055604051908152a16001805580f35b845260208420908101905b818110156105535784815560010161059d565b60405162461bcd60e51b815260206004820152600d60248201526c1c99599d5b990b59985a5b1959609a1b6044820152606490fd5b6105fe915060203d60201161035757610349818361188c565b856104ec565b6040513d87823e3d90fd5b634e487b7160e01b82526032600452602482fd5b60405162461bcd60e51b815260206004820152601860248201527f726566756e64206f6e6c79207768656e203120656e74727900000000000000006044820152606490fd5b34610167576020366003190112610167576004356001600160a01b03811690818103610167576106966118f2565b81156106fd577fb21f1bf0d206b43eb02be4f423c2788a95affbda226125eaecabe3def8ba5c4260406002549381519060018060a01b038660081c1682526020820152a1610100600160a81b031990911660089190911b610100600160a81b031617600255005b60405162461bcd60e51b815260206004820152600d60248201526c1a5b9d985b1a59081859d95b9d609a1b6044820152606490fd5b346101675760003660031901126101675761074b6118f2565b60025460ff81161561078a5760ff19166002557f5db9ee0a495bf2e6ff9c91a7834c1ba4fdd244a5e8aa4e537bd38aeae4b073aa6020604051338152a1005b638dfc202b60e01b60005260046000fd5b34610167576107a936611743565b906000526006602052604060002090600052602052602060018060a01b0360406000205416604051908152f35b346101675760403660031901126101675760043560243567ffffffffffffffff8111610167573660238201121561016757806004013567ffffffffffffffff8111610167573660248260051b8401011161016757610832611938565b61083a61191b565b8015610bfc57826000526005602052604060002091825415610bcb5760ff600884015461086982821615611812565b60081c16610b9d5760038301544210610b6a576004830154421015610b3d5760058301549282840293808504841490151715610b27576040516323b872dd60e01b81523360048201523060248201526044810185905260208160648160007f00000000000000000000000000000000000000000000000000000000000000006001600160a01b03165af190811561035e57600091610b08575b5015610ad157919260018301929060005b85811015610aa757600060248260051b8601013590865482101580610a99575b15610a655788815260076020526040812082825260205260ff604082205416610a385788815260076020526040812082825260205260408120600160ff1982541617905588815260066020526040812082825260205260408120336bffffffffffffffffffffffff60a01b825416179055888152600860205260408120805491600160401b831015610a245750600193926109f683606093877f373a96a13bf6138b98bb34a767ecebde6ed77916085685c78effb698238b12fa96018155611796565b81549060031b9083821b91600019901b1916179055604051908b82526020820152336040820152a101610913565b634e487b7160e01b81526041600452602490fd5b60405162461bcd60e51b81526020600482015260056024820152643a30b5b2b760d91b6044820152606490fd5b60405162461bcd60e51b815260206004820152600c60248201526b6f75742d6f662d72616e676560a01b6044820152606490fd5b506002850154821115610933565b50610ac960068387610abe6007830191825461187f565b90550191825461187f565b905560018055005b60405162461bcd60e51b815260206004820152600f60248201526e1d1c985b9cd9995c8b59985a5b1959608a1b6044820152606490fd5b610b21915060203d60201161035757610349818361188c565b86610902565b634e487b7160e01b600052601160045260246000fd5b60405162461bcd60e51b8152602060048201526005602482015264195b99195960da1b6044820152606490fd5b60405162461bcd60e51b815260206004820152600b60248201526a1b9bdd0b5cdd185c9d195960aa1b6044820152606490fd5b60405162461bcd60e51b81526020600482015260066024820152651c185d5cd95960d21b6044820152606490fd5b60405162461bcd60e51b81526020600482015260096024820152681b9bdd0b595e1a5cdd60ba1b6044820152606490fd5b60405162461bcd60e51b815260206004820152600a6024820152696e6f206e756d6265727360b01b6044820152606490fd5b34610167576000366003190112610167576020600354604051908152f35b3461016757600036600319011261016757602060405160648152f35b34610167576000366003190112610167576000546040516001600160a01b039091168152602090f35b3461016757600036600319011261016757610caa6118f2565b600080546001600160a01b0319811682556001600160a01b03167f8be0079c531659141344cd1fd0a4f28419497f9722a3daafe3b4186f6b6457e08280a3005b3461016757602036600319011261016757600435600052600860205260406000206040518060208354918281520190819360005260206000209060005b818110610d805750505081610d3d91038261188c565b6040519182916020830190602084525180915260408301919060005b818110610d67575050500390f35b8251845285945060209384019390920191600101610d59565b8254845260209093019260019283019201610d27565b3461016757610da436611743565b9060005260086020526040600020805482101561016757602091610dc791611796565b90549060031b1c604051908152f35b34610167576020366003190112610167577f59ae418981ae00500624dca49fa8395d59a12e54cc5af94604258b6402cfb0046020600435610e156118f2565b8060005260058252600860406000200161010061ff0019825416179055604051908152a1005b34610167576020366003190112610167576004356000526005602052610140604060002060ff8154916001810154906002810154600382015460048301546005840154916006850154936008600787015496015496604051998a5260208a015260408901526060880152608087015260a086015260c085015260e0840152818116151561010084015260081c161515610120820152f35b3461016757600036600319011261016757602060ff600254166040519015158152f35b34610167576000366003190112610167576020600454604051908152f35b34610167576020366003190112610167577f88d20d5ea9eaba2406719d2e3e97a5ba16fb0748f87067b5d315ffa7ed7a01016020600435610f526118f2565b8060005260058252600860406000200161ff00198154169055604051908152a1005b34610167576020366003190112610167576004356000526005602052600960406000200160405190816020825491828152019160005260206000209060005b818110610fe257610fde85610fca8187038261188c565b604051918291602083526020830190611759565b0390f35b82546001600160a01b0316845260209093019260019283019201610fb3565b346101675760003660031901126101675761101a6118f2565b61102261191b565b600160ff1960025416176002557f62e78cea01bee320cd4e420270b5ea74000d11b0c9f74754ebdbfc544b05a2586020604051338152a1005b346101675761106936611743565b906000526007602052604060002090600052602052602060ff604060002054166040519015158152f35b34610167576020366003190112610167576004356110bf60018060a01b0360025460081c1633146117d3565b6110c7611938565b6110cf61191b565b806000526005602052604060002060088101916110f060ff84541615611812565b6111006004830154421015611847565b6007820154600181146114c9576002811061149257600a8104938415611489575b8260005260086020526040600020918254036114545760068401918254606481029080820460641490151715610b27576127109004926111638460045461187f565b60045554928303928311610b2757851561143e57949384830494611186816118ae565b95611194604051978861188c565b818752601f196111a3836118ae565b013660208901378754906111b6826118ae565b916111c4604051938461188c565b8083526111d3601f19916118ae565b013660208401373360601b98600094600901927f00000000000000000000000000000000000000000000000000000000000000006001600160a01b031691865b868110611275577f77cf96c3480e3074cf8f30803b5564056c8c5a6d53043f4ebff6094f89ae7c5d8c8c8c8c600160ff198254161790556112666040519384938452606060208501526060840190611759565b9060408301520390a160018055005b8c604051602081019142835244604083015260608201528960748201528c6094820152609481526112a760b48261188c565b519020825490811561143e57066112be81856118c6565b51611433578060016112d36112da93876118c6565b5283611796565b90549060031b1c8b600052600660205260406000209060005260205260018060a01b03604060002054168c8115611421576113168383926118c6565b52865490600160401b82101561140b578660209161133d84600161138496018c558b611796565b81546001600160a01b0360039290921b82811b199091169084901b1790915560405163a9059cbb60e01b815291166004820152602481019190915291829081906044820190565b03816000895af190811561035e576000916113ed575b50156113bb576113ac6113b2916117c4565b976117c4565b955b9596611213565b60405162461bcd60e51b815260206004820152600a6024820152691c185e4b59985a5b195960b21b6044820152606490fd5b611405915060203d811161035757610349818361188c565b8e61139a565b634e487b7160e01b600052604160045260246000fd5b50509661142d906117c4565b956113b4565b509661142d906117c4565b634e487b7160e01b600052601260045260246000fd5b60405162461bcd60e51b815260206004820152600d60248201526c0e0deded840dad2e6dac2e8c6d609b1b6044820152606490fd5b60019450611121565b60405162461bcd60e51b815260206004820152600f60248201526e6e6f207061727469636970616e747360881b6044820152606490fd5b60405162461bcd60e51b815260206004820152602360248201527f75736520726566756e64526166666c65282920666f72203120656e747279206f6044820152626e6c7960e81b6064820152608490fd5b34610167576000366003190112610167576040517f00000000000000000000000000000000000000000000000000000000000000006001600160a01b03168152602090f35b346101675761156d36611743565b906000526007602052604060002090600052602052602060ff6040600020541615604051908152f35b346101675760a0366003190112610167576084356024356064356044356004356115be6118f2565b6115c661191b565b80841061170e57828511156116d957428511156116a3578115611672576020947f38e4b9d0e4320e52e3c771ea31882a1cb858df7355c2f2a8eb69362bc010fcc2938360c09460056116196003546117c4565b8060035580600052818b526040600020908155866001820155896002820155846003820155856004820155015560035496604051948886528986015260408501526060840152608083015260a0820152a1604051908152f35b60405162461bcd60e51b815260206004820152600960248201526807072696365203e20360bc1b6044820152606490fd5b60405162461bcd60e51b815260206004820152600e60248201526d6d7573742062652066757475726560901b6044820152606490fd5b60405162461bcd60e51b815260206004820152600d60248201526c696e76616c69642074696d657360981b6044820152606490fd5b60405162461bcd60e51b815260206004820152600d60248201526c696e76616c69642072616e676560981b6044820152606490fd5b6040906003190112610167576004359060243590565b906020808351928381520192019060005b8181106117775750505090565b82516001600160a01b031684526020938401939092019160010161176a565b80548210156117ae5760005260206000200190600090565b634e487b7160e01b600052603260045260246000fd5b6000198114610b275760010190565b156117da57565b60405162461bcd60e51b815260206004820152601060248201526f18d85b1b195c8b5b9bdd0b5859d95b9d60821b6044820152606490fd5b1561181957565b60405162461bcd60e51b815260206004820152600660248201526518db1bdcd95960d21b6044820152606490fd5b1561184e57565b60405162461bcd60e51b81526020600482015260096024820152681b9bdd0b595b99195960ba1b6044820152606490fd5b91908201809211610b2757565b90601f8019910116810190811067ffffffffffffffff82111761140b57604052565b67ffffffffffffffff811161140b5760051b60200190565b80518210156117ae5760209160051b010190565b90816020910312610167575180151581036101675790565b6000546001600160a01b0316330361190657565b63118cdaa760e01b6000523360045260246000fd5b60ff6002541661192757565b63d93c066560e01b60005260046000fd5b600260015414611949576002600155565b633ee5aeb560e01b60005260046000fdfea26469706673582212203784c68fc2222baad37428d0282b4deace66110516fc1bde70e7f09cd4175ffc64736f6c634300081c0033",
          "opcodes": "PUSH1 0xA0 CALLVALUE PUSH2 0x19E JUMPI PUSH1 0x1F PUSH2 0x1B5E CODESIZE DUP2 SWAP1 SUB SWAP2 DUP3 ADD PUSH1 0x1F NOT AND DUP4 ADD SWAP2 PUSH1 0x1 PUSH1 0x1 PUSH1 0x40 SHL SUB DUP4 GT DUP5 DUP5 LT OR PUSH2 0x1A3 JUMPI DUP1 DUP5 SWAP3 PUSH1 0x40 SWAP5 DUP6 MSTORE DUP4 CODECOPY DUP2 ADD SUB SLT PUSH2 0x19E JUMPI PUSH2 0x52 PUSH1 0x20 PUSH2 0x4B DUP4 PUSH2 0x1B9 JUMP JUMPDEST SWAP3 ADD PUSH2 0x1B9 JUMP JUMPDEST SWAP1 CALLER ISZERO PUSH2 0x188 JUMPI PUSH1 0x0 DUP1 SLOAD CALLER PUSH1 0x1 PUSH1 0x1 PUSH1 0xA0 SHL SUB NOT DUP3 AND DUP2 OR DUP4 SSTORE PUSH1 0x40 MLOAD SWAP4 SWAP3 SWAP1 SWAP2 PUSH1 0x1 PUSH1 0x1 PUSH1 0xA0 SHL SUB AND SWAP1 PUSH32 0x8BE0079C531659141344CD1FD0A4F28419497F9722A3DAAFE3B4186F6B6457E0 SWAP1 DUP1 LOG3 PUSH1 0x1 DUP1 SSTORE PUSH1 0x1 PUSH1 0x1 PUSH1 0xA0 SHL SUB AND SWAP1 DUP2 ISZERO PUSH2 0x157 JUMPI POP PUSH1 0x1 PUSH1 0x1 PUSH1 0xA0 SHL SUB DUP3 AND ISZERO PUSH2 0x122 JUMPI PUSH1 0x80 MSTORE PUSH1 0x2 DUP1 SLOAD PUSH2 0x100 PUSH1 0x1 PUSH1 0xA8 SHL SUB NOT AND PUSH1 0x8 SWAP3 SWAP1 SWAP3 SHL PUSH2 0x100 PUSH1 0x1 PUSH1 0xA8 SHL SUB AND SWAP2 SWAP1 SWAP2 OR SWAP1 SSTORE PUSH1 0x40 MLOAD PUSH2 0x1990 SWAP1 DUP2 PUSH2 0x1CE DUP3 CODECOPY PUSH1 0x80 MLOAD DUP2 DUP2 DUP2 PUSH2 0x276 ADD MSTORE DUP2 DUP2 PUSH2 0x4B4 ADD MSTORE DUP2 DUP2 PUSH2 0x8C9 ADD MSTORE DUP2 DUP2 PUSH2 0x11E8 ADD MSTORE PUSH2 0x1530 ADD MSTORE RETURN JUMPDEST PUSH1 0x40 MLOAD PUSH3 0x461BCD PUSH1 0xE5 SHL DUP2 MSTORE PUSH1 0x20 PUSH1 0x4 DUP3 ADD MSTORE PUSH1 0xD PUSH1 0x24 DUP3 ADD MSTORE PUSH13 0x1A5B9D985B1A59081859D95B9D PUSH1 0x9A SHL PUSH1 0x44 DUP3 ADD MSTORE PUSH1 0x64 SWAP1 REVERT JUMPDEST PUSH3 0x461BCD PUSH1 0xE5 SHL DUP2 MSTORE PUSH1 0x20 PUSH1 0x4 DUP3 ADD MSTORE PUSH1 0xC PUSH1 0x24 DUP3 ADD MSTORE PUSH12 0x1A5B9D985B1A590818D554D1 PUSH1 0xA2 SHL PUSH1 0x44 DUP3 ADD MSTORE PUSH1 0x64 SWAP1 REVERT JUMPDEST PUSH4 0x1E4FBDF7 PUSH1 0xE0 SHL PUSH1 0x0 MSTORE PUSH1 0x0 PUSH1 0x4 MSTORE PUSH1 0x24 PUSH1 0x0 REVERT JUMPDEST PUSH1 0x0 DUP1 REVERT JUMPDEST PUSH4 0x4E487B71 PUSH1 0xE0 SHL PUSH1 0x0 MSTORE PUSH1 0x41 PUSH1 0x4 MSTORE PUSH1 0x24 PUSH1 0x0 REVERT JUMPDEST MLOAD SWAP1 PUSH1 0x1 PUSH1 0x1 PUSH1 0xA0 SHL SUB DUP3 AND DUP3 SUB PUSH2 0x19E JUMPI JUMP INVALID PUSH1 0x80 PUSH1 0x40 MSTORE PUSH1 0x4 CALLDATASIZE LT ISZERO PUSH2 0x12 JUMPI PUSH1 0x0 DUP1 REVERT JUMPDEST PUSH1 0x0 CALLDATALOAD PUSH1 0xE0 SHR DUP1 PUSH4 0xCB9EA7A EQ PUSH2 0x1596 JUMPI DUP1 PUSH4 0x1952EB81 EQ PUSH2 0x155F JUMPI DUP1 PUSH4 0x1FCCF672 EQ PUSH2 0x151A JUMPI DUP1 PUSH4 0x234D0001 EQ PUSH2 0x1093 JUMPI DUP1 PUSH4 0x24E30327 EQ PUSH2 0x105B JUMPI DUP1 PUSH4 0x439766CE EQ PUSH2 0x1001 JUMPI DUP1 PUSH4 0x4823B026 EQ PUSH2 0xF74 JUMPI DUP1 PUSH4 0x539CD3E5 EQ PUSH2 0xF13 JUMPI DUP1 PUSH4 0x587F5ED7 EQ PUSH2 0xEF5 JUMPI DUP1 PUSH4 0x5C975ABB EQ PUSH2 0xED2 JUMPI DUP1 PUSH4 0x5D4BC0CE EQ PUSH2 0xE3B JUMPI DUP1 PUSH4 0x5EAEE86D EQ PUSH2 0xDD6 JUMPI DUP1 PUSH4 0x6C473B1E EQ PUSH2 0xD96 JUMPI DUP1 PUSH4 0x6EF5ADDB EQ PUSH2 0xCEA JUMPI DUP1 PUSH4 0x715018A6 EQ PUSH2 0xC91 JUMPI DUP1 PUSH4 0x8DA5CB5B EQ PUSH2 0xC68 JUMPI DUP1 PUSH4 0xA525AD3C EQ PUSH2 0xC4C JUMPI DUP1 PUSH4 0xA54C120C EQ PUSH2 0xC2E JUMPI DUP1 PUSH4 0xAA1200C2 EQ PUSH2 0x7D6 JUMPI DUP1 PUSH4 0xAD711014 EQ PUSH2 0x79B JUMPI DUP1 PUSH4 0xB33712C5 EQ PUSH2 0x732 JUMPI DUP1 PUSH4 0xBCF685ED EQ PUSH2 0x668 JUMPI DUP1 PUSH4 0xEA0A61C4 EQ PUSH2 0x3D0 JUMPI DUP1 PUSH4 0xEC3889B5 EQ PUSH2 0x1F9 JUMPI DUP1 PUSH4 0xF2FDE38B EQ PUSH2 0x16C JUMPI PUSH4 0xF5FF5C76 EQ PUSH2 0x13A JUMPI PUSH1 0x0 DUP1 REVERT JUMPDEST CALLVALUE PUSH2 0x167 JUMPI PUSH1 0x0 CALLDATASIZE PUSH1 0x3 NOT ADD SLT PUSH2 0x167 JUMPI PUSH1 0x2 SLOAD PUSH1 0x40 MLOAD PUSH1 0x8 SWAP2 SWAP1 SWAP2 SHR PUSH1 0x1 PUSH1 0x1 PUSH1 0xA0 SHL SUB AND DUP2 MSTORE PUSH1 0x20 SWAP1 RETURN JUMPDEST PUSH1 0x0 DUP1 REVERT JUMPDEST CALLVALUE PUSH2 0x167 JUMPI PUSH1 0x20 CALLDATASIZE PUSH1 0x3 NOT ADD SLT PUSH2 0x167 JUMPI PUSH1 0x4 CALLDATALOAD PUSH1 0x1 PUSH1 0x1 PUSH1 0xA0 SHL SUB DUP2 AND SWAP1 DUP2 SWAP1 SUB PUSH2 0x167 JUMPI PUSH2 0x19A PUSH2 0x18F2 JUMP JUMPDEST DUP1 ISZERO PUSH2 0x1E3 JUMPI PUSH1 0x0 DUP1 SLOAD PUSH1 0x1 PUSH1 0x1 PUSH1 0xA0 SHL SUB NOT DUP2 AND DUP4 OR DUP3 SSTORE PUSH1 0x1 PUSH1 0x1 PUSH1 0xA0 SHL SUB AND SWAP1 PUSH32 0x8BE0079C531659141344CD1FD0A4F28419497F9722A3DAAFE3B4186F6B6457E0 SWAP1 DUP1 LOG3 STOP JUMPDEST PUSH4 0x1E4FBDF7 PUSH1 0xE0 SHL PUSH1 0x0 MSTORE PUSH1 0x0 PUSH1 0x4 MSTORE PUSH1 0x24 PUSH1 0x0 REVERT JUMPDEST CALLVALUE PUSH2 0x167 JUMPI PUSH1 0x20 CALLDATASIZE PUSH1 0x3 NOT ADD SLT PUSH2 0x167 JUMPI PUSH1 0x4 CALLDATALOAD PUSH1 0x1 PUSH1 0x1 PUSH1 0xA0 SHL SUB DUP2 AND DUP1 DUP3 SUB PUSH2 0x167 JUMPI PUSH2 0x226 PUSH2 0x18F2 JUMP JUMPDEST PUSH2 0x22E PUSH2 0x1938 JUMP JUMPDEST ISZERO PUSH2 0x399 JUMPI PUSH1 0x4 SLOAD DUP1 ISZERO PUSH2 0x36A JUMPI PUSH1 0x0 PUSH1 0x4 SWAP1 DUP2 SSTORE PUSH1 0x40 MLOAD PUSH4 0xA9059CBB PUSH1 0xE0 SHL DUP2 MSTORE PUSH1 0x1 PUSH1 0x1 PUSH1 0xA0 SHL SUB DUP5 AND SWAP2 DUP2 ADD SWAP2 SWAP1 SWAP2 MSTORE PUSH1 0x24 DUP2 ADD DUP3 SWAP1 MSTORE PUSH1 0x20 DUP2 DUP1 PUSH1 0x44 DUP2 ADD SUB DUP2 PUSH1 0x0 PUSH32 0x0 PUSH1 0x1 PUSH1 0x1 PUSH1 0xA0 SHL SUB AND GAS CALL SWAP1 DUP2 ISZERO PUSH2 0x35E JUMPI PUSH1 0x0 SWAP2 PUSH2 0x32F JUMPI JUMPDEST POP ISZERO PUSH2 0x2F8 JUMPI PUSH1 0x40 DUP1 MLOAD PUSH1 0x1 PUSH1 0x1 PUSH1 0xA0 SHL SUB SWAP4 SWAP1 SWAP4 AND DUP4 MSTORE PUSH1 0x20 DUP4 ADD SWAP2 SWAP1 SWAP2 MSTORE PUSH32 0xFC7AD544FF6A06D6499925723D25B6FE70457A42939995B1D3D6F560FE336333 SWAP2 LOG1 PUSH1 0x1 DUP1 SSTORE STOP JUMPDEST PUSH1 0x40 MLOAD PUSH3 0x461BCD PUSH1 0xE5 SHL DUP2 MSTORE PUSH1 0x20 PUSH1 0x4 DUP3 ADD MSTORE PUSH1 0xF PUSH1 0x24 DUP3 ADD MSTORE PUSH15 0x1DDA5D1A191C985DCB59985A5B1959 PUSH1 0x8A SHL PUSH1 0x44 DUP3 ADD MSTORE PUSH1 0x64 SWAP1 REVERT JUMPDEST PUSH2 0x351 SWAP2 POP PUSH1 0x20 RETURNDATASIZE PUSH1 0x20 GT PUSH2 0x357 JUMPI JUMPDEST PUSH2 0x349 DUP2 DUP4 PUSH2 0x188C JUMP JUMPDEST DUP2 ADD SWAP1 PUSH2 0x18DA JUMP JUMPDEST DUP4 PUSH2 0x2AF JUMP JUMPDEST POP RETURNDATASIZE PUSH2 0x33F JUMP JUMPDEST PUSH1 0x40 MLOAD RETURNDATASIZE PUSH1 0x0 DUP3 RETURNDATACOPY RETURNDATASIZE SWAP1 REVERT JUMPDEST PUSH1 0x40 MLOAD PUSH3 0x461BCD PUSH1 0xE5 SHL DUP2 MSTORE PUSH1 0x20 PUSH1 0x4 DUP3 ADD MSTORE PUSH1 0x7 PUSH1 0x24 DUP3 ADD MSTORE PUSH7 0x6E6F2066656573 PUSH1 0xC8 SHL PUSH1 0x44 DUP3 ADD MSTORE PUSH1 0x64 SWAP1 REVERT JUMPDEST PUSH1 0x40 MLOAD PUSH3 0x461BCD PUSH1 0xE5 SHL DUP2 MSTORE PUSH1 0x20 PUSH1 0x4 DUP3 ADD MSTORE PUSH1 0xF PUSH1 0x24 DUP3 ADD MSTORE PUSH15 0x696E76616C69642061646472657373 PUSH1 0x88 SHL PUSH1 0x44 DUP3 ADD MSTORE PUSH1 0x64 SWAP1 REVERT JUMPDEST CALLVALUE PUSH2 0x167 JUMPI PUSH1 0x20 CALLDATASIZE PUSH1 0x3 NOT ADD SLT PUSH2 0x167 JUMPI PUSH1 0x4 CALLDATALOAD PUSH2 0x3FC PUSH1 0x1 DUP1 PUSH1 0xA0 SHL SUB PUSH1 0x2 SLOAD PUSH1 0x8 SHR AND CALLER EQ PUSH2 0x17D3 JUMP JUMPDEST PUSH2 0x404 PUSH2 0x1938 JUMP JUMPDEST PUSH2 0x40C PUSH2 0x191B JUMP JUMPDEST DUP1 PUSH1 0x0 MSTORE PUSH1 0x5 PUSH1 0x20 MSTORE PUSH1 0x40 PUSH1 0x0 KECCAK256 SWAP1 PUSH1 0x8 DUP3 ADD PUSH2 0x42D PUSH1 0xFF DUP3 SLOAD AND ISZERO PUSH2 0x1812 JUMP JUMPDEST PUSH2 0x43D PUSH1 0x4 DUP5 ADD SLOAD TIMESTAMP LT ISZERO PUSH2 0x1847 JUMP JUMPDEST PUSH1 0x1 PUSH1 0x7 DUP5 ADD SLOAD SUB PUSH2 0x623 JUMPI PUSH1 0x0 DUP3 DUP2 MSTORE PUSH1 0x8 PUSH1 0x20 MSTORE PUSH1 0x40 DUP2 KECCAK256 DUP1 SLOAD ISZERO PUSH2 0x60F JUMPI DUP2 MSTORE PUSH1 0x20 SWAP1 DUP2 SWAP1 KECCAK256 SLOAD PUSH1 0x0 DUP5 DUP2 MSTORE PUSH1 0x6 DUP4 MSTORE PUSH1 0x40 DUP1 DUP3 KECCAK256 DUP4 DUP4 MSTORE DUP5 MSTORE DUP1 DUP3 KECCAK256 SLOAD PUSH1 0x5 SWAP1 SWAP8 ADD SLOAD SWAP1 MLOAD PUSH4 0xA9059CBB PUSH1 0xE0 SHL DUP2 MSTORE PUSH1 0x1 PUSH1 0x1 PUSH1 0xA0 SHL SUB SWAP8 SWAP1 SWAP8 AND PUSH1 0x4 DUP9 ADD MSTORE PUSH1 0x24 DUP8 ADD MSTORE SWAP5 SWAP1 SWAP2 DUP2 DUP1 PUSH1 0x44 DUP2 ADD SUB DUP2 DUP9 PUSH32 0x0 PUSH1 0x1 PUSH1 0x1 PUSH1 0xA0 SHL SUB AND GAS CALL SWAP1 DUP2 ISZERO PUSH2 0x604 JUMPI DUP6 SWAP2 PUSH2 0x5E5 JUMPI JUMPDEST POP ISZERO PUSH2 0x5B0 JUMPI DUP3 DUP5 MSTORE PUSH1 0x6 PUSH1 0x20 MSTORE PUSH1 0x40 DUP5 KECCAK256 DUP2 DUP6 MSTORE PUSH1 0x20 MSTORE PUSH1 0x40 DUP5 KECCAK256 PUSH12 0xFFFFFFFFFFFFFFFFFFFFFFFF PUSH1 0xA0 SHL DUP2 SLOAD AND SWAP1 SSTORE DUP3 DUP5 MSTORE PUSH1 0x7 PUSH1 0x20 MSTORE PUSH1 0x40 DUP5 KECCAK256 SWAP1 DUP5 MSTORE PUSH1 0x20 MSTORE PUSH1 0x40 DUP4 KECCAK256 PUSH1 0xFF NOT DUP2 SLOAD AND SWAP1 SSTORE DUP2 DUP4 MSTORE PUSH1 0x8 PUSH1 0x20 MSTORE PUSH1 0x40 DUP4 KECCAK256 DUP1 SLOAD SWAP1 DUP5 DUP2 SSTORE DUP2 PUSH2 0x592 JUMPI JUMPDEST DUP5 PUSH32 0x4F5BE5093383310C2EC5A4CADA25A72670734885840F655F42CDE6CEB2CCB228 PUSH1 0x20 DUP7 DUP7 PUSH1 0x1 PUSH1 0xFF NOT DUP3 SLOAD AND OR SWAP1 SSTORE PUSH1 0x40 MLOAD SWAP1 DUP2 MSTORE LOG1 PUSH1 0x1 DUP1 SSTORE DUP1 RETURN JUMPDEST DUP5 MSTORE PUSH1 0x20 DUP5 KECCAK256 SWAP1 DUP2 ADD SWAP1 JUMPDEST DUP2 DUP2 LT ISZERO PUSH2 0x553 JUMPI DUP5 DUP2 SSTORE PUSH1 0x1 ADD PUSH2 0x59D JUMP JUMPDEST PUSH1 0x40 MLOAD PUSH3 0x461BCD PUSH1 0xE5 SHL DUP2 MSTORE PUSH1 0x20 PUSH1 0x4 DUP3 ADD MSTORE PUSH1 0xD PUSH1 0x24 DUP3 ADD MSTORE PUSH13 0x1C99599D5B990B59985A5B1959 PUSH1 0x9A SHL PUSH1 0x44 DUP3 ADD MSTORE PUSH1 0x64 SWAP1 REVERT JUMPDEST PUSH2 0x5FE SWAP2 POP PUSH1 0x20 RETURNDATASIZE PUSH1 0x20 GT PUSH2 0x357 JUMPI PUSH2 0x349 DUP2 DUP4 PUSH2 0x188C JUMP JUMPDEST DUP6 PUSH2 0x4EC JUMP JUMPDEST PUSH1 0x40 MLOAD RETURNDATASIZE DUP8 DUP3 RETURNDATACOPY RETURNDATASIZE SWAP1 REVERT JUMPDEST PUSH4 0x4E487B71 PUSH1 0xE0 SHL DUP3 MSTORE PUSH1 0x32 PUSH1 0x4 MSTORE PUSH1 0x24 DUP3 REVERT JUMPDEST PUSH1 0x40 MLOAD PUSH3 0x461BCD PUSH1 0xE5 SHL DUP2 MSTORE PUSH1 0x20 PUSH1 0x4 DUP3 ADD MSTORE PUSH1 0x18 PUSH1 0x24 DUP3 ADD MSTORE PUSH32 0x726566756E64206F6E6C79207768656E203120656E7472790000000000000000 PUSH1 0x44 DUP3 ADD MSTORE PUSH1 0x64 SWAP1 REVERT JUMPDEST CALLVALUE PUSH2 0x167 JUMPI PUSH1 0x20 CALLDATASIZE PUSH1 0x3 NOT ADD SLT PUSH2 0x167 JUMPI PUSH1 0x4 CALLDATALOAD PUSH1 0x1 PUSH1 0x1 PUSH1 0xA0 SHL SUB DUP2 AND SWAP1 DUP2 DUP2 SUB PUSH2 0x167 JUMPI PUSH2 0x696 PUSH2 0x18F2 JUMP JUMPDEST DUP2 ISZERO PUSH2 0x6FD JUMPI PUSH32 0xB21F1BF0D206B43EB02BE4F423C2788A95AFFBDA226125EAECABE3DEF8BA5C42 PUSH1 0x40 PUSH1 0x2 SLOAD SWAP4 DUP2 MLOAD SWAP1 PUSH1 0x1 DUP1 PUSH1 0xA0 SHL SUB DUP7 PUSH1 0x8 SHR AND DUP3 MSTORE PUSH1 0x20 DUP3 ADD MSTORE LOG1 PUSH2 0x100 PUSH1 0x1 PUSH1 0xA8 SHL SUB NOT SWAP1 SWAP2 AND PUSH1 0x8 SWAP2 SWAP1 SWAP2 SHL PUSH2 0x100 PUSH1 0x1 PUSH1 0xA8 SHL SUB AND OR PUSH1 0x2 SSTORE STOP JUMPDEST PUSH1 0x40 MLOAD PUSH3 0x461BCD PUSH1 0xE5 SHL DUP2 MSTORE PUSH1 0x20 PUSH1 0x4 DUP3 ADD MSTORE PUSH1 0xD PUSH1 0x24 DUP3 ADD MSTORE PUSH13 0x1A5B9D985B1A59081859D95B9D PUSH1 0x9A SHL PUSH1 0x44 DUP3 ADD MSTORE PUSH1 0x64 SWAP1 REVERT JUMPDEST CALLVALUE PUSH2 0x167 JUMPI PUSH1 0x0 CALLDATASIZE PUSH1 0x3 NOT ADD SLT PUSH2 0x167 JUMPI PUSH2 0x74B PUSH2 0x18F2 JUMP JUMPDEST PUSH1 0x2 SLOAD PUSH1 0xFF DUP2 AND ISZERO PUSH2 0x78A JUMPI PUSH1 0xFF NOT AND PUSH1 0x2 SSTORE PUSH32 0x5DB9EE0A495BF2E6FF9C91A7834C1BA4FDD244A5E8AA4E537BD38AEAE4B073AA PUSH1 0x20 PUSH1 0x40 MLOAD CALLER DUP2 MSTORE LOG1 STOP JUMPDEST PUSH4 0x8DFC202B PUSH1 0xE0 SHL PUSH1 0x0 MSTORE PUSH1 0x4 PUSH1 0x0 REVERT JUMPDEST CALLVALUE PUSH2 0x167 JUMPI PUSH2 0x7A9 CALLDATASIZE PUSH2 0x1743 JUMP JUMPDEST SWAP1 PUSH1 0x0 MSTORE PUSH1 0x6 PUSH1 0x20 MSTORE PUSH1 0x40 PUSH1 0x0 KECCAK256 SWAP1 PUSH1 0x0 MSTORE PUSH1 0x20 MSTORE PUSH1 0x20 PUSH1 0x1 DUP1 PUSH1 0xA0 SHL SUB PUSH1 0x40 PUSH1 0x0 KECCAK256 SLOAD AND PUSH1 0x40 MLOAD SWAP1 DUP2 MSTORE RETURN JUMPDEST CALLVALUE PUSH2 0x167 JUMPI PUSH1 0x40 CALLDATASIZE PUSH1 0x3 NOT ADD SLT PUSH2 0x167 JUMPI PUSH1 0x4 CALLDATALOAD PUSH1 0x24 CALLDATALOAD PUSH8 0xFFFFFFFFFFFFFFFF DUP2 GT PUSH2 0x167 JUMPI CALLDATASIZE PUSH1 0x23 DUP3 ADD SLT ISZERO PUSH2 0x167 JUMPI DUP1 PUSH1 0x4 ADD CALLDATALOAD PUSH8 0xFFFFFFFFFFFFFFFF DUP2 GT PUSH2 0x167 JUMPI CALLDATASIZE PUSH1 0x24 DUP3 PUSH1 0x5 SHL DUP5 ADD ADD GT PUSH2 0x167 JUMPI PUSH2 0x832 PUSH2 0x1938 JUMP JUMPDEST PUSH2 0x83A PUSH2 0x191B JUMP JUMPDEST DUP1 ISZERO PUSH2 0xBFC JUMPI DUP3 PUSH1 0x0 MSTORE PUSH1 0x5 PUSH1 0x20 MSTORE PUSH1 0x40 PUSH1 0x0 KECCAK256 SWAP2 DUP3 SLOAD ISZERO PUSH2 0xBCB JUMPI PUSH1 0xFF PUSH1 0x8 DUP5 ADD SLOAD PUSH2 0x869 DUP3 DUP3 AND ISZERO PUSH2 0x1812 JUMP JUMPDEST PUSH1 0x8 SHR AND PUSH2 0xB9D JUMPI PUSH1 0x3 DUP4 ADD SLOAD TIMESTAMP LT PUSH2 0xB6A JUMPI PUSH1 0x4 DUP4 ADD SLOAD TIMESTAMP LT ISZERO PUSH2 0xB3D JUMPI PUSH1 0x5 DUP4 ADD SLOAD SWAP3 DUP3 DUP5 MUL SWAP4 DUP1 DUP6 DIV DUP5 EQ SWAP1 ISZERO OR ISZERO PUSH2 0xB27 JUMPI PUSH1 0x40 MLOAD PUSH4 0x23B872DD PUSH1 0xE0 SHL DUP2 MSTORE CALLER PUSH1 0x4 DUP3 ADD MSTORE ADDRESS PUSH1 0x24 DUP3 ADD MSTORE PUSH1 0x44 DUP2 ADD DUP6 SWAP1 MSTORE PUSH1 0x20 DUP2 PUSH1 0x64 DUP2 PUSH1 0x0 PUSH32 0x0 PUSH1 0x1 PUSH1 0x1 PUSH1 0xA0 SHL SUB AND GAS CALL SWAP1 DUP2 ISZERO PUSH2 0x35E JUMPI PUSH1 0x0 SWAP2 PUSH2 0xB08 JUMPI JUMPDEST POP ISZERO PUSH2 0xAD1 JUMPI SWAP2 SWAP3 PUSH1 0x1 DUP4 ADD SWAP3 SWAP1 PUSH1 0x0 JUMPDEST DUP6 DUP2 LT ISZERO PUSH2 0xAA7 JUMPI PUSH1 0x0 PUSH1 0x24 DUP3 PUSH1 0x5 SHL DUP7 ADD ADD CALLDATALOAD SWAP1 DUP7 SLOAD DUP3 LT ISZERO DUP1 PUSH2 0xA99 JUMPI JUMPDEST ISZERO PUSH2 0xA65 JUMPI DUP9 DUP2 MSTORE PUSH1 0x7 PUSH1 0x20 MSTORE PUSH1 0x40 DUP2 KECCAK256 DUP3 DUP3 MSTORE PUSH1 0x20 MSTORE PUSH1 0xFF PUSH1 0x40 DUP3 KECCAK256 SLOAD AND PUSH2 0xA38 JUMPI DUP9 DUP2 MSTORE PUSH1 0x7 PUSH1 0x20 MSTORE PUSH1 0x40 DUP2 KECCAK256 DUP3 DUP3 MSTORE PUSH1 0x20 MSTORE PUSH1 0x40 DUP2 KECCAK256 PUSH1 0x1 PUSH1 0xFF NOT DUP3 SLOAD AND OR SWAP1 SSTORE DUP9 DUP2 MSTORE PUSH1 0x6 PUSH1 0x20 MSTORE PUSH1 0x40 DUP2 KECCAK256 DUP3 DUP3 MSTORE PUSH1 0x20 MSTORE PUSH1 0x40 DUP2 KECCAK256 CALLER PUSH12 0xFFFFFFFFFFFFFFFFFFFFFFFF PUSH1 0xA0 SHL DUP3 SLOAD AND OR SWAP1 SSTORE DUP9 DUP2 MSTORE PUSH1 0x8 PUSH1 0x20 MSTORE PUSH1 0x40 DUP2 KECCAK256 DUP1 SLOAD SWAP2 PUSH1 0x1 PUSH1 0x40 SHL DUP4 LT ISZERO PUSH2 0xA24 JUMPI POP PUSH1 0x1 SWAP4 SWAP3 PUSH2 0x9F6 DUP4 PUSH1 0x60 SWAP4 DUP8 PUSH32 0x373A96A13BF6138B98BB34A767ECEBDE6ED77916085685C78EFFB698238B12FA SWAP7 ADD DUP2 SSTORE PUSH2 0x1796 JUMP JUMPDEST DUP2 SLOAD SWAP1 PUSH1 0x3 SHL SWAP1 DUP4 DUP3 SHL SWAP2 PUSH1 0x0 NOT SWAP1 SHL NOT AND OR SWAP1 SSTORE PUSH1 0x40 MLOAD SWAP1 DUP12 DUP3 MSTORE PUSH1 0x20 DUP3 ADD MSTORE CALLER PUSH1 0x40 DUP3 ADD MSTORE LOG1 ADD PUSH2 0x913 JUMP JUMPDEST PUSH4 0x4E487B71 PUSH1 0xE0 SHL DUP2 MSTORE PUSH1 0x41 PUSH1 0x4 MSTORE PUSH1 0x24 SWAP1 REVERT JUMPDEST PUSH1 0x40 MLOAD PUSH3 0x461BCD PUSH1 0xE5 SHL DUP2 MSTORE PUSH1 0x20 PUSH1 0x4 DUP3 ADD MSTORE PUSH1 0x5 PUSH1 0x24 DUP3 ADD MSTORE PUSH5 0x3A30B5B2B7 PUSH1 0xD9 SHL PUSH1 0x44 DUP3 ADD MSTORE PUSH1 0x64 SWAP1 REVERT JUMPDEST PUSH1 0x40 MLOAD PUSH3 0x461BCD PUSH1 0xE5 SHL DUP2 MSTORE PUSH1 0x20 PUSH1 0x4 DUP3 ADD MSTORE PUSH1 0xC PUSH1 0x24 DUP3 ADD MSTORE PUSH12 0x6F75742D6F662D72616E6765 PUSH1 0xA0 SHL PUSH1 0x44 DUP3 ADD MSTORE PUSH1 0x64 SWAP1 REVERT JUMPDEST POP PUSH1 0x2 DUP6 ADD SLOAD DUP3 GT ISZERO PUSH2 0x933 JUMP JUMPDEST POP PUSH2 0xAC9 PUSH1 0x6 DUP4 DUP8 PUSH2 0xABE PUSH1 0x7 DUP4 ADD SWAP2 DUP3 SLOAD PUSH2 0x187F JUMP JUMPDEST SWAP1 SSTORE ADD SWAP2 DUP3 SLOAD PUSH2 0x187F JUMP JUMPDEST SWAP1 SSTORE PUSH1 0x1 DUP1 SSTORE STOP JUMPDEST PUSH1 0x40 MLOAD PUSH3 0x461BCD PUSH1 0xE5 SHL DUP2 MSTORE PUSH1 0x20 PUSH1 0x4 DUP3 ADD MSTORE PUSH1 0xF PUSH1 0x24 DUP3 ADD MSTORE PUSH15 0x1D1C985B9CD9995C8B59985A5B1959 PUSH1 0x8A SHL PUSH1 0x44 DUP3 ADD MSTORE PUSH1 0x64 SWAP1 REVERT JUMPDEST PUSH2 0xB21 SWAP2 POP PUSH1 0x20 RETURNDATASIZE PUSH1 0x20 GT PUSH2 0x357 JUMPI PUSH2 0x349 DUP2 DUP4 PUSH2 0x188C JUMP JUMPDEST DUP7 PUSH2 0x902 JUMP JUMPDEST PUSH4 0x4E487B71 PUSH1 0xE0 SHL PUSH1 0x0 MSTORE PUSH1 0x11 PUSH1 0x4 MSTORE PUSH1 0x24 PUSH1 0x0 REVERT JUMPDEST PUSH1 0x40 MLOAD PUSH3 0x461BCD PUSH1 0xE5 SHL DUP2 MSTORE PUSH1 0x20 PUSH1 0x4 DUP3 ADD MSTORE PUSH1 0x5 PUSH1 0x24 DUP3 ADD MSTORE PUSH5 0x195B991959 PUSH1 0xDA SHL PUSH1 0x44 DUP3 ADD MSTORE PUSH1 0x64 SWAP1 REVERT JUMPDEST PUSH1 0x40 MLOAD PUSH3 0x461BCD PUSH1 0xE5 SHL DUP2 MSTORE PUSH1 0x20 PUSH1 0x4 DUP3 ADD MSTORE PUSH1 0xB PUSH1 0x24 DUP3 ADD MSTORE PUSH11 0x1B9BDD0B5CDD185C9D1959 PUSH1 0xAA SHL PUSH1 0x44 DUP3 ADD MSTORE PUSH1 0x64 SWAP1 REVERT JUMPDEST PUSH1 0x40 MLOAD PUSH3 0x461BCD PUSH1 0xE5 SHL DUP2 MSTORE PUSH1 0x20 PUSH1 0x4 DUP3 ADD MSTORE PUSH1 0x6 PUSH1 0x24 DUP3 ADD MSTORE PUSH6 0x1C185D5CD959 PUSH1 0xD2 SHL PUSH1 0x44 DUP3 ADD MSTORE PUSH1 0x64 SWAP1 REVERT JUMPDEST PUSH1 0x40 MLOAD PUSH3 0x461BCD PUSH1 0xE5 SHL DUP2 MSTORE PUSH1 0x20 PUSH1 0x4 DUP3 ADD MSTORE PUSH1 0x9 PUSH1 0x24 DUP3 ADD MSTORE PUSH9 0x1B9BDD0B595E1A5CDD PUSH1 0xBA SHL PUSH1 0x44 DUP3 ADD MSTORE PUSH1 0x64 SWAP1 REVERT JUMPDEST PUSH1 0x40 MLOAD PUSH3 0x461BCD PUSH1 0xE5 SHL DUP2 MSTORE PUSH1 0x20 PUSH1 0x4 DUP3 ADD MSTORE PUSH1 0xA PUSH1 0x24 DUP3 ADD MSTORE PUSH10 0x6E6F206E756D62657273 PUSH1 0xB0 SHL PUSH1 0x44 DUP3 ADD MSTORE PUSH1 0x64 SWAP1 REVERT JUMPDEST CALLVALUE PUSH2 0x167 JUMPI PUSH1 0x0 CALLDATASIZE PUSH1 0x3 NOT ADD SLT PUSH2 0x167 JUMPI PUSH1 0x20 PUSH1 0x3 SLOAD PUSH1 0x40 MLOAD SWAP1 DUP2 MSTORE RETURN JUMPDEST CALLVALUE PUSH2 0x167 JUMPI PUSH1 0x0 CALLDATASIZE PUSH1 0x3 NOT ADD SLT PUSH2 0x167 JUMPI PUSH1 0x20 PUSH1 0x40 MLOAD PUSH1 0x64 DUP2 MSTORE RETURN JUMPDEST CALLVALUE PUSH2 0x167 JUMPI PUSH1 0x0 CALLDATASIZE PUSH1 0x3 NOT ADD SLT PUSH2 0x167 JUMPI PUSH1 0x0 SLOAD PUSH1 0x40 MLOAD PUSH1 0x1 PUSH1 0x1 PUSH1 0xA0 SHL SUB SWAP1 SWAP2 AND DUP2 MSTORE PUSH1 0x20 SWAP1 RETURN JUMPDEST CALLVALUE PUSH2 0x167 JUMPI PUSH1 0x0 CALLDATASIZE PUSH1 0x3 NOT ADD SLT PUSH2 0x167 JUMPI PUSH2 0xCAA PUSH2 0x18F2 JUMP JUMPDEST PUSH1 0x0 DUP1 SLOAD PUSH1 0x1 PUSH1 0x1 PUSH1 0xA0 SHL SUB NOT DUP2 AND DUP3 SSTORE PUSH1 0x1 PUSH1 0x1 PUSH1 0xA0 SHL SUB AND PUSH32 0x8BE0079C531659141344CD1FD0A4F28419497F9722A3DAAFE3B4186F6B6457E0 DUP3 DUP1 LOG3 STOP JUMPDEST CALLVALUE PUSH2 0x167 JUMPI PUSH1 0x20 CALLDATASIZE PUSH1 0x3 NOT ADD SLT PUSH2 0x167 JUMPI PUSH1 0x4 CALLDATALOAD PUSH1 0x0 MSTORE PUSH1 0x8 PUSH1 0x20 MSTORE PUSH1 0x40 PUSH1 0x0 KECCAK256 PUSH1 0x40 MLOAD DUP1 PUSH1 0x20 DUP4 SLOAD SWAP2 DUP3 DUP2 MSTORE ADD SWAP1 DUP2 SWAP4 PUSH1 0x0 MSTORE PUSH1 0x20 PUSH1 0x0 KECCAK256 SWAP1 PUSH1 0x0 JUMPDEST DUP2 DUP2 LT PUSH2 0xD80 JUMPI POP POP POP DUP2 PUSH2 0xD3D SWAP2 SUB DUP3 PUSH2 0x188C JUMP JUMPDEST PUSH1 0x40 MLOAD SWAP2 DUP3 SWAP2 PUSH1 0x20 DUP4 ADD SWAP1 PUSH1 0x20 DUP5 MSTORE MLOAD DUP1 SWAP2 MSTORE PUSH1 0x40 DUP4 ADD SWAP2 SWAP1 PUSH1 0x0 JUMPDEST DUP2 DUP2 LT PUSH2 0xD67 JUMPI POP POP POP SUB SWAP1 RETURN JUMPDEST DUP3 MLOAD DUP5 MSTORE DUP6 SWAP5 POP PUSH1 0x20 SWAP4 DUP5 ADD SWAP4 SWAP1 SWAP3 ADD SWAP2 PUSH1 0x1 ADD PUSH2 0xD59 JUMP JUMPDEST DUP3 SLOAD DUP5 MSTORE PUSH1 0x20 SWAP1 SWAP4 ADD SWAP3 PUSH1 0x1 SWAP3 DUP4 ADD SWAP3 ADD PUSH2 0xD27 JUMP JUMPDEST CALLVALUE PUSH2 0x167 JUMPI PUSH2 0xDA4 CALLDATASIZE PUSH2 0x1743 JUMP JUMPDEST SWAP1 PUSH1 0x0 MSTORE PUSH1 0x8 PUSH1 0x20 MSTORE PUSH1 0x40 PUSH1 0x0 KECCAK256 DUP1 SLOAD DUP3 LT ISZERO PUSH2 0x167 JUMPI PUSH1 0x20 SWAP2 PUSH2 0xDC7 SWAP2 PUSH2 0x1796 JUMP JUMPDEST SWAP1 SLOAD SWAP1 PUSH1 0x3 SHL SHR PUSH1 0x40 MLOAD SWAP1 DUP2 MSTORE RETURN JUMPDEST CALLVALUE PUSH2 0x167 JUMPI PUSH1 0x20 CALLDATASIZE PUSH1 0x3 NOT ADD SLT PUSH2 0x167 JUMPI PUSH32 0x59AE418981AE00500624DCA49FA8395D59A12E54CC5AF94604258B6402CFB004 PUSH1 0x20 PUSH1 0x4 CALLDATALOAD PUSH2 0xE15 PUSH2 0x18F2 JUMP JUMPDEST DUP1 PUSH1 0x0 MSTORE PUSH1 0x5 DUP3 MSTORE PUSH1 0x8 PUSH1 0x40 PUSH1 0x0 KECCAK256 ADD PUSH2 0x100 PUSH2 0xFF00 NOT DUP3 SLOAD AND OR SWAP1 SSTORE PUSH1 0x40 MLOAD SWAP1 DUP2 MSTORE LOG1 STOP JUMPDEST CALLVALUE PUSH2 0x167 JUMPI PUSH1 0x20 CALLDATASIZE PUSH1 0x3 NOT ADD SLT PUSH2 0x167 JUMPI PUSH1 0x4 CALLDATALOAD PUSH1 0x0 MSTORE PUSH1 0x5 PUSH1 0x20 MSTORE PUSH2 0x140 PUSH1 0x40 PUSH1 0x0 KECCAK256 PUSH1 0xFF DUP2 SLOAD SWAP2 PUSH1 0x1 DUP2 ADD SLOAD SWAP1 PUSH1 0x2 DUP2 ADD SLOAD PUSH1 0x3 DUP3 ADD SLOAD PUSH1 0x4 DUP4 ADD SLOAD PUSH1 0x5 DUP5 ADD SLOAD SWAP2 PUSH1 0x6 DUP6 ADD SLOAD SWAP4 PUSH1 0x8 PUSH1 0x7 DUP8 ADD SLOAD SWAP7 ADD SLOAD SWAP7 PUSH1 0x40 MLOAD SWAP10 DUP11 MSTORE PUSH1 0x20 DUP11 ADD MSTORE PUSH1 0x40 DUP10 ADD MSTORE PUSH1 0x60 DUP9 ADD MSTORE PUSH1 0x80 DUP8 ADD MSTORE PUSH1 0xA0 DUP7 ADD MSTORE PUSH1 0xC0 DUP6 ADD MSTORE PUSH1 0xE0 DUP5 ADD MSTORE DUP2 DUP2 AND ISZERO ISZERO PUSH2 0x100 DUP5 ADD MSTORE PUSH1 0x8 SHR AND ISZERO ISZERO PUSH2 0x120 DUP3 ADD MSTORE RETURN JUMPDEST CALLVALUE PUSH2 0x167 JUMPI PUSH1 0x0 CALLDATASIZE PUSH1 0x3 NOT ADD SLT PUSH2 0x167 JUMPI PUSH1 0x20 PUSH1 0xFF PUSH1 0x2 SLOAD AND PUSH1 0x40 MLOAD SWAP1 ISZERO ISZERO DUP2 MSTORE RETURN JUMPDEST CALLVALUE PUSH2 0x167 JUMPI PUSH1 0x0 CALLDATASIZE PUSH1 0x3 NOT ADD SLT PUSH2 0x167 JUMPI PUSH1 0x20 PUSH1 0x4 SLOAD PUSH1 0x40 MLOAD SWAP1 DUP2 MSTORE RETURN JUMPDEST CALLVALUE PUSH2 0x167 JUMPI PUSH1 0x20 CALLDATASIZE PUSH1 0x3 NOT ADD SLT PUSH2 0x167 JUMPI PUSH32 0x88D20D5EA9EABA2406719D2E3E97A5BA16FB0748F87067B5D315FFA7ED7A0101 PUSH1 0x20 PUSH1 0x4 CALLDATALOAD PUSH2 0xF52 PUSH2 0x18F2 JUMP JUMPDEST DUP1 PUSH1 0x0 MSTORE PUSH1 0x5 DUP3 MSTORE PUSH1 0x8 PUSH1 0x40 PUSH1 0x0 KECCAK256 ADD PUSH2 0xFF00 NOT DUP2 SLOAD AND SWAP1 SSTORE PUSH1 0x40 MLOAD SWAP1 DUP2 MSTORE LOG1 STOP JUMPDEST CALLVALUE PUSH2 0x167 JUMPI PUSH1 0x20 CALLDATASIZE PUSH1 0x3 NOT ADD SLT PUSH2 0x167 JUMPI PUSH1 0x4 CALLDATALOAD PUSH1 0x0 MSTORE PUSH1 0x5 PUSH1 0x20 MSTORE PUSH1 0x9 PUSH1 0x40 PUSH1 0x0 KECCAK256 ADD PUSH1 0x40 MLOAD SWAP1 DUP2 PUSH1 0x20 DUP3 SLOAD SWAP2 DUP3 DUP2 MSTORE ADD SWAP2 PUSH1 0x0 MSTORE PUSH1 0x20 PUSH1 0x0 KECCAK256 SWAP1 PUSH1 0x0 JUMPDEST DUP2 DUP2 LT PUSH2 0xFE2 JUMPI PUSH2 0xFDE DUP6 PUSH2 0xFCA DUP2 DUP8 SUB DUP3 PUSH2 0x188C JUMP JUMPDEST PUSH1 0x40 MLOAD SWAP2 DUP3 SWAP2 PUSH1 0x20 DUP4 MSTORE PUSH1 0x20 DUP4 ADD SWAP1 PUSH2 0x1759 JUMP JUMPDEST SUB SWAP1 RETURN JUMPDEST DUP3 SLOAD PUSH1 0x1 PUSH1 0x1 PUSH1 0xA0 SHL SUB AND DUP5 MSTORE PUSH1 0x20 SWAP1 SWAP4 ADD SWAP3 PUSH1 0x1 SWAP3 DUP4 ADD SWAP3 ADD PUSH2 0xFB3 JUMP JUMPDEST CALLVALUE PUSH2 0x167 JUMPI PUSH1 0x0 CALLDATASIZE PUSH1 0x3 NOT ADD SLT PUSH2 0x167 JUMPI PUSH2 0x101A PUSH2 0x18F2 JUMP JUMPDEST PUSH2 0x1022 PUSH2 0x191B JUMP JUMPDEST PUSH1 0x1 PUSH1 0xFF NOT PUSH1 0x2 SLOAD AND OR PUSH1 0x2 SSTORE PUSH32 0x62E78CEA01BEE320CD4E420270B5EA74000D11B0C9F74754EBDBFC544B05A258 PUSH1 0x20 PUSH1 0x40 MLOAD CALLER DUP2 MSTORE LOG1 STOP JUMPDEST CALLVALUE PUSH2 0x167 JUMPI PUSH2 0x1069 CALLDATASIZE PUSH2 0x1743 JUMP JUMPDEST SWAP1 PUSH1 0x0 MSTORE PUSH1 0x7 PUSH1 0x20 MSTORE PUSH1 0x40 PUSH1 0x0 KECCAK256 SWAP1 PUSH1 0x0 MSTORE PUSH1 0x20 MSTORE PUSH1 0x20 PUSH1 0xFF PUSH1 0x40 PUSH1 0x0 KECCAK256 SLOAD AND PUSH1 0x40 MLOAD SWAP1 ISZERO ISZERO DUP2 MSTORE RETURN JUMPDEST CALLVALUE PUSH2 0x167 JUMPI PUSH1 0x20 CALLDATASIZE PUSH1 0x3 NOT ADD SLT PUSH2 0x167 JUMPI PUSH1 0x4 CALLDATALOAD PUSH2 0x10BF PUSH1 0x1 DUP1 PUSH1 0xA0 SHL SUB PUSH1 0x2 SLOAD PUSH1 0x8 SHR AND CALLER EQ PUSH2 0x17D3 JUMP JUMPDEST PUSH2 0x10C7 PUSH2 0x1938 JUMP JUMPDEST PUSH2 0x10CF PUSH2 0x191B JUMP JUMPDEST DUP1 PUSH1 0x0 MSTORE PUSH1 0x5 PUSH1 0x20 MSTORE PUSH1 0x40 PUSH1 0x0 KECCAK256 PUSH1 0x8 DUP2 ADD SWAP2 PUSH2 0x10F0 PUSH1 0xFF DUP5 SLOAD AND ISZERO PUSH2 0x1812 JUMP JUMPDEST PUSH2 0x1100 PUSH1 0x4 DUP4 ADD SLOAD TIMESTAMP LT ISZERO PUSH2 0x1847 JUMP JUMPDEST PUSH1 0x7 DUP3 ADD SLOAD PUSH1 0x1 DUP2 EQ PUSH2 0x14C9 JUMPI PUSH1 0x2 DUP2 LT PUSH2 0x1492 JUMPI PUSH1 0xA DUP2 DIV SWAP4 DUP5 ISZERO PUSH2 0x1489 JUMPI JUMPDEST DUP3 PUSH1 0x0 MSTORE PUSH1 0x8 PUSH1 0x20 MSTORE PUSH1 0x40 PUSH1 0x0 KECCAK256 SWAP2 DUP3 SLOAD SUB PUSH2 0x1454 JUMPI PUSH1 0x6 DUP5 ADD SWAP2 DUP3 SLOAD PUSH1 0x64 DUP2 MUL SWAP1 DUP1 DUP3 DIV PUSH1 0x64 EQ SWAP1 ISZERO OR ISZERO PUSH2 0xB27 JUMPI PUSH2 0x2710 SWAP1 DIV SWAP3 PUSH2 0x1163 DUP5 PUSH1 0x4 SLOAD PUSH2 0x187F JUMP JUMPDEST PUSH1 0x4 SSTORE SLOAD SWAP3 DUP4 SUB SWAP3 DUP4 GT PUSH2 0xB27 JUMPI DUP6 ISZERO PUSH2 0x143E JUMPI SWAP5 SWAP4 DUP5 DUP4 DIV SWAP5 PUSH2 0x1186 DUP2 PUSH2 0x18AE JUMP JUMPDEST SWAP6 PUSH2 0x1194 PUSH1 0x40 MLOAD SWAP8 DUP9 PUSH2 0x188C JUMP JUMPDEST DUP2 DUP8 MSTORE PUSH1 0x1F NOT PUSH2 0x11A3 DUP4 PUSH2 0x18AE JUMP JUMPDEST ADD CALLDATASIZE PUSH1 0x20 DUP10 ADD CALLDATACOPY DUP8 SLOAD SWAP1 PUSH2 0x11B6 DUP3 PUSH2 0x18AE JUMP JUMPDEST SWAP2 PUSH2 0x11C4 PUSH1 0x40 MLOAD SWAP4 DUP5 PUSH2 0x188C JUMP JUMPDEST DUP1 DUP4 MSTORE PUSH2 0x11D3 PUSH1 0x1F NOT SWAP2 PUSH2 0x18AE JUMP JUMPDEST ADD CALLDATASIZE PUSH1 0x20 DUP5 ADD CALLDATACOPY CALLER PUSH1 0x60 SHL SWAP9 PUSH1 0x0 SWAP5 PUSH1 0x9 ADD SWAP3 PUSH32 0x0 PUSH1 0x1 PUSH1 0x1 PUSH1 0xA0 SHL SUB AND SWAP2 DUP7 JUMPDEST DUP7 DUP2 LT PUSH2 0x1275 JUMPI PUSH32 0x77CF96C3480E3074CF8F30803B5564056C8C5A6D53043F4EBFF6094F89AE7C5D DUP13 DUP13 DUP13 DUP13 PUSH1 0x1 PUSH1 0xFF NOT DUP3 SLOAD AND OR SWAP1 SSTORE PUSH2 0x1266 PUSH1 0x40 MLOAD SWAP4 DUP5 SWAP4 DUP5 MSTORE PUSH1 0x60 PUSH1 0x20 DUP6 ADD MSTORE PUSH1 0x60 DUP5 ADD SWAP1 PUSH2 0x1759 JUMP JUMPDEST SWAP1 PUSH1 0x40 DUP4 ADD MSTORE SUB SWAP1 LOG1 PUSH1 0x1 DUP1 SSTORE STOP JUMPDEST DUP13 PUSH1 0x40 MLOAD PUSH1 0x20 DUP2 ADD SWAP2 TIMESTAMP DUP4 MSTORE PREVRANDAO PUSH1 0x40 DUP4 ADD MSTORE PUSH1 0x60 DUP3 ADD MSTORE DUP10 PUSH1 0x74 DUP3 ADD MSTORE DUP13 PUSH1 0x94 DUP3 ADD MSTORE PUSH1 0x94 DUP2 MSTORE PUSH2 0x12A7 PUSH1 0xB4 DUP3 PUSH2 0x188C JUMP JUMPDEST MLOAD SWAP1 KECCAK256 DUP3 SLOAD SWAP1 DUP2 ISZERO PUSH2 0x143E JUMPI MOD PUSH2 0x12BE DUP2 DUP6 PUSH2 0x18C6 JUMP JUMPDEST MLOAD PUSH2 0x1433 JUMPI DUP1 PUSH1 0x1 PUSH2 0x12D3 PUSH2 0x12DA SWAP4 DUP8 PUSH2 0x18C6 JUMP JUMPDEST MSTORE DUP4 PUSH2 0x1796 JUMP JUMPDEST SWAP1 SLOAD SWAP1 PUSH1 0x3 SHL SHR DUP12 PUSH1 0x0 MSTORE PUSH1 0x6 PUSH1 0x20 MSTORE PUSH1 0x40 PUSH1 0x0 KECCAK256 SWAP1 PUSH1 0x0 MSTORE PUSH1 0x20 MSTORE PUSH1 0x1 DUP1 PUSH1 0xA0 SHL SUB PUSH1 0x40 PUSH1 0x0 KECCAK256 SLOAD AND DUP13 DUP2 ISZERO PUSH2 0x1421 JUMPI PUSH2 0x1316 DUP4 DUP4 SWAP3 PUSH2 0x18C6 JUMP JUMPDEST MSTORE DUP7 SLOAD SWAP1 PUSH1 0x1 PUSH1 0x40 SHL DUP3 LT ISZERO PUSH2 0x140B JUMPI DUP7 PUSH1 0x20 SWAP2 PUSH2 0x133D DUP5 PUSH1 0x1 PUSH2 0x1384 SWAP7 ADD DUP13 SSTORE DUP12 PUSH2 0x1796 JUMP JUMPDEST DUP2 SLOAD PUSH1 0x1 PUSH1 0x1 PUSH1 0xA0 SHL SUB PUSH1 0x3 SWAP3 SWAP1 SWAP3 SHL DUP3 DUP2 SHL NOT SWAP1 SWAP2 AND SWAP1 DUP5 SWAP1 SHL OR SWAP1 SWAP2 SSTORE PUSH1 0x40 MLOAD PUSH4 0xA9059CBB PUSH1 0xE0 SHL DUP2 MSTORE SWAP2 AND PUSH1 0x4 DUP3 ADD MSTORE PUSH1 0x24 DUP2 ADD SWAP2 SWAP1 SWAP2 MSTORE SWAP2 DUP3 SWAP1 DUP2 SWAP1 PUSH1 0x44 DUP3 ADD SWAP1 JUMP JUMPDEST SUB DUP2 PUSH1 0x0 DUP10 GAS CALL SWAP1 DUP2 ISZERO PUSH2 0x35E JUMPI PUSH1 0x0 SWAP2 PUSH2 0x13ED JUMPI JUMPDEST POP ISZERO PUSH2 0x13BB JUMPI PUSH2 0x13AC PUSH2 0x13B2 SWAP2 PUSH2 0x17C4 JUMP JUMPDEST SWAP8 PUSH2 0x17C4 JUMP JUMPDEST SWAP6 JUMPDEST SWAP6 SWAP7 PUSH2 0x1213 JUMP JUMPDEST PUSH1 0x40 MLOAD PUSH3 0x461BCD PUSH1 0xE5 SHL DUP2 MSTORE PUSH1 0x20 PUSH1 0x4 DUP3 ADD MSTORE PUSH1 0xA PUSH1 0x24 DUP3 ADD MSTORE PUSH10 0x1C185E4B59985A5B1959 PUSH1 0xB2 SHL PUSH1 0x44 DUP3 ADD MSTORE PUSH1 0x64 SWAP1 REVERT JUMPDEST PUSH2 0x1405 SWAP2 POP PUSH1 0x20 RETURNDATASIZE DUP2 GT PUSH2 0x357 JUMPI PUSH2 0x349 DUP2 DUP4 PUSH2 0x188C JUMP JUMPDEST DUP15 PUSH2 0x139A JUMP JUMPDEST PUSH4 0x4E487B71 PUSH1 0xE0 SHL PUSH1 0x0 MSTORE PUSH1 0x41 PUSH1 0x4 MSTORE PUSH1 0x24 PUSH1 0x0 REVERT JUMPDEST POP POP SWAP7 PUSH2 0x142D SWAP1 PUSH2 0x17C4 JUMP JUMPDEST SWAP6 PUSH2 0x13B4 JUMP JUMPDEST POP SWAP7 PUSH2 0x142D SWAP1 PUSH2 0x17C4 JUMP JUMPDEST PUSH4 0x4E487B71 PUSH1 0xE0 SHL PUSH1 0x0 MSTORE PUSH1 0x12 PUSH1 0x4 MSTORE PUSH1 0x24 PUSH1 0x0 REVERT JUMPDEST PUSH1 0x40 MLOAD PUSH3 0x461BCD PUSH1 0xE5 SHL DUP2 MSTORE PUSH1 0x20 PUSH1 0x4 DUP3 ADD MSTORE PUSH1 0xD PUSH1 0x24 DUP3 ADD MSTORE PUSH13 0xE0DEDED840DAD2E6DAC2E8C6D PUSH1 0x9B SHL PUSH1 0x44 DUP3 ADD MSTORE PUSH1 0x64 SWAP1 REVERT JUMPDEST PUSH1 0x1 SWAP5 POP PUSH2 0x1121 JUMP JUMPDEST PUSH1 0x40 MLOAD PUSH3 0x461BCD PUSH1 0xE5 SHL DUP2 MSTORE PUSH1 0x20 PUSH1 0x4 DUP3 ADD MSTORE PUSH1 0xF PUSH1 0x24 DUP3 ADD MSTORE PUSH15 0x6E6F207061727469636970616E7473 PUSH1 0x88 SHL PUSH1 0x44 DUP3 ADD MSTORE PUSH1 0x64 SWAP1 REVERT JUMPDEST PUSH1 0x40 MLOAD PUSH3 0x461BCD PUSH1 0xE5 SHL DUP2 MSTORE PUSH1 0x20 PUSH1 0x4 DUP3 ADD MSTORE PUSH1 0x23 PUSH1 0x24 DUP3 ADD MSTORE PUSH32 0x75736520726566756E64526166666C65282920666F72203120656E747279206F PUSH1 0x44 DUP3 ADD MSTORE PUSH3 0x6E6C79 PUSH1 0xE8 SHL PUSH1 0x64 DUP3 ADD MSTORE PUSH1 0x84 SWAP1 REVERT JUMPDEST CALLVALUE PUSH2 0x167 JUMPI PUSH1 0x0 CALLDATASIZE PUSH1 0x3 NOT ADD SLT PUSH2 0x167 JUMPI PUSH1 0x40 MLOAD PUSH32 0x0 PUSH1 0x1 PUSH1 0x1 PUSH1 0xA0 SHL SUB AND DUP2 MSTORE PUSH1 0x20 SWAP1 RETURN JUMPDEST CALLVALUE PUSH2 0x167 JUMPI PUSH2 0x156D CALLDATASIZE PUSH2 0x1743 JUMP JUMPDEST SWAP1 PUSH1 0x0 MSTORE PUSH1 0x7 PUSH1 0x20 MSTORE PUSH1 0x40 PUSH1 0x0 KECCAK256 SWAP1 PUSH1 0x0 MSTORE PUSH1 0x20 MSTORE PUSH1 0x20 PUSH1 0xFF PUSH1 0x40 PUSH1 0x0 KECCAK256 SLOAD AND ISZERO PUSH1 0x40 MLOAD SWAP1 DUP2 MSTORE RETURN JUMPDEST CALLVALUE PUSH2 0x167 JUMPI PUSH1 0xA0 CALLDATASIZE PUSH1 0x3 NOT ADD SLT PUSH2 0x167 JUMPI PUSH1 0x84 CALLDATALOAD PUSH1 0x24 CALLDATALOAD PUSH1 0x64 CALLDATALOAD PUSH1 0x44 CALLDATALOAD PUSH1 0x4 CALLDATALOAD PUSH2 0x15BE PUSH2 0x18F2 JUMP JUMPDEST PUSH2 0x15C6 PUSH2 0x191B JUMP JUMPDEST DUP1 DUP5 LT PUSH2 0x170E JUMPI DUP3 DUP6 GT ISZERO PUSH2 0x16D9 JUMPI TIMESTAMP DUP6 GT ISZERO PUSH2 0x16A3 JUMPI DUP2 ISZERO PUSH2 0x1672 JUMPI PUSH1 0x20 SWAP5 PUSH32 0x38E4B9D0E4320E52E3C771EA31882A1CB858DF7355C2F2A8EB69362BC010FCC2 SWAP4 DUP4 PUSH1 0xC0 SWAP5 PUSH1 0x5 PUSH2 0x1619 PUSH1 0x3 SLOAD PUSH2 0x17C4 JUMP JUMPDEST DUP1 PUSH1 0x3 SSTORE DUP1 PUSH1 0x0 MSTORE DUP2 DUP12 MSTORE PUSH1 0x40 PUSH1 0x0 KECCAK256 SWAP1 DUP2 SSTORE DUP7 PUSH1 0x1 DUP3 ADD SSTORE DUP10 PUSH1 0x2 DUP3 ADD SSTORE DUP5 PUSH1 0x3 DUP3 ADD SSTORE DUP6 PUSH1 0x4 DUP3 ADD SSTORE ADD SSTORE PUSH1 0x3 SLOAD SWAP7 PUSH1 0x40 MLOAD SWAP5 DUP9 DUP7 MSTORE DUP10 DUP7 ADD MSTORE PUSH1 0x40 DUP6 ADD MSTORE PUSH1 0x60 DUP5 ADD MSTORE PUSH1 0x80 DUP4 ADD MSTORE PUSH1 0xA0 DUP3 ADD MSTORE LOG1 PUSH1 0x40 MLOAD SWAP1 DUP2 MSTORE RETURN JUMPDEST PUSH1 0x40 MLOAD PUSH3 0x461BCD PUSH1 0xE5 SHL DUP2 MSTORE PUSH1 0x20 PUSH1 0x4 DUP3 ADD MSTORE PUSH1 0x9 PUSH1 0x24 DUP3 ADD MSTORE PUSH9 0x7072696365203E203 PUSH1 0xBC SHL PUSH1 0x44 DUP3 ADD MSTORE PUSH1 0x64 SWAP1 REVERT JUMPDEST PUSH1 0x40 MLOAD PUSH3 0x461BCD PUSH1 0xE5 SHL DUP2 MSTORE PUSH1 0x20 PUSH1 0x4 DUP3 ADD MSTORE PUSH1 0xE PUSH1 0x24 DUP3 ADD MSTORE PUSH14 0x6D75737420626520667574757265 PUSH1 0x90 SHL PUSH1 0x44 DUP3 ADD MSTORE PUSH1 0x64 SWAP1 REVERT JUMPDEST PUSH1 0x40 MLOAD PUSH3 0x461BCD PUSH1 0xE5 SHL DUP2 MSTORE PUSH1 0x20 PUSH1 0x4 DUP3 ADD MSTORE PUSH1 0xD PUSH1 0x24 DUP3 ADD MSTORE PUSH13 0x696E76616C69642074696D6573 PUSH1 0x98 SHL PUSH1 0x44 DUP3 ADD MSTORE PUSH1 0x64 SWAP1 REVERT JUMPDEST PUSH1 0x40 MLOAD PUSH3 0x461BCD PUSH1 0xE5 SHL DUP2 MSTORE PUSH1 0x20 PUSH1 0x4 DUP3 ADD MSTORE PUSH1 0xD PUSH1 0x24 DUP3 ADD MSTORE PUSH13 0x696E76616C69642072616E6765 PUSH1 0x98 SHL PUSH1 0x44 DUP3 ADD MSTORE PUSH1 0x64 SWAP1 REVERT JUMPDEST PUSH1 0x40 SWAP1 PUSH1 0x3 NOT ADD SLT PUSH2 0x167 JUMPI PUSH1 0x4 CALLDATALOAD SWAP1 PUSH1 0x24 CALLDATALOAD SWAP1 JUMP JUMPDEST SWAP1 PUSH1 0x20 DUP1 DUP4 MLOAD SWAP3 DUP4 DUP2 MSTORE ADD SWAP3 ADD SWAP1 PUSH1 0x0 JUMPDEST DUP2 DUP2 LT PUSH2 0x1777 JUMPI POP POP POP SWAP1 JUMP JUMPDEST DUP3 MLOAD PUSH1 0x1 PUSH1 0x1 PUSH1 0xA0 SHL SUB AND DUP5 MSTORE PUSH1 0x20 SWAP4 DUP5 ADD SWAP4 SWAP1 SWAP3 ADD SWAP2 PUSH1 0x1 ADD PUSH2 0x176A JUMP JUMPDEST DUP1 SLOAD DUP3 LT ISZERO PUSH2 0x17AE JUMPI PUSH1 0x0 MSTORE PUSH1 0x20 PUSH1 0x0 KECCAK256 ADD SWAP1 PUSH1 0x0 SWAP1 JUMP JUMPDEST PUSH4 0x4E487B71 PUSH1 0xE0 SHL PUSH1 0x0 MSTORE PUSH1 0x32 PUSH1 0x4 MSTORE PUSH1 0x24 PUSH1 0x0 REVERT JUMPDEST PUSH1 0x0 NOT DUP2 EQ PUSH2 0xB27 JUMPI PUSH1 0x1 ADD SWAP1 JUMP JUMPDEST ISZERO PUSH2 0x17DA JUMPI JUMP JUMPDEST PUSH1 0x40 MLOAD PUSH3 0x461BCD PUSH1 0xE5 SHL DUP2 MSTORE PUSH1 0x20 PUSH1 0x4 DUP3 ADD MSTORE PUSH1 0x10 PUSH1 0x24 DUP3 ADD MSTORE PUSH16 0x18D85B1B195C8B5B9BDD0B5859D95B9D PUSH1 0x82 SHL PUSH1 0x44 DUP3 ADD MSTORE PUSH1 0x64 SWAP1 REVERT JUMPDEST ISZERO PUSH2 0x1819 JUMPI JUMP JUMPDEST PUSH1 0x40 MLOAD PUSH3 0x461BCD PUSH1 0xE5 SHL DUP2 MSTORE PUSH1 0x20 PUSH1 0x4 DUP3 ADD MSTORE PUSH1 0x6 PUSH1 0x24 DUP3 ADD MSTORE PUSH6 0x18DB1BDCD959 PUSH1 0xD2 SHL PUSH1 0x44 DUP3 ADD MSTORE PUSH1 0x64 SWAP1 REVERT JUMPDEST ISZERO PUSH2 0x184E JUMPI JUMP JUMPDEST PUSH1 0x40 MLOAD PUSH3 0x461BCD PUSH1 0xE5 SHL DUP2 MSTORE PUSH1 0x20 PUSH1 0x4 DUP3 ADD MSTORE PUSH1 0x9 PUSH1 0x24 DUP3 ADD MSTORE PUSH9 0x1B9BDD0B595B991959 PUSH1 0xBA SHL PUSH1 0x44 DUP3 ADD MSTORE PUSH1 0x64 SWAP1 REVERT JUMPDEST SWAP2 SWAP1 DUP3 ADD DUP1 SWAP3 GT PUSH2 0xB27 JUMPI JUMP JUMPDEST SWAP1 PUSH1 0x1F DUP1 NOT SWAP2 ADD AND DUP2 ADD SWAP1 DUP2 LT PUSH8 0xFFFFFFFFFFFFFFFF DUP3 GT OR PUSH2 0x140B JUMPI PUSH1 0x40 MSTORE JUMP JUMPDEST PUSH8 0xFFFFFFFFFFFFFFFF DUP2 GT PUSH2 0x140B JUMPI PUSH1 0x5 SHL PUSH1 0x20 ADD SWAP1 JUMP JUMPDEST DUP1 MLOAD DUP3 LT ISZERO PUSH2 0x17AE JUMPI PUSH1 0x20 SWAP2 PUSH1 0x5 SHL ADD ADD SWAP1 JUMP JUMPDEST SWAP1 DUP2 PUSH1 0x20 SWAP2 SUB SLT PUSH2 0x167 JUMPI MLOAD DUP1 ISZERO ISZERO DUP2 SUB PUSH2 0x167 JUMPI SWAP1 JUMP JUMPDEST PUSH1 0x0 SLOAD PUSH1 0x1 PUSH1 0x1 PUSH1 0xA0 SHL SUB AND CALLER SUB PUSH2 0x1906 JUMPI JUMP JUMPDEST PUSH4 0x118CDAA7 PUSH1 0xE0 SHL PUSH1 0x0 MSTORE CALLER PUSH1 0x4 MSTORE PUSH1 0x24 PUSH1 0x0 REVERT JUMPDEST PUSH1 0xFF PUSH1 0x2 SLOAD AND PUSH2 0x1927 JUMPI JUMP JUMPDEST PUSH4 0xD93C0665 PUSH1 0xE0 SHL PUSH1 0x0 MSTORE PUSH1 0x4 PUSH1 0x0 REVERT JUMPDEST PUSH1 0x2 PUSH1 0x1 SLOAD EQ PUSH2 0x1949 JUMPI PUSH1 0x2 PUSH1 0x1 SSTORE JUMP JUMPDEST PUSH4 0x3EE5AEB5 PUSH1 0xE0 SHL PUSH1 0x0 MSTORE PUSH1 0x4 PUSH1 0x0 REVERT INVALID LOG2 PUSH5 0x6970667358 0x22 SLT KECCAK256 CALLDATACOPY DUP5 0xC6 DUP16 0xC2 0x22 0x2B 0xAA 0xD3 PUSH21 0x28D0282B4DEACE66110516FC1BDE70E7F09CD4175F 0xFC PUSH5 0x736F6C6343 STOP ADDMOD SHR STOP CALLER "
        },
        "methodIdentifiers": {
          "FEE_BASIS_POINTS()": "a525ad3c",
          "accumulatedFees()": "587f5ed7",
          "agent()": "f5ff5c76",
          "cUSD()": "1fccf672",
          "closeRaffle(uint256)": "234d0001",
          "createRaffle(uint256,uint256,uint256,uint256,uint256)": "0cb9ea7a",
          "getPurchasedNumbers(uint256)": "6ef5addb",
          "getRaffleWinners(uint256)": "4823b026",
          "isNumberAvailable(uint256,uint256)": "1952eb81",
          "joinRaffle(uint256,uint256[])": "aa1200c2",
          "numberOwner(uint256,uint256)": "ad711014",
          "numberTaken(uint256,uint256)": "24e30327",
          "owner()": "8da5cb5b",
          "pauseContract()": "439766ce",
          "pauseRaffle(uint256)": "5eaee86d",
          "paused()": "5c975abb",
          "purchasedNumbers(uint256,uint256)": "6c473b1e",
          "raffleCount()": "a54c120c",
          "raffles(uint256)": "5d4bc0ce",
          "refundRaffle(uint256)": "ea0a61c4",
          "renounceOwnership()": "715018a6",
          "setAgent(address)": "bcf685ed",
          "transferOwnership(address)": "f2fde38b",
          "unpauseContract()": "b33712c5",
          "unpauseRaffle(uint256)": "539cd3e5",
          "withdrawPlatformFees(address)": "ec3889b5"
        }
      }
    }
  }
}