{
  "contracts/RaffleUp.sol": {
    "RaffleUp": {
      "abi": [
        {
          "inputs": [
            {
              "internalType": "address",
              "name": "_cUSD",
              "type": "address"
            },
            {
              "internalType": "address",
              "name": "_agent",
              "type": "address"
            }
          ],
          "stateMutability": "nonpayable",
          "type": "constructor"
        },
        {
          "inputs": [],
          "name": "EnforcedPause",
          "type": "error"
        },
        {
          "inputs": [],
          "name": "ExpectedPause",
          "type": "error"
        },
        {
          "inputs": [
            {
              "internalType": "address",
              "name": "owner",
              "type": "address"
            }
          ],
          "name": "OwnableInvalidOwner",
          "type": "error"
        },
        {
          "inputs": [
            {
              "internalType": "address",
              "name": "account",
              "type": "address"
            }
          ],
          "name": "OwnableUnauthorizedAccount",
          "type": "error"
        },
        {
          "inputs": [],
          "name": "ReentrancyGuardReentrantCall",
          "type": "error"
        },
        {
          "anonymous": false,
          "inputs": [
            {
              "indexed": false,
              "internalType": "address",
              "name": "oldAgent",
              "type": "address"
            },
            {
              "indexed": false,
              "internalType": "address",
              "name": "newAgent",
              "type": "address"
            }
          ],
          "name": "AgentChanged",
          "type": "event"
        },
        {
          "anonymous": false,
          "inputs": [
            {
              "indexed": false,
              "internalType": "uint256",
              "name": "raffleId",
              "type": "uint256"
            },
            {
              "indexed": false,
              "internalType": "uint256",
              "name": "number",
              "type": "uint256"
            },
            {
              "indexed": false,
              "internalType": "address",
              "name": "buyer",
              "type": "address"
            }
          ],
          "name": "NumberPurchased",
          "type": "event"
        },
        {
          "anonymous": false,
          "inputs": [
            {
              "indexed": true,
              "internalType": "address",
              "name": "previousOwner",
              "type": "address"
            },
            {
              "indexed": true,
              "internalType": "address",
              "name": "newOwner",
              "type": "address"
            }
          ],
          "name": "OwnershipTransferred",
          "type": "event"
        },
        {
          "anonymous": false,
          "inputs": [
            {
              "indexed": false,
              "internalType": "address",
              "name": "account",
              "type": "address"
            }
          ],
          "name": "Paused",
          "type": "event"
        },
        {
          "anonymous": false,
          "inputs": [
            {
              "indexed": false,
              "internalType": "address",
              "name": "to",
              "type": "address"
            },
            {
              "indexed": false,
              "internalType": "uint256",
              "name": "amount",
              "type": "uint256"
            }
          ],
          "name": "PlatformFeesWithdrawn",
          "type": "event"
        },
        {
          "anonymous": false,
          "inputs": [
            {
              "indexed": false,
              "internalType": "uint256",
              "name": "raffleId",
              "type": "uint256"
            },
            {
              "indexed": false,
              "internalType": "address[]",
              "name": "winners",
              "type": "address[]"
            },
            {
              "indexed": false,
              "internalType": "uint256[]",
              "name": "winningNumbers",
              "type": "uint256[]"
            },
            {
              "indexed": false,
              "internalType": "uint256",
              "name": "totalDistributable",
              "type": "uint256"
            }
          ],
          "name": "RaffleClosed",
          "type": "event"
        },
        {
          "anonymous": false,
          "inputs": [
            {
              "indexed": false,
              "internalType": "uint256",
              "name": "raffleId",
              "type": "uint256"
            },
            {
              "indexed": false,
              "internalType": "uint256",
              "name": "startNum",
              "type": "uint256"
            },
            {
              "indexed": false,
              "internalType": "uint256",
              "name": "endNum",
              "type": "uint256"
            },
            {
              "indexed": false,
              "internalType": "uint256",
              "name": "entryPrice",
              "type": "uint256"
            },
            {
              "indexed": false,
              "internalType": "uint256",
              "name": "end",
              "type": "uint256"
            }
          ],
          "name": "RaffleCreated",
          "type": "event"
        },
        {
          "anonymous": false,
          "inputs": [
            {
              "indexed": false,
              "internalType": "uint256",
              "name": "raffleId",
              "type": "uint256"
            }
          ],
          "name": "RafflePaused",
          "type": "event"
        },
        {
          "anonymous": false,
          "inputs": [
            {
              "indexed": false,
              "internalType": "uint256",
              "name": "raffleId",
              "type": "uint256"
            }
          ],
          "name": "RaffleRefunded",
          "type": "event"
        },
        {
          "anonymous": false,
          "inputs": [
            {
              "indexed": false,
              "internalType": "uint256",
              "name": "raffleId",
              "type": "uint256"
            }
          ],
          "name": "RaffleUnpaused",
          "type": "event"
        },
        {
          "anonymous": false,
          "inputs": [
            {
              "indexed": false,
              "internalType": "address",
              "name": "account",
              "type": "address"
            }
          ],
          "name": "Unpaused",
          "type": "event"
        },
        {
          "inputs": [],
          "name": "FEE_BASIS_POINTS",
          "outputs": [
            {
              "internalType": "uint256",
              "name": "",
              "type": "uint256"
            }
          ],
          "stateMutability": "view",
          "type": "function"
        },
        {
          "inputs": [],
          "name": "accumulatedFees",
          "outputs": [
            {
              "internalType": "uint256",
              "name": "",
              "type": "uint256"
            }
          ],
          "stateMutability": "view",
          "type": "function"
        },
        {
          "inputs": [],
          "name": "agent",
          "outputs": [
            {
              "internalType": "address",
              "name": "",
              "type": "address"
            }
          ],
          "stateMutability": "view",
          "type": "function"
        },
        {
          "inputs": [],
          "name": "cUSD",
          "outputs": [
            {
              "internalType": "contract IERC20",
              "name": "",
              "type": "address"
            }
          ],
          "stateMutability": "view",
          "type": "function"
        },
        {
          "inputs": [
            {
              "internalType": "uint256",
              "name": "raffleId",
              "type": "uint256"
            }
          ],
          "name": "closeRaffle",
          "outputs": [],
          "stateMutability": "nonpayable",
          "type": "function"
        },
        {
          "inputs": [
            {
              "internalType": "uint256",
              "name": "startNumber",
              "type": "uint256"
            },
            {
              "internalType": "uint256",
              "name": "endNumber",
              "type": "uint256"
            },
            {
              "internalType": "uint256",
              "name": "entryPrice",
              "type": "uint256"
            },
            {
              "internalType": "uint256",
              "name": "endTime",
              "type": "uint256"
            }
          ],
          "name": "createRaffle",
          "outputs": [
            {
              "internalType": "uint256",
              "name": "",
              "type": "uint256"
            }
          ],
          "stateMutability": "nonpayable",
          "type": "function"
        },
        {
          "inputs": [
            {
              "internalType": "uint256",
              "name": "raffleId",
              "type": "uint256"
            },
            {
              "internalType": "address",
              "name": "user",
              "type": "address"
            }
          ],
          "name": "didUserWin",
          "outputs": [
            {
              "internalType": "bool",
              "name": "",
              "type": "bool"
            }
          ],
          "stateMutability": "view",
          "type": "function"
        },
        {
          "inputs": [
            {
              "internalType": "uint256",
              "name": "raffleId",
              "type": "uint256"
            }
          ],
          "name": "getPurchasedNumbers",
          "outputs": [
            {
              "internalType": "uint256[]",
              "name": "",
              "type": "uint256[]"
            }
          ],
          "stateMutability": "view",
          "type": "function"
        },
        {
          "inputs": [
            {
              "internalType": "uint256",
              "name": "raffleId",
              "type": "uint256"
            }
          ],
          "name": "getRaffleWinners",
          "outputs": [
            {
              "internalType": "address[]",
              "name": "",
              "type": "address[]"
            }
          ],
          "stateMutability": "view",
          "type": "function"
        },
        {
          "inputs": [
            {
              "internalType": "uint256",
              "name": "raffleId",
              "type": "uint256"
            },
            {
              "internalType": "address",
              "name": "user",
              "type": "address"
            }
          ],
          "name": "getUserSelectedNumbers",
          "outputs": [
            {
              "internalType": "uint256[]",
              "name": "",
              "type": "uint256[]"
            }
          ],
          "stateMutability": "view",
          "type": "function"
        },
        {
          "inputs": [
            {
              "internalType": "uint256",
              "name": "raffleId",
              "type": "uint256"
            },
            {
              "internalType": "address",
              "name": "user",
              "type": "address"
            }
          ],
          "name": "getUserWinningNumbers",
          "outputs": [
            {
              "internalType": "uint256[]",
              "name": "",
              "type": "uint256[]"
            }
          ],
          "stateMutability": "view",
          "type": "function"
        },
        {
          "inputs": [
            {
              "internalType": "uint256",
              "name": "raffleId",
              "type": "uint256"
            }
          ],
          "name": "getWinnersWithNumbers",
          "outputs": [
            {
              "components": [
                {
                  "internalType": "address",
                  "name": "winnerAddress",
                  "type": "address"
                },
                {
                  "internalType": "uint256[]",
                  "name": "winningNumbers",
                  "type": "uint256[]"
                },
                {
                  "internalType": "uint256",
                  "name": "amountWon",
                  "type": "uint256"
                }
              ],
              "internalType": "struct RaffleUp.WinnerInfo[]",
              "name": "",
              "type": "tuple[]"
            }
          ],
          "stateMutability": "view",
          "type": "function"
        },
        {
          "inputs": [
            {
              "internalType": "uint256",
              "name": "raffleId",
              "type": "uint256"
            }
          ],
          "name": "getWinningNumbers",
          "outputs": [
            {
              "internalType": "uint256[]",
              "name": "",
              "type": "uint256[]"
            }
          ],
          "stateMutability": "view",
          "type": "function"
        },
        {
          "inputs": [
            {
              "internalType": "uint256",
              "name": "raffleId",
              "type": "uint256"
            },
            {
              "internalType": "uint256",
              "name": "number",
              "type": "uint256"
            }
          ],
          "name": "isNumberAvailable",
          "outputs": [
            {
              "internalType": "bool",
              "name": "",
              "type": "bool"
            }
          ],
          "stateMutability": "view",
          "type": "function"
        },
        {
          "inputs": [
            {
              "internalType": "uint256",
              "name": "raffleId",
              "type": "uint256"
            },
            {
              "internalType": "uint256[]",
              "name": "numbers",
              "type": "uint256[]"
            }
          ],
          "name": "joinRaffle",
          "outputs": [],
          "stateMutability": "nonpayable",
          "type": "function"
        },
        {
          "inputs": [
            {
              "internalType": "uint256",
              "name": "",
              "type": "uint256"
            },
            {
              "internalType": "uint256",
              "name": "",
              "type": "uint256"
            }
          ],
          "name": "numberOwner",
          "outputs": [
            {
              "internalType": "address",
              "name": "",
              "type": "address"
            }
          ],
          "stateMutability": "view",
          "type": "function"
        },
        {
          "inputs": [
            {
              "internalType": "uint256",
              "name": "",
              "type": "uint256"
            },
            {
              "internalType": "uint256",
              "name": "",
              "type": "uint256"
            }
          ],
          "name": "numberTaken",
          "outputs": [
            {
              "internalType": "bool",
              "name": "",
              "type": "bool"
            }
          ],
          "stateMutability": "view",
          "type": "function"
        },
        {
          "inputs": [],
          "name": "owner",
          "outputs": [
            {
              "internalType": "address",
              "name": "",
              "type": "address"
            }
          ],
          "stateMutability": "view",
          "type": "function"
        },
        {
          "inputs": [],
          "name": "pauseContract",
          "outputs": [],
          "stateMutability": "nonpayable",
          "type": "function"
        },
        {
          "inputs": [
            {
              "internalType": "uint256",
              "name": "raffleId",
              "type": "uint256"
            }
          ],
          "name": "pauseRaffle",
          "outputs": [],
          "stateMutability": "nonpayable",
          "type": "function"
        },
        {
          "inputs": [],
          "name": "paused",
          "outputs": [
            {
              "internalType": "bool",
              "name": "",
              "type": "bool"
            }
          ],
          "stateMutability": "view",
          "type": "function"
        },
        {
          "inputs": [
            {
              "internalType": "uint256",
              "name": "",
              "type": "uint256"
            },
            {
              "internalType": "uint256",
              "name": "",
              "type": "uint256"
            }
          ],
          "name": "purchasedNumbers",
          "outputs": [
            {
              "internalType": "uint256",
              "name": "",
              "type": "uint256"
            }
          ],
          "stateMutability": "view",
          "type": "function"
        },
        {
          "inputs": [],
          "name": "raffleCount",
          "outputs": [
            {
              "internalType": "uint256",
              "name": "",
              "type": "uint256"
            }
          ],
          "stateMutability": "view",
          "type": "function"
        },
        {
          "inputs": [
            {
              "internalType": "uint256",
              "name": "",
              "type": "uint256"
            }
          ],
          "name": "raffles",
          "outputs": [
            {
              "internalType": "uint256",
              "name": "id",
              "type": "uint256"
            },
            {
              "internalType": "uint256",
              "name": "startNumber",
              "type": "uint256"
            },
            {
              "internalType": "uint256",
              "name": "endNumber",
              "type": "uint256"
            },
            {
              "internalType": "uint256",
              "name": "endTime",
              "type": "uint256"
            },
            {
              "internalType": "uint256",
              "name": "entryPrice",
              "type": "uint256"
            },
            {
              "internalType": "uint256",
              "name": "totalCollected",
              "type": "uint256"
            },
            {
              "internalType": "uint256",
              "name": "totalEntries",
              "type": "uint256"
            },
            {
              "internalType": "bool",
              "name": "closed",
              "type": "bool"
            },
            {
              "internalType": "bool",
              "name": "paused",
              "type": "bool"
            }
          ],
          "stateMutability": "view",
          "type": "function"
        },
        {
          "inputs": [
            {
              "internalType": "uint256",
              "name": "raffleId",
              "type": "uint256"
            }
          ],
          "name": "refundRaffle",
          "outputs": [],
          "stateMutability": "nonpayable",
          "type": "function"
        },
        {
          "inputs": [],
          "name": "renounceOwnership",
          "outputs": [],
          "stateMutability": "nonpayable",
          "type": "function"
        },
        {
          "inputs": [
            {
              "internalType": "address",
              "name": "_agent",
              "type": "address"
            }
          ],
          "name": "setAgent",
          "outputs": [],
          "stateMutability": "nonpayable",
          "type": "function"
        },
        {
          "inputs": [
            {
              "internalType": "address",
              "name": "newOwner",
              "type": "address"
            }
          ],
          "name": "transferOwnership",
          "outputs": [],
          "stateMutability": "nonpayable",
          "type": "function"
        },
        {
          "inputs": [],
          "name": "unpauseContract",
          "outputs": [],
          "stateMutability": "nonpayable",
          "type": "function"
        },
        {
          "inputs": [
            {
              "internalType": "uint256",
              "name": "raffleId",
              "type": "uint256"
            }
          ],
          "name": "unpauseRaffle",
          "outputs": [],
          "stateMutability": "nonpayable",
          "type": "function"
        },
        {
          "inputs": [
            {
              "internalType": "uint256",
              "name": "",
              "type": "uint256"
            },
            {
              "internalType": "address",
              "name": "",
              "type": "address"
            },
            {
              "internalType": "uint256",
              "name": "",
              "type": "uint256"
            }
          ],
          "name": "userSelectedNumbers",
          "outputs": [
            {
              "internalType": "uint256",
              "name": "",
              "type": "uint256"
            }
          ],
          "stateMutability": "view",
          "type": "function"
        },
        {
          "inputs": [
            {
              "internalType": "address",
              "name": "to",
              "type": "address"
            }
          ],
          "name": "withdrawPlatformFees",
          "outputs": [],
          "stateMutability": "nonpayable",
          "type": "function"
        }
      ],
      "evm": {
        "bytecode": {
          "linkReferences": {},
          "object": "60a03461019e57601f61210d38819003918201601f19168301916001600160401b038311848410176101a357808492604094855283398101031261019e57610052602061004b836101b9565b92016101b9565b9033156101885760008054336001600160a01b0319821681178355604051939290916001600160a01b0316907f8be0079c531659141344cd1fd0a4f28419497f9722a3daafe3b4186f6b6457e09080a3600180556001600160a01b031690811561015757506001600160a01b038216156101225760805260028054610100600160a81b03191660089290921b610100600160a81b0316919091179055604051611f3f90816101ce82396080518181816102f401528181610533015281816109830152818161173c015261193c0152f35b60405162461bcd60e51b815260206004820152600d60248201526c1a5b9d985b1a59081859d95b9d609a1b6044820152606490fd5b62461bcd60e51b815260206004820152600c60248201526b1a5b9d985b1a590818d554d160a21b6044820152606490fd5b631e4fbdf760e01b600052600060045260246000fd5b600080fd5b634e487b7160e01b600052604160045260246000fd5b51906001600160a01b038216820361019e5756fe608080604052600436101561001357600080fd5b60003560e01c9081631952eb811461196b575080631fccf6721461192657806320226ece146118f6578063234d00011461142a57806324e30327146113f257806339510c851461128f578063439766ce146112355780634823b026146111f2578063539cd3e514611191578063587f5ed7146111735780635c975abb146111505780635caaad77146110fa5780635d4bc0ce1461106e5780635eaee86d146110095780636c473b1e14610fc95780636ef5addb14610f9d578063715018a614610f445780638da5cb5b14610f1b5780639d5c35ae14610eec578063a21701ba14610cc9578063a525ad3c14610cad578063a54c120c14610c8f578063aa1200c21461089b578063ac7908af14610853578063ad71101414610818578063b33712c5146107af578063bcf685ed146106e7578063ea0a61c41461044e578063ec3889b514610279578063f2fde38b146101f0578063f5ff5c76146101c35763fcf3f5e01461017f57600080fd5b346101be5760403660031901126101be576101ba6101a661019e6119b3565b600435611d87565b604051918291602083526020830190611a4a565b0390f35b600080fd5b346101be5760003660031901126101be5760025460405160089190911c6001600160a01b03168152602090f35b346101be5760203660031901126101be576102096119c9565b610211611ee0565b6001600160a01b0316801561026357600080546001600160a01b03198116831782556001600160a01b0316907f8be0079c531659141344cd1fd0a4f28419497f9722a3daafe3b4186f6b6457e09080a3005b631e4fbdf760e01b600052600060045260246000fd5b346101be5760203660031901126101be576102926119c9565b61029a611ee0565b6102a2611ea1565b6001600160a01b038116156104175760045480156103e8576000600490815560405163a9059cbb60e01b81526001600160a01b03841691810191909152602481018290526020818060448101038160007f00000000000000000000000000000000000000000000000000000000000000006001600160a01b03165af19081156103dc576000916103ad575b501561037657604080516001600160a01b0393909316835260208301919091527ffc7ad544ff6a06d6499925723d25b6fe70457a42939995b1d3d6f560fe33633391a160018055005b60405162461bcd60e51b815260206004820152600f60248201526e1dda5d1a191c985dcb59985a5b1959608a1b6044820152606490fd5b6103cf915060203d6020116103d5575b6103c78183611a9a565b810190611ce4565b8361032d565b503d6103bd565b6040513d6000823e3d90fd5b60405162461bcd60e51b81526020600482015260076024820152666e6f206665657360c81b6044820152606490fd5b60405162461bcd60e51b815260206004820152600f60248201526e696e76616c6964206164647265737360881b6044820152606490fd5b346101be5760203660031901126101be5760043561047a60018060a01b0360025460081c163314611b86565b610482611ea1565b61048a611ec3565b806000526005602052604060002090600782016104ab60ff82541615611bc5565b6104bb6003840154421015611bfa565b60016006840154036106a257600082815260086020526040812080541561068e578152602090819020546000848152600683526040808220838352845280822054600497880154915163a9059cbb60e01b81526001600160a01b039091169781019790975260248701529490918180604481010381887f00000000000000000000000000000000000000000000000000000000000000006001600160a01b03165af1908115610683578591610664575b501561062f57828452600660205260408420818552602052604084206bffffffffffffffffffffffff60a01b81541690558284526007602052604084209084526020526040832060ff19815416905581835260086020526040832080549084815581610611575b847f4f5be5093383310c2ec5a4cada25a72670734885840f655f42cde6ceb2ccb22860208686600160ff19825416179055604051908152a16001805580f35b845260208420908101905b818110156105d25784815560010161061c565b60405162461bcd60e51b815260206004820152600d60248201526c1c99599d5b990b59985a5b1959609a1b6044820152606490fd5b61067d915060203d6020116103d5576103c78183611a9a565b8561056b565b6040513d87823e3d90fd5b634e487b7160e01b82526032600452602482fd5b60405162461bcd60e51b815260206004820152601860248201527f726566756e64206f6e6c79207768656e203120656e74727900000000000000006044820152606490fd5b346101be5760203660031901126101be576107006119c9565b610708611ee0565b6001600160a01b03811690811561077a577fb21f1bf0d206b43eb02be4f423c2788a95affbda226125eaecabe3def8ba5c4260406002549381519060018060a01b038660081c1682526020820152a1610100600160a81b031990911660089190911b610100600160a81b031617600255005b60405162461bcd60e51b815260206004820152600d60248201526c1a5b9d985b1a59081859d95b9d609a1b6044820152606490fd5b346101be5760003660031901126101be576107c8611ee0565b60025460ff8116156108075760ff19166002557f5db9ee0a495bf2e6ff9c91a7834c1ba4fdd244a5e8aa4e537bd38aeae4b073aa6020604051338152a1005b638dfc202b60e01b60005260046000fd5b346101be576108263661199d565b906000526006602052604060002090600052602052602060018060a01b0360406000205416604051908152f35b346101be5760403660031901126101be5761086c6119b3565b600435600052600960205260406000209060018060a01b03166000526020526101ba6101a66040600020611cfc565b346101be5760403660031901126101be5760043560243567ffffffffffffffff81116101be57366023820112156101be57806004013567ffffffffffffffff81116101be573660248260051b840101116101be576108f7611ea1565b6108ff611ec3565b8015610c5d57826000526005602052604060002091825415610c2c5760ff600784015461092e82821615611bc5565b60081c16610bfe576003830154421015610bd15760048301549382850294808604841490151715610bbb576040516323b872dd60e01b81523360048201523060248201526044810186905260208160648160007f00000000000000000000000000000000000000000000000000000000000000006001600160a01b03165af19081156103dc57600091610b9c575b5015610b655760018401949293339360005b86811015610b3b5760009060248160051b87010135895481101580610b2d575b15610af95785835260076020526040832081845260205260ff604084205416610acc57606081610ab37f373a96a13bf6138b98bb34a767ecebde6ed77916085685c78effb698238b12fa936040878b6001995260076020528181208382526020528181208960ff198254161790558b81526006602052818120838252602052818120336bffffffffffffffffffffffff60a01b8254161790558b81526008602052610a9b83838320611caf565b8b815260096020528d82822090825260205220611caf565b604051908882526020820152336040820152a1016109ce565b60405162461bcd60e51b81526020600482015260056024820152643a30b5b2b760d91b6044820152606490fd5b60405162461bcd60e51b815260206004820152600c60248201526b6f75742d6f662d72616e676560a01b6044820152606490fd5b5060028501548111156109ee565b50610b5d60058388610b5260068301918254611c3c565b905501918254611c3c565b905560018055005b60405162461bcd60e51b815260206004820152600f60248201526e1d1c985b9cd9995c8b59985a5b1959608a1b6044820152606490fd5b610bb5915060203d6020116103d5576103c78183611a9a565b866109bc565b634e487b7160e01b600052601160045260246000fd5b60405162461bcd60e51b8152602060048201526005602482015264195b99195960da1b6044820152606490fd5b60405162461bcd60e51b81526020600482015260066024820152651c185d5cd95960d21b6044820152606490fd5b60405162461bcd60e51b81526020600482015260096024820152681b9bdd0b595e1a5cdd60ba1b6044820152606490fd5b60405162461bcd60e51b815260206004820152600a6024820152696e6f206e756d6265727360b01b6044820152606490fd5b346101be5760003660031901126101be576020600354604051908152f35b346101be5760003660031901126101be57602060405160648152f35b346101be5760203660031901126101be5760043560005260056020526040600020610cfa60ff600783015416611d47565b610d0660098201611cfc565b6005610d1460088401611abc565b920154606481029080820460641481151715610bbb57612710610d38920490611c49565b82518015610ee357610d4991611c32565b8251610d5481611c56565b90610d626040519283611a9a565b808252610d71601f1991611c56565b0160005b818110610eb1575060409460209460009490925090845b8151861015610e2f578751610da18982611a9a565b600181526020810188368237610db78887611b12565b51906000835115610e1b575052600191610e13916001600160a01b03610ddd8a87611b12565b5116908b5191610dec83611a7e565b82526020820152858b820152610e028289611b12565b52610e0d8188611b12565b50611ca0565b950194610d8c565b634e487b7160e01b81526032600452602490fd5b878581519060208201602083528151809152838301906020858260051b8601019301916000905b828210610e635785850386f35b90919293602080600192603f19898203018552875190848060a01b0382511681528a80610e9d858501516060878601526060850190611a4a565b930151910152960192019201909291610e56565b602090604095949551610ec381611a7e565b600081526060838201526000604082015282828601015201939293610d75565b50506000610d49565b346101be5760203660031901126101be5760043560005260056020526101ba6101a66009604060002001611cfc565b346101be5760003660031901126101be576000546040516001600160a01b039091168152602090f35b346101be5760003660031901126101be57610f5d611ee0565b600080546001600160a01b0319811682556001600160a01b03167f8be0079c531659141344cd1fd0a4f28419497f9722a3daafe3b4186f6b6457e08280a3005b346101be5760203660031901126101be5760043560005260086020526101ba6101a66040600020611cfc565b346101be57610fd73661199d565b906000526008602052604060002080548210156101be57602091610ffa91611a1c565b90549060031b1c604051908152f35b346101be5760203660031901126101be577f59ae418981ae00500624dca49fa8395d59a12e54cc5af94604258b6402cfb0046020600435611048611ee0565b8060005260058252600760406000200161010061ff0019825416179055604051908152a1005b346101be5760203660031901126101be576004356000526005602052610120604060002060ff815491600181015490600281015460038201546004830154906005840154926007600686015495015495604051988952602089015260408801526060870152608086015260a085015260c0840152818116151560e084015260081c161515610100820152f35b346101be5760603660031901126101be576111136119b3565b60443590600435600052600960205260406000209060018060a01b0316600052602052604060002080548210156101be57602091610ffa91611a1c565b346101be5760003660031901126101be57602060ff600254166040519015158152f35b346101be5760003660031901126101be576020600454604051908152f35b346101be5760203660031901126101be577f88d20d5ea9eaba2406719d2e3e97a5ba16fb0748f87067b5d315ffa7ed7a010160206004356111d0611ee0565b8060005260058252600760406000200161ff00198154169055604051908152a1005b346101be5760203660031901126101be5760043560005260056020526101ba6112216008604060002001611abc565b6040519182916020835260208301906119df565b346101be5760003660031901126101be5761124e611ee0565b611256611ec3565b600160ff1960025416176002557f62e78cea01bee320cd4e420270b5ea74000d11b0c9f74754ebdbfc544b05a2586020604051338152a1005b346101be5760803660031901126101be576004356024356064356044356112b4611ee0565b6112bc611ec3565b8383106113bd5742821115611387578015611356576020937ffcc13aaaf4660281e2662ae91069e5f95cc7863d25a6a68e620806a99354fa1a928260a0936004611307600354611ca0565b806003558060005260058a5260406000209081558560018201558860028201558460038201550155600354956040519387855288850152604084015260608301526080820152a1604051908152f35b60405162461bcd60e51b815260206004820152600960248201526807072696365203e20360bc1b6044820152606490fd5b60405162461bcd60e51b815260206004820152600e60248201526d6d7573742062652066757475726560901b6044820152606490fd5b60405162461bcd60e51b815260206004820152600d60248201526c696e76616c69642072616e676560981b6044820152606490fd5b346101be576114003661199d565b906000526007602052604060002090600052602052602060ff604060002054166040519015158152f35b346101be5760203660031901126101be5761145360018060a01b0360025460081c163314611b86565b61145b611ea1565b611463611ec3565b6004356000526005602052604060002061148460ff60078301541615611bc5565b6114946003820154421015611bfa565b600681015490600182146118a5576002821061186e57600a8204918215611865575b60043560005260086020526040600020908154036118305760058201805490606482029180830460641490151715610bbb576127106115069204906114fd82600454611c3c565b60045554611c49565b916115118484611c32565b9161151b85611c56565b946115296040519687611a9a565b808652601f1961153882611c56565b0136602088013761154881611c6e565b93825461155481611c56565b906115626040519283611a9a565b808252611571601f1991611c56565b01366020830137600093845b8481106115f8577f2e06104a98358bba565e1f150ad940870a6bfc130c4012abc2aebfdfaa2f8cf36115db8b8b6115e98c8c6007600160ff1982840154161791015560405194859460043586526080602087015260808601906119df565b908482036040860152611a4a565b9060608301520390a160018055005b60405160208101904282524460408201523360601b606082015287607482015260043560948201526094815261162f60b482611a9a565b519020825490811561181a57066116468185611b12565b5161180f5780600161165b6116629387611b12565b5283611a1c565b90549060031b1c600435600052600660205260406000208160005260205260018060a01b0360406000205416908b82156117fc576116a1848492611b12565b52806116ad848c611b12565b52600889015490600160401b8210156117e6576117369261170588926116e08560088f6001602099018282015501611a1c565b81546001600160a01b0360039290921b91821b19169085901b17905560098d01611caf565b60405163a9059cbb60e01b81526001600160a01b039091166004820152602481019190915291829081906044820190565b038160007f00000000000000000000000000000000000000000000000000000000000000006001600160a01b03165af19081156103dc576000916117c8575b50156117965761178761178d91611ca0565b95611ca0565b935b939461157d565b60405162461bcd60e51b815260206004820152600a6024820152691c185e4b59985a5b195960b21b6044820152606490fd5b6117e0915060203d81116103d5576103c78183611a9a565b8b611775565b634e487b7160e01b600052604160045260246000fd5b5050509461180990611ca0565b9361178f565b509461180990611ca0565b634e487b7160e01b600052601260045260246000fd5b60405162461bcd60e51b815260206004820152600d60248201526c0e0deded840dad2e6dac2e8c6d609b1b6044820152606490fd5b600192506114b6565b60405162461bcd60e51b815260206004820152600f60248201526e6e6f207061727469636970616e747360881b6044820152606490fd5b60405162461bcd60e51b815260206004820152602360248201527f75736520726566756e64526166666c65282920666f72203120656e747279206f6044820152626e6c7960e81b6064820152608490fd5b346101be5760403660031901126101be57602061191c6119146119b3565b600435611b26565b6040519015158152f35b346101be5760003660031901126101be576040517f00000000000000000000000000000000000000000000000000000000000000006001600160a01b03168152602090f35b346101be5760209061197c3661199d565b9060005260078352604060002090600052825260ff60406000205416158152f35b60409060031901126101be576004359060243590565b602435906001600160a01b03821682036101be57565b600435906001600160a01b03821682036101be57565b906020808351928381520192019060005b8181106119fd5750505090565b82516001600160a01b03168452602093840193909201916001016119f0565b8054821015611a345760005260206000200190600090565b634e487b7160e01b600052603260045260246000fd5b906020808351928381520192019060005b818110611a685750505090565b8251845260209384019390920191600101611a5b565b6060810190811067ffffffffffffffff8211176117e657604052565b90601f8019910116810190811067ffffffffffffffff8211176117e657604052565b906040519182815491828252602082019060005260206000209260005b818110611af0575050611aee92500383611a9a565b565b84546001600160a01b0316835260019485019487945060209093019201611ad9565b8051821015611a345760209160051b010190565b6000526005602052611b3e6008604060002001611abc565b9060005b8251811015611b7e576001600160a01b03611b5d8285611b12565b51166001600160a01b03831614611b7657600101611b42565b505050600190565b505050600090565b15611b8d57565b60405162461bcd60e51b815260206004820152601060248201526f18d85b1b195c8b5b9bdd0b5859d95b9d60821b6044820152606490fd5b15611bcc57565b60405162461bcd60e51b815260206004820152600660248201526518db1bdcd95960d21b6044820152606490fd5b15611c0157565b60405162461bcd60e51b81526020600482015260096024820152681b9bdd0b595b99195960ba1b6044820152606490fd5b811561181a570490565b91908201809211610bbb57565b91908203918211610bbb57565b67ffffffffffffffff81116117e65760051b60200190565b90611c7882611c56565b611c856040519182611a9a565b8281528092611c96601f1991611c56565b0190602036910137565b6000198114610bbb5760010190565b8054600160401b8110156117e657611ccc91600182018155611a1c565b819291549060031b91821b91600019901b1916179055565b908160209103126101be575180151581036101be5790565b906040519182815491828252602082019060005260206000209260005b818110611d2e575050611aee92500383611a9a565b8454835260019485019487945060209093019201611d19565b15611d4e57565b60405162461bcd60e51b81526020600482015260116024820152701c9859999b19481b9bdd0818db1bdcd959607a1b6044820152606490fd5b60005260056020526040600020611da460ff600783015416611d47565b600881018054916000805b848110611e5e57508015611e3f57611dc690611c6e565b9360009260005b858110611ddd5750505050505090565b611de78183611a1c565b905460039190911b1c6001600160a01b0390811690841614611e0c575b600101611dcd565b93611e37600191611e208760098801611a1c565b90549060031b1c611e31828b611b12565b52611ca0565b949050611e04565b5050505050604051611e52602082611a9a565b60008152600036813790565b611e688185611a1c565b905460039190911b1c6001600160a01b0390811690871614611e8d575b600101611daf565b90611e99600191611ca0565b919050611e85565b600260015414611eb2576002600155565b633ee5aeb560e01b60005260046000fd5b60ff60025416611ecf57565b63d93c066560e01b60005260046000fd5b6000546001600160a01b03163303611ef457565b63118cdaa760e01b6000523360045260246000fdfea26469706673582212204da4ddb4bc9734fa0f4ce2fbc0b7f9e4c2ca00e36452eba8a5e5d4456386097564736f6c634300081c0033",
          "opcodes": "PUSH1 0xA0 CALLVALUE PUSH2 0x19E JUMPI PUSH1 0x1F PUSH2 0x210D CODESIZE DUP2 SWAP1 SUB SWAP2 DUP3 ADD PUSH1 0x1F NOT AND DUP4 ADD SWAP2 PUSH1 0x1 PUSH1 0x1 PUSH1 0x40 SHL SUB DUP4 GT DUP5 DUP5 LT OR PUSH2 0x1A3 JUMPI DUP1 DUP5 SWAP3 PUSH1 0x40 SWAP5 DUP6 MSTORE DUP4 CODECOPY DUP2 ADD SUB SLT PUSH2 0x19E JUMPI PUSH2 0x52 PUSH1 0x20 PUSH2 0x4B DUP4 PUSH2 0x1B9 JUMP JUMPDEST SWAP3 ADD PUSH2 0x1B9 JUMP JUMPDEST SWAP1 CALLER ISZERO PUSH2 0x188 JUMPI PUSH1 0x0 DUP1 SLOAD CALLER PUSH1 0x1 PUSH1 0x1 PUSH1 0xA0 SHL SUB NOT DUP3 AND DUP2 OR DUP4 SSTORE PUSH1 0x40 MLOAD SWAP4 SWAP3 SWAP1 SWAP2 PUSH1 0x1 PUSH1 0x1 PUSH1 0xA0 SHL SUB AND SWAP1 PUSH32 0x8BE0079C531659141344CD1FD0A4F28419497F9722A3DAAFE3B4186F6B6457E0 SWAP1 DUP1 LOG3 PUSH1 0x1 DUP1 SSTORE PUSH1 0x1 PUSH1 0x1 PUSH1 0xA0 SHL SUB AND SWAP1 DUP2 ISZERO PUSH2 0x157 JUMPI POP PUSH1 0x1 PUSH1 0x1 PUSH1 0xA0 SHL SUB DUP3 AND ISZERO PUSH2 0x122 JUMPI PUSH1 0x80 MSTORE PUSH1 0x2 DUP1 SLOAD PUSH2 0x100 PUSH1 0x1 PUSH1 0xA8 SHL SUB NOT AND PUSH1 0x8 SWAP3 SWAP1 SWAP3 SHL PUSH2 0x100 PUSH1 0x1 PUSH1 0xA8 SHL SUB AND SWAP2 SWAP1 SWAP2 OR SWAP1 SSTORE PUSH1 0x40 MLOAD PUSH2 0x1F3F SWAP1 DUP2 PUSH2 0x1CE DUP3 CODECOPY PUSH1 0x80 MLOAD DUP2 DUP2 DUP2 PUSH2 0x2F4 ADD MSTORE DUP2 DUP2 PUSH2 0x533 ADD MSTORE DUP2 DUP2 PUSH2 0x983 ADD MSTORE DUP2 DUP2 PUSH2 0x173C ADD MSTORE PUSH2 0x193C ADD MSTORE RETURN JUMPDEST PUSH1 0x40 MLOAD PUSH3 0x461BCD PUSH1 0xE5 SHL DUP2 MSTORE PUSH1 0x20 PUSH1 0x4 DUP3 ADD MSTORE PUSH1 0xD PUSH1 0x24 DUP3 ADD MSTORE PUSH13 0x1A5B9D985B1A59081859D95B9D PUSH1 0x9A SHL PUSH1 0x44 DUP3 ADD MSTORE PUSH1 0x64 SWAP1 REVERT JUMPDEST PUSH3 0x461BCD PUSH1 0xE5 SHL DUP2 MSTORE PUSH1 0x20 PUSH1 0x4 DUP3 ADD MSTORE PUSH1 0xC PUSH1 0x24 DUP3 ADD MSTORE PUSH12 0x1A5B9D985B1A590818D554D1 PUSH1 0xA2 SHL PUSH1 0x44 DUP3 ADD MSTORE PUSH1 0x64 SWAP1 REVERT JUMPDEST PUSH4 0x1E4FBDF7 PUSH1 0xE0 SHL PUSH1 0x0 MSTORE PUSH1 0x0 PUSH1 0x4 MSTORE PUSH1 0x24 PUSH1 0x0 REVERT JUMPDEST PUSH1 0x0 DUP1 REVERT JUMPDEST PUSH4 0x4E487B71 PUSH1 0xE0 SHL PUSH1 0x0 MSTORE PUSH1 0x41 PUSH1 0x4 MSTORE PUSH1 0x24 PUSH1 0x0 REVERT JUMPDEST MLOAD SWAP1 PUSH1 0x1 PUSH1 0x1 PUSH1 0xA0 SHL SUB DUP3 AND DUP3 SUB PUSH2 0x19E JUMPI JUMP INVALID PUSH1 0x80 DUP1 PUSH1 0x40 MSTORE PUSH1 0x4 CALLDATASIZE LT ISZERO PUSH2 0x13 JUMPI PUSH1 0x0 DUP1 REVERT JUMPDEST PUSH1 0x0 CALLDATALOAD PUSH1 0xE0 SHR SWAP1 DUP2 PUSH4 0x1952EB81 EQ PUSH2 0x196B JUMPI POP DUP1 PUSH4 0x1FCCF672 EQ PUSH2 0x1926 JUMPI DUP1 PUSH4 0x20226ECE EQ PUSH2 0x18F6 JUMPI DUP1 PUSH4 0x234D0001 EQ PUSH2 0x142A JUMPI DUP1 PUSH4 0x24E30327 EQ PUSH2 0x13F2 JUMPI DUP1 PUSH4 0x39510C85 EQ PUSH2 0x128F JUMPI DUP1 PUSH4 0x439766CE EQ PUSH2 0x1235 JUMPI DUP1 PUSH4 0x4823B026 EQ PUSH2 0x11F2 JUMPI DUP1 PUSH4 0x539CD3E5 EQ PUSH2 0x1191 JUMPI DUP1 PUSH4 0x587F5ED7 EQ PUSH2 0x1173 JUMPI DUP1 PUSH4 0x5C975ABB EQ PUSH2 0x1150 JUMPI DUP1 PUSH4 0x5CAAAD77 EQ PUSH2 0x10FA JUMPI DUP1 PUSH4 0x5D4BC0CE EQ PUSH2 0x106E JUMPI DUP1 PUSH4 0x5EAEE86D EQ PUSH2 0x1009 JUMPI DUP1 PUSH4 0x6C473B1E EQ PUSH2 0xFC9 JUMPI DUP1 PUSH4 0x6EF5ADDB EQ PUSH2 0xF9D JUMPI DUP1 PUSH4 0x715018A6 EQ PUSH2 0xF44 JUMPI DUP1 PUSH4 0x8DA5CB5B EQ PUSH2 0xF1B JUMPI DUP1 PUSH4 0x9D5C35AE EQ PUSH2 0xEEC JUMPI DUP1 PUSH4 0xA21701BA EQ PUSH2 0xCC9 JUMPI DUP1 PUSH4 0xA525AD3C EQ PUSH2 0xCAD JUMPI DUP1 PUSH4 0xA54C120C EQ PUSH2 0xC8F JUMPI DUP1 PUSH4 0xAA1200C2 EQ PUSH2 0x89B JUMPI DUP1 PUSH4 0xAC7908AF EQ PUSH2 0x853 JUMPI DUP1 PUSH4 0xAD711014 EQ PUSH2 0x818 JUMPI DUP1 PUSH4 0xB33712C5 EQ PUSH2 0x7AF JUMPI DUP1 PUSH4 0xBCF685ED EQ PUSH2 0x6E7 JUMPI DUP1 PUSH4 0xEA0A61C4 EQ PUSH2 0x44E JUMPI DUP1 PUSH4 0xEC3889B5 EQ PUSH2 0x279 JUMPI DUP1 PUSH4 0xF2FDE38B EQ PUSH2 0x1F0 JUMPI DUP1 PUSH4 0xF5FF5C76 EQ PUSH2 0x1C3 JUMPI PUSH4 0xFCF3F5E0 EQ PUSH2 0x17F JUMPI PUSH1 0x0 DUP1 REVERT JUMPDEST CALLVALUE PUSH2 0x1BE JUMPI PUSH1 0x40 CALLDATASIZE PUSH1 0x3 NOT ADD SLT PUSH2 0x1BE JUMPI PUSH2 0x1BA PUSH2 0x1A6 PUSH2 0x19E PUSH2 0x19B3 JUMP JUMPDEST PUSH1 0x4 CALLDATALOAD PUSH2 0x1D87 JUMP JUMPDEST PUSH1 0x40 MLOAD SWAP2 DUP3 SWAP2 PUSH1 0x20 DUP4 MSTORE PUSH1 0x20 DUP4 ADD SWAP1 PUSH2 0x1A4A JUMP JUMPDEST SUB SWAP1 RETURN JUMPDEST PUSH1 0x0 DUP1 REVERT JUMPDEST CALLVALUE PUSH2 0x1BE JUMPI PUSH1 0x0 CALLDATASIZE PUSH1 0x3 NOT ADD SLT PUSH2 0x1BE JUMPI PUSH1 0x2 SLOAD PUSH1 0x40 MLOAD PUSH1 0x8 SWAP2 SWAP1 SWAP2 SHR PUSH1 0x1 PUSH1 0x1 PUSH1 0xA0 SHL SUB AND DUP2 MSTORE PUSH1 0x20 SWAP1 RETURN JUMPDEST CALLVALUE PUSH2 0x1BE JUMPI PUSH1 0x20 CALLDATASIZE PUSH1 0x3 NOT ADD SLT PUSH2 0x1BE JUMPI PUSH2 0x209 PUSH2 0x19C9 JUMP JUMPDEST PUSH2 0x211 PUSH2 0x1EE0 JUMP JUMPDEST PUSH1 0x1 PUSH1 0x1 PUSH1 0xA0 SHL SUB AND DUP1 ISZERO PUSH2 0x263 JUMPI PUSH1 0x0 DUP1 SLOAD PUSH1 0x1 PUSH1 0x1 PUSH1 0xA0 SHL SUB NOT DUP2 AND DUP4 OR DUP3 SSTORE PUSH1 0x1 PUSH1 0x1 PUSH1 0xA0 SHL SUB AND SWAP1 PUSH32 0x8BE0079C531659141344CD1FD0A4F28419497F9722A3DAAFE3B4186F6B6457E0 SWAP1 DUP1 LOG3 STOP JUMPDEST PUSH4 0x1E4FBDF7 PUSH1 0xE0 SHL PUSH1 0x0 MSTORE PUSH1 0x0 PUSH1 0x4 MSTORE PUSH1 0x24 PUSH1 0x0 REVERT JUMPDEST CALLVALUE PUSH2 0x1BE JUMPI PUSH1 0x20 CALLDATASIZE PUSH1 0x3 NOT ADD SLT PUSH2 0x1BE JUMPI PUSH2 0x292 PUSH2 0x19C9 JUMP JUMPDEST PUSH2 0x29A PUSH2 0x1EE0 JUMP JUMPDEST PUSH2 0x2A2 PUSH2 0x1EA1 JUMP JUMPDEST PUSH1 0x1 PUSH1 0x1 PUSH1 0xA0 SHL SUB DUP2 AND ISZERO PUSH2 0x417 JUMPI PUSH1 0x4 SLOAD DUP1 ISZERO PUSH2 0x3E8 JUMPI PUSH1 0x0 PUSH1 0x4 SWAP1 DUP2 SSTORE PUSH1 0x40 MLOAD PUSH4 0xA9059CBB PUSH1 0xE0 SHL DUP2 MSTORE PUSH1 0x1 PUSH1 0x1 PUSH1 0xA0 SHL SUB DUP5 AND SWAP2 DUP2 ADD SWAP2 SWAP1 SWAP2 MSTORE PUSH1 0x24 DUP2 ADD DUP3 SWAP1 MSTORE PUSH1 0x20 DUP2 DUP1 PUSH1 0x44 DUP2 ADD SUB DUP2 PUSH1 0x0 PUSH32 0x0 PUSH1 0x1 PUSH1 0x1 PUSH1 0xA0 SHL SUB AND GAS CALL SWAP1 DUP2 ISZERO PUSH2 0x3DC JUMPI PUSH1 0x0 SWAP2 PUSH2 0x3AD JUMPI JUMPDEST POP ISZERO PUSH2 0x376 JUMPI PUSH1 0x40 DUP1 MLOAD PUSH1 0x1 PUSH1 0x1 PUSH1 0xA0 SHL SUB SWAP4 SWAP1 SWAP4 AND DUP4 MSTORE PUSH1 0x20 DUP4 ADD SWAP2 SWAP1 SWAP2 MSTORE PUSH32 0xFC7AD544FF6A06D6499925723D25B6FE70457A42939995B1D3D6F560FE336333 SWAP2 LOG1 PUSH1 0x1 DUP1 SSTORE STOP JUMPDEST PUSH1 0x40 MLOAD PUSH3 0x461BCD PUSH1 0xE5 SHL DUP2 MSTORE PUSH1 0x20 PUSH1 0x4 DUP3 ADD MSTORE PUSH1 0xF PUSH1 0x24 DUP3 ADD MSTORE PUSH15 0x1DDA5D1A191C985DCB59985A5B1959 PUSH1 0x8A SHL PUSH1 0x44 DUP3 ADD MSTORE PUSH1 0x64 SWAP1 REVERT JUMPDEST PUSH2 0x3CF SWAP2 POP PUSH1 0x20 RETURNDATASIZE PUSH1 0x20 GT PUSH2 0x3D5 JUMPI JUMPDEST PUSH2 0x3C7 DUP2 DUP4 PUSH2 0x1A9A JUMP JUMPDEST DUP2 ADD SWAP1 PUSH2 0x1CE4 JUMP JUMPDEST DUP4 PUSH2 0x32D JUMP JUMPDEST POP RETURNDATASIZE PUSH2 0x3BD JUMP JUMPDEST PUSH1 0x40 MLOAD RETURNDATASIZE PUSH1 0x0 DUP3 RETURNDATACOPY RETURNDATASIZE SWAP1 REVERT JUMPDEST PUSH1 0x40 MLOAD PUSH3 0x461BCD PUSH1 0xE5 SHL DUP2 MSTORE PUSH1 0x20 PUSH1 0x4 DUP3 ADD MSTORE PUSH1 0x7 PUSH1 0x24 DUP3 ADD MSTORE PUSH7 0x6E6F2066656573 PUSH1 0xC8 SHL PUSH1 0x44 DUP3 ADD MSTORE PUSH1 0x64 SWAP1 REVERT JUMPDEST PUSH1 0x40 MLOAD PUSH3 0x461BCD PUSH1 0xE5 SHL DUP2 MSTORE PUSH1 0x20 PUSH1 0x4 DUP3 ADD MSTORE PUSH1 0xF PUSH1 0x24 DUP3 ADD MSTORE PUSH15 0x696E76616C69642061646472657373 PUSH1 0x88 SHL PUSH1 0x44 DUP3 ADD MSTORE PUSH1 0x64 SWAP1 REVERT JUMPDEST CALLVALUE PUSH2 0x1BE JUMPI PUSH1 0x20 CALLDATASIZE PUSH1 0x3 NOT ADD SLT PUSH2 0x1BE JUMPI PUSH1 0x4 CALLDATALOAD PUSH2 0x47A PUSH1 0x1 DUP1 PUSH1 0xA0 SHL SUB PUSH1 0x2 SLOAD PUSH1 0x8 SHR AND CALLER EQ PUSH2 0x1B86 JUMP JUMPDEST PUSH2 0x482 PUSH2 0x1EA1 JUMP JUMPDEST PUSH2 0x48A PUSH2 0x1EC3 JUMP JUMPDEST DUP1 PUSH1 0x0 MSTORE PUSH1 0x5 PUSH1 0x20 MSTORE PUSH1 0x40 PUSH1 0x0 KECCAK256 SWAP1 PUSH1 0x7 DUP3 ADD PUSH2 0x4AB PUSH1 0xFF DUP3 SLOAD AND ISZERO PUSH2 0x1BC5 JUMP JUMPDEST PUSH2 0x4BB PUSH1 0x3 DUP5 ADD SLOAD TIMESTAMP LT ISZERO PUSH2 0x1BFA JUMP JUMPDEST PUSH1 0x1 PUSH1 0x6 DUP5 ADD SLOAD SUB PUSH2 0x6A2 JUMPI PUSH1 0x0 DUP3 DUP2 MSTORE PUSH1 0x8 PUSH1 0x20 MSTORE PUSH1 0x40 DUP2 KECCAK256 DUP1 SLOAD ISZERO PUSH2 0x68E JUMPI DUP2 MSTORE PUSH1 0x20 SWAP1 DUP2 SWAP1 KECCAK256 SLOAD PUSH1 0x0 DUP5 DUP2 MSTORE PUSH1 0x6 DUP4 MSTORE PUSH1 0x40 DUP1 DUP3 KECCAK256 DUP4 DUP4 MSTORE DUP5 MSTORE DUP1 DUP3 KECCAK256 SLOAD PUSH1 0x4 SWAP8 DUP9 ADD SLOAD SWAP2 MLOAD PUSH4 0xA9059CBB PUSH1 0xE0 SHL DUP2 MSTORE PUSH1 0x1 PUSH1 0x1 PUSH1 0xA0 SHL SUB SWAP1 SWAP2 AND SWAP8 DUP2 ADD SWAP8 SWAP1 SWAP8 MSTORE PUSH1 0x24 DUP8 ADD MSTORE SWAP5 SWAP1 SWAP2 DUP2 DUP1 PUSH1 0x44 DUP2 ADD SUB DUP2 DUP9 PUSH32 0x0 PUSH1 0x1 PUSH1 0x1 PUSH1 0xA0 SHL SUB AND GAS CALL SWAP1 DUP2 ISZERO PUSH2 0x683 JUMPI DUP6 SWAP2 PUSH2 0x664 JUMPI JUMPDEST POP ISZERO PUSH2 0x62F JUMPI DUP3 DUP5 MSTORE PUSH1 0x6 PUSH1 0x20 MSTORE PUSH1 0x40 DUP5 KECCAK256 DUP2 DUP6 MSTORE PUSH1 0x20 MSTORE PUSH1 0x40 DUP5 KECCAK256 PUSH12 0xFFFFFFFFFFFFFFFFFFFFFFFF PUSH1 0xA0 SHL DUP2 SLOAD AND SWAP1 SSTORE DUP3 DUP5 MSTORE PUSH1 0x7 PUSH1 0x20 MSTORE PUSH1 0x40 DUP5 KECCAK256 SWAP1 DUP5 MSTORE PUSH1 0x20 MSTORE PUSH1 0x40 DUP4 KECCAK256 PUSH1 0xFF NOT DUP2 SLOAD AND SWAP1 SSTORE DUP2 DUP4 MSTORE PUSH1 0x8 PUSH1 0x20 MSTORE PUSH1 0x40 DUP4 KECCAK256 DUP1 SLOAD SWAP1 DUP5 DUP2 SSTORE DUP2 PUSH2 0x611 JUMPI JUMPDEST DUP5 PUSH32 0x4F5BE5093383310C2EC5A4CADA25A72670734885840F655F42CDE6CEB2CCB228 PUSH1 0x20 DUP7 DUP7 PUSH1 0x1 PUSH1 0xFF NOT DUP3 SLOAD AND OR SWAP1 SSTORE PUSH1 0x40 MLOAD SWAP1 DUP2 MSTORE LOG1 PUSH1 0x1 DUP1 SSTORE DUP1 RETURN JUMPDEST DUP5 MSTORE PUSH1 0x20 DUP5 KECCAK256 SWAP1 DUP2 ADD SWAP1 JUMPDEST DUP2 DUP2 LT ISZERO PUSH2 0x5D2 JUMPI DUP5 DUP2 SSTORE PUSH1 0x1 ADD PUSH2 0x61C JUMP JUMPDEST PUSH1 0x40 MLOAD PUSH3 0x461BCD PUSH1 0xE5 SHL DUP2 MSTORE PUSH1 0x20 PUSH1 0x4 DUP3 ADD MSTORE PUSH1 0xD PUSH1 0x24 DUP3 ADD MSTORE PUSH13 0x1C99599D5B990B59985A5B1959 PUSH1 0x9A SHL PUSH1 0x44 DUP3 ADD MSTORE PUSH1 0x64 SWAP1 REVERT JUMPDEST PUSH2 0x67D SWAP2 POP PUSH1 0x20 RETURNDATASIZE PUSH1 0x20 GT PUSH2 0x3D5 JUMPI PUSH2 0x3C7 DUP2 DUP4 PUSH2 0x1A9A JUMP JUMPDEST DUP6 PUSH2 0x56B JUMP JUMPDEST PUSH1 0x40 MLOAD RETURNDATASIZE DUP8 DUP3 RETURNDATACOPY RETURNDATASIZE SWAP1 REVERT JUMPDEST PUSH4 0x4E487B71 PUSH1 0xE0 SHL DUP3 MSTORE PUSH1 0x32 PUSH1 0x4 MSTORE PUSH1 0x24 DUP3 REVERT JUMPDEST PUSH1 0x40 MLOAD PUSH3 0x461BCD PUSH1 0xE5 SHL DUP2 MSTORE PUSH1 0x20 PUSH1 0x4 DUP3 ADD MSTORE PUSH1 0x18 PUSH1 0x24 DUP3 ADD MSTORE PUSH32 0x726566756E64206F6E6C79207768656E203120656E7472790000000000000000 PUSH1 0x44 DUP3 ADD MSTORE PUSH1 0x64 SWAP1 REVERT JUMPDEST CALLVALUE PUSH2 0x1BE JUMPI PUSH1 0x20 CALLDATASIZE PUSH1 0x3 NOT ADD SLT PUSH2 0x1BE JUMPI PUSH2 0x700 PUSH2 0x19C9 JUMP JUMPDEST PUSH2 0x708 PUSH2 0x1EE0 JUMP JUMPDEST PUSH1 0x1 PUSH1 0x1 PUSH1 0xA0 SHL SUB DUP2 AND SWAP1 DUP2 ISZERO PUSH2 0x77A JUMPI PUSH32 0xB21F1BF0D206B43EB02BE4F423C2788A95AFFBDA226125EAECABE3DEF8BA5C42 PUSH1 0x40 PUSH1 0x2 SLOAD SWAP4 DUP2 MLOAD SWAP1 PUSH1 0x1 DUP1 PUSH1 0xA0 SHL SUB DUP7 PUSH1 0x8 SHR AND DUP3 MSTORE PUSH1 0x20 DUP3 ADD MSTORE LOG1 PUSH2 0x100 PUSH1 0x1 PUSH1 0xA8 SHL SUB NOT SWAP1 SWAP2 AND PUSH1 0x8 SWAP2 SWAP1 SWAP2 SHL PUSH2 0x100 PUSH1 0x1 PUSH1 0xA8 SHL SUB AND OR PUSH1 0x2 SSTORE STOP JUMPDEST PUSH1 0x40 MLOAD PUSH3 0x461BCD PUSH1 0xE5 SHL DUP2 MSTORE PUSH1 0x20 PUSH1 0x4 DUP3 ADD MSTORE PUSH1 0xD PUSH1 0x24 DUP3 ADD MSTORE PUSH13 0x1A5B9D985B1A59081859D95B9D PUSH1 0x9A SHL PUSH1 0x44 DUP3 ADD MSTORE PUSH1 0x64 SWAP1 REVERT JUMPDEST CALLVALUE PUSH2 0x1BE JUMPI PUSH1 0x0 CALLDATASIZE PUSH1 0x3 NOT ADD SLT PUSH2 0x1BE JUMPI PUSH2 0x7C8 PUSH2 0x1EE0 JUMP JUMPDEST PUSH1 0x2 SLOAD PUSH1 0xFF DUP2 AND ISZERO PUSH2 0x807 JUMPI PUSH1 0xFF NOT AND PUSH1 0x2 SSTORE PUSH32 0x5DB9EE0A495BF2E6FF9C91A7834C1BA4FDD244A5E8AA4E537BD38AEAE4B073AA PUSH1 0x20 PUSH1 0x40 MLOAD CALLER DUP2 MSTORE LOG1 STOP JUMPDEST PUSH4 0x8DFC202B PUSH1 0xE0 SHL PUSH1 0x0 MSTORE PUSH1 0x4 PUSH1 0x0 REVERT JUMPDEST CALLVALUE PUSH2 0x1BE JUMPI PUSH2 0x826 CALLDATASIZE PUSH2 0x199D JUMP JUMPDEST SWAP1 PUSH1 0x0 MSTORE PUSH1 0x6 PUSH1 0x20 MSTORE PUSH1 0x40 PUSH1 0x0 KECCAK256 SWAP1 PUSH1 0x0 MSTORE PUSH1 0x20 MSTORE PUSH1 0x20 PUSH1 0x1 DUP1 PUSH1 0xA0 SHL SUB PUSH1 0x40 PUSH1 0x0 KECCAK256 SLOAD AND PUSH1 0x40 MLOAD SWAP1 DUP2 MSTORE RETURN JUMPDEST CALLVALUE PUSH2 0x1BE JUMPI PUSH1 0x40 CALLDATASIZE PUSH1 0x3 NOT ADD SLT PUSH2 0x1BE JUMPI PUSH2 0x86C PUSH2 0x19B3 JUMP JUMPDEST PUSH1 0x4 CALLDATALOAD PUSH1 0x0 MSTORE PUSH1 0x9 PUSH1 0x20 MSTORE PUSH1 0x40 PUSH1 0x0 KECCAK256 SWAP1 PUSH1 0x1 DUP1 PUSH1 0xA0 SHL SUB AND PUSH1 0x0 MSTORE PUSH1 0x20 MSTORE PUSH2 0x1BA PUSH2 0x1A6 PUSH1 0x40 PUSH1 0x0 KECCAK256 PUSH2 0x1CFC JUMP JUMPDEST CALLVALUE PUSH2 0x1BE JUMPI PUSH1 0x40 CALLDATASIZE PUSH1 0x3 NOT ADD SLT PUSH2 0x1BE JUMPI PUSH1 0x4 CALLDATALOAD PUSH1 0x24 CALLDATALOAD PUSH8 0xFFFFFFFFFFFFFFFF DUP2 GT PUSH2 0x1BE JUMPI CALLDATASIZE PUSH1 0x23 DUP3 ADD SLT ISZERO PUSH2 0x1BE JUMPI DUP1 PUSH1 0x4 ADD CALLDATALOAD PUSH8 0xFFFFFFFFFFFFFFFF DUP2 GT PUSH2 0x1BE JUMPI CALLDATASIZE PUSH1 0x24 DUP3 PUSH1 0x5 SHL DUP5 ADD ADD GT PUSH2 0x1BE JUMPI PUSH2 0x8F7 PUSH2 0x1EA1 JUMP JUMPDEST PUSH2 0x8FF PUSH2 0x1EC3 JUMP JUMPDEST DUP1 ISZERO PUSH2 0xC5D JUMPI DUP3 PUSH1 0x0 MSTORE PUSH1 0x5 PUSH1 0x20 MSTORE PUSH1 0x40 PUSH1 0x0 KECCAK256 SWAP2 DUP3 SLOAD ISZERO PUSH2 0xC2C JUMPI PUSH1 0xFF PUSH1 0x7 DUP5 ADD SLOAD PUSH2 0x92E DUP3 DUP3 AND ISZERO PUSH2 0x1BC5 JUMP JUMPDEST PUSH1 0x8 SHR AND PUSH2 0xBFE JUMPI PUSH1 0x3 DUP4 ADD SLOAD TIMESTAMP LT ISZERO PUSH2 0xBD1 JUMPI PUSH1 0x4 DUP4 ADD SLOAD SWAP4 DUP3 DUP6 MUL SWAP5 DUP1 DUP7 DIV DUP5 EQ SWAP1 ISZERO OR ISZERO PUSH2 0xBBB JUMPI PUSH1 0x40 MLOAD PUSH4 0x23B872DD PUSH1 0xE0 SHL DUP2 MSTORE CALLER PUSH1 0x4 DUP3 ADD MSTORE ADDRESS PUSH1 0x24 DUP3 ADD MSTORE PUSH1 0x44 DUP2 ADD DUP7 SWAP1 MSTORE PUSH1 0x20 DUP2 PUSH1 0x64 DUP2 PUSH1 0x0 PUSH32 0x0 PUSH1 0x1 PUSH1 0x1 PUSH1 0xA0 SHL SUB AND GAS CALL SWAP1 DUP2 ISZERO PUSH2 0x3DC JUMPI PUSH1 0x0 SWAP2 PUSH2 0xB9C JUMPI JUMPDEST POP ISZERO PUSH2 0xB65 JUMPI PUSH1 0x1 DUP5 ADD SWAP5 SWAP3 SWAP4 CALLER SWAP4 PUSH1 0x0 JUMPDEST DUP7 DUP2 LT ISZERO PUSH2 0xB3B JUMPI PUSH1 0x0 SWAP1 PUSH1 0x24 DUP2 PUSH1 0x5 SHL DUP8 ADD ADD CALLDATALOAD DUP10 SLOAD DUP2 LT ISZERO DUP1 PUSH2 0xB2D JUMPI JUMPDEST ISZERO PUSH2 0xAF9 JUMPI DUP6 DUP4 MSTORE PUSH1 0x7 PUSH1 0x20 MSTORE PUSH1 0x40 DUP4 KECCAK256 DUP2 DUP5 MSTORE PUSH1 0x20 MSTORE PUSH1 0xFF PUSH1 0x40 DUP5 KECCAK256 SLOAD AND PUSH2 0xACC JUMPI PUSH1 0x60 DUP2 PUSH2 0xAB3 PUSH32 0x373A96A13BF6138B98BB34A767ECEBDE6ED77916085685C78EFFB698238B12FA SWAP4 PUSH1 0x40 DUP8 DUP12 PUSH1 0x1 SWAP10 MSTORE PUSH1 0x7 PUSH1 0x20 MSTORE DUP2 DUP2 KECCAK256 DUP4 DUP3 MSTORE PUSH1 0x20 MSTORE DUP2 DUP2 KECCAK256 DUP10 PUSH1 0xFF NOT DUP3 SLOAD AND OR SWAP1 SSTORE DUP12 DUP2 MSTORE PUSH1 0x6 PUSH1 0x20 MSTORE DUP2 DUP2 KECCAK256 DUP4 DUP3 MSTORE PUSH1 0x20 MSTORE DUP2 DUP2 KECCAK256 CALLER PUSH12 0xFFFFFFFFFFFFFFFFFFFFFFFF PUSH1 0xA0 SHL DUP3 SLOAD AND OR SWAP1 SSTORE DUP12 DUP2 MSTORE PUSH1 0x8 PUSH1 0x20 MSTORE PUSH2 0xA9B DUP4 DUP4 DUP4 KECCAK256 PUSH2 0x1CAF JUMP JUMPDEST DUP12 DUP2 MSTORE PUSH1 0x9 PUSH1 0x20 MSTORE DUP14 DUP3 DUP3 KECCAK256 SWAP1 DUP3 MSTORE PUSH1 0x20 MSTORE KECCAK256 PUSH2 0x1CAF JUMP JUMPDEST PUSH1 0x40 MLOAD SWAP1 DUP9 DUP3 MSTORE PUSH1 0x20 DUP3 ADD MSTORE CALLER PUSH1 0x40 DUP3 ADD MSTORE LOG1 ADD PUSH2 0x9CE JUMP JUMPDEST PUSH1 0x40 MLOAD PUSH3 0x461BCD PUSH1 0xE5 SHL DUP2 MSTORE PUSH1 0x20 PUSH1 0x4 DUP3 ADD MSTORE PUSH1 0x5 PUSH1 0x24 DUP3 ADD MSTORE PUSH5 0x3A30B5B2B7 PUSH1 0xD9 SHL PUSH1 0x44 DUP3 ADD MSTORE PUSH1 0x64 SWAP1 REVERT JUMPDEST PUSH1 0x40 MLOAD PUSH3 0x461BCD PUSH1 0xE5 SHL DUP2 MSTORE PUSH1 0x20 PUSH1 0x4 DUP3 ADD MSTORE PUSH1 0xC PUSH1 0x24 DUP3 ADD MSTORE PUSH12 0x6F75742D6F662D72616E6765 PUSH1 0xA0 SHL PUSH1 0x44 DUP3 ADD MSTORE PUSH1 0x64 SWAP1 REVERT JUMPDEST POP PUSH1 0x2 DUP6 ADD SLOAD DUP2 GT ISZERO PUSH2 0x9EE JUMP JUMPDEST POP PUSH2 0xB5D PUSH1 0x5 DUP4 DUP9 PUSH2 0xB52 PUSH1 0x6 DUP4 ADD SWAP2 DUP3 SLOAD PUSH2 0x1C3C JUMP JUMPDEST SWAP1 SSTORE ADD SWAP2 DUP3 SLOAD PUSH2 0x1C3C JUMP JUMPDEST SWAP1 SSTORE PUSH1 0x1 DUP1 SSTORE STOP JUMPDEST PUSH1 0x40 MLOAD PUSH3 0x461BCD PUSH1 0xE5 SHL DUP2 MSTORE PUSH1 0x20 PUSH1 0x4 DUP3 ADD MSTORE PUSH1 0xF PUSH1 0x24 DUP3 ADD MSTORE PUSH15 0x1D1C985B9CD9995C8B59985A5B1959 PUSH1 0x8A SHL PUSH1 0x44 DUP3 ADD MSTORE PUSH1 0x64 SWAP1 REVERT JUMPDEST PUSH2 0xBB5 SWAP2 POP PUSH1 0x20 RETURNDATASIZE PUSH1 0x20 GT PUSH2 0x3D5 JUMPI PUSH2 0x3C7 DUP2 DUP4 PUSH2 0x1A9A JUMP JUMPDEST DUP7 PUSH2 0x9BC JUMP JUMPDEST PUSH4 0x4E487B71 PUSH1 0xE0 SHL PUSH1 0x0 MSTORE PUSH1 0x11 PUSH1 0x4 MSTORE PUSH1 0x24 PUSH1 0x0 REVERT JUMPDEST PUSH1 0x40 MLOAD PUSH3 0x461BCD PUSH1 0xE5 SHL DUP2 MSTORE PUSH1 0x20 PUSH1 0x4 DUP3 ADD MSTORE PUSH1 0x5 PUSH1 0x24 DUP3 ADD MSTORE PUSH5 0x195B991959 PUSH1 0xDA SHL PUSH1 0x44 DUP3 ADD MSTORE PUSH1 0x64 SWAP1 REVERT JUMPDEST PUSH1 0x40 MLOAD PUSH3 0x461BCD PUSH1 0xE5 SHL DUP2 MSTORE PUSH1 0x20 PUSH1 0x4 DUP3 ADD MSTORE PUSH1 0x6 PUSH1 0x24 DUP3 ADD MSTORE PUSH6 0x1C185D5CD959 PUSH1 0xD2 SHL PUSH1 0x44 DUP3 ADD MSTORE PUSH1 0x64 SWAP1 REVERT JUMPDEST PUSH1 0x40 MLOAD PUSH3 0x461BCD PUSH1 0xE5 SHL DUP2 MSTORE PUSH1 0x20 PUSH1 0x4 DUP3 ADD MSTORE PUSH1 0x9 PUSH1 0x24 DUP3 ADD MSTORE PUSH9 0x1B9BDD0B595E1A5CDD PUSH1 0xBA SHL PUSH1 0x44 DUP3 ADD MSTORE PUSH1 0x64 SWAP1 REVERT JUMPDEST PUSH1 0x40 MLOAD PUSH3 0x461BCD PUSH1 0xE5 SHL DUP2 MSTORE PUSH1 0x20 PUSH1 0x4 DUP3 ADD MSTORE PUSH1 0xA PUSH1 0x24 DUP3 ADD MSTORE PUSH10 0x6E6F206E756D62657273 PUSH1 0xB0 SHL PUSH1 0x44 DUP3 ADD MSTORE PUSH1 0x64 SWAP1 REVERT JUMPDEST CALLVALUE PUSH2 0x1BE JUMPI PUSH1 0x0 CALLDATASIZE PUSH1 0x3 NOT ADD SLT PUSH2 0x1BE JUMPI PUSH1 0x20 PUSH1 0x3 SLOAD PUSH1 0x40 MLOAD SWAP1 DUP2 MSTORE RETURN JUMPDEST CALLVALUE PUSH2 0x1BE JUMPI PUSH1 0x0 CALLDATASIZE PUSH1 0x3 NOT ADD SLT PUSH2 0x1BE JUMPI PUSH1 0x20 PUSH1 0x40 MLOAD PUSH1 0x64 DUP2 MSTORE RETURN JUMPDEST CALLVALUE PUSH2 0x1BE JUMPI PUSH1 0x20 CALLDATASIZE PUSH1 0x3 NOT ADD SLT PUSH2 0x1BE JUMPI PUSH1 0x4 CALLDATALOAD PUSH1 0x0 MSTORE PUSH1 0x5 PUSH1 0x20 MSTORE PUSH1 0x40 PUSH1 0x0 KECCAK256 PUSH2 0xCFA PUSH1 0xFF PUSH1 0x7 DUP4 ADD SLOAD AND PUSH2 0x1D47 JUMP JUMPDEST PUSH2 0xD06 PUSH1 0x9 DUP3 ADD PUSH2 0x1CFC JUMP JUMPDEST PUSH1 0x5 PUSH2 0xD14 PUSH1 0x8 DUP5 ADD PUSH2 0x1ABC JUMP JUMPDEST SWAP3 ADD SLOAD PUSH1 0x64 DUP2 MUL SWAP1 DUP1 DUP3 DIV PUSH1 0x64 EQ DUP2 ISZERO OR ISZERO PUSH2 0xBBB JUMPI PUSH2 0x2710 PUSH2 0xD38 SWAP3 DIV SWAP1 PUSH2 0x1C49 JUMP JUMPDEST DUP3 MLOAD DUP1 ISZERO PUSH2 0xEE3 JUMPI PUSH2 0xD49 SWAP2 PUSH2 0x1C32 JUMP JUMPDEST DUP3 MLOAD PUSH2 0xD54 DUP2 PUSH2 0x1C56 JUMP JUMPDEST SWAP1 PUSH2 0xD62 PUSH1 0x40 MLOAD SWAP3 DUP4 PUSH2 0x1A9A JUMP JUMPDEST DUP1 DUP3 MSTORE PUSH2 0xD71 PUSH1 0x1F NOT SWAP2 PUSH2 0x1C56 JUMP JUMPDEST ADD PUSH1 0x0 JUMPDEST DUP2 DUP2 LT PUSH2 0xEB1 JUMPI POP PUSH1 0x40 SWAP5 PUSH1 0x20 SWAP5 PUSH1 0x0 SWAP5 SWAP1 SWAP3 POP SWAP1 DUP5 JUMPDEST DUP2 MLOAD DUP7 LT ISZERO PUSH2 0xE2F JUMPI DUP8 MLOAD PUSH2 0xDA1 DUP10 DUP3 PUSH2 0x1A9A JUMP JUMPDEST PUSH1 0x1 DUP2 MSTORE PUSH1 0x20 DUP2 ADD DUP9 CALLDATASIZE DUP3 CALLDATACOPY PUSH2 0xDB7 DUP9 DUP8 PUSH2 0x1B12 JUMP JUMPDEST MLOAD SWAP1 PUSH1 0x0 DUP4 MLOAD ISZERO PUSH2 0xE1B JUMPI POP MSTORE PUSH1 0x1 SWAP2 PUSH2 0xE13 SWAP2 PUSH1 0x1 PUSH1 0x1 PUSH1 0xA0 SHL SUB PUSH2 0xDDD DUP11 DUP8 PUSH2 0x1B12 JUMP JUMPDEST MLOAD AND SWAP1 DUP12 MLOAD SWAP2 PUSH2 0xDEC DUP4 PUSH2 0x1A7E JUMP JUMPDEST DUP3 MSTORE PUSH1 0x20 DUP3 ADD MSTORE DUP6 DUP12 DUP3 ADD MSTORE PUSH2 0xE02 DUP3 DUP10 PUSH2 0x1B12 JUMP JUMPDEST MSTORE PUSH2 0xE0D DUP2 DUP9 PUSH2 0x1B12 JUMP JUMPDEST POP PUSH2 0x1CA0 JUMP JUMPDEST SWAP6 ADD SWAP5 PUSH2 0xD8C JUMP JUMPDEST PUSH4 0x4E487B71 PUSH1 0xE0 SHL DUP2 MSTORE PUSH1 0x32 PUSH1 0x4 MSTORE PUSH1 0x24 SWAP1 REVERT JUMPDEST DUP8 DUP6 DUP2 MLOAD SWAP1 PUSH1 0x20 DUP3 ADD PUSH1 0x20 DUP4 MSTORE DUP2 MLOAD DUP1 SWAP2 MSTORE DUP4 DUP4 ADD SWAP1 PUSH1 0x20 DUP6 DUP3 PUSH1 0x5 SHL DUP7 ADD ADD SWAP4 ADD SWAP2 PUSH1 0x0 SWAP1 JUMPDEST DUP3 DUP3 LT PUSH2 0xE63 JUMPI DUP6 DUP6 SUB DUP7 RETURN JUMPDEST SWAP1 SWAP2 SWAP3 SWAP4 PUSH1 0x20 DUP1 PUSH1 0x1 SWAP3 PUSH1 0x3F NOT DUP10 DUP3 SUB ADD DUP6 MSTORE DUP8 MLOAD SWAP1 DUP5 DUP1 PUSH1 0xA0 SHL SUB DUP3 MLOAD AND DUP2 MSTORE DUP11 DUP1 PUSH2 0xE9D DUP6 DUP6 ADD MLOAD PUSH1 0x60 DUP8 DUP7 ADD MSTORE PUSH1 0x60 DUP6 ADD SWAP1 PUSH2 0x1A4A JUMP JUMPDEST SWAP4 ADD MLOAD SWAP2 ADD MSTORE SWAP7 ADD SWAP3 ADD SWAP3 ADD SWAP1 SWAP3 SWAP2 PUSH2 0xE56 JUMP JUMPDEST PUSH1 0x20 SWAP1 PUSH1 0x40 SWAP6 SWAP5 SWAP6 MLOAD PUSH2 0xEC3 DUP2 PUSH2 0x1A7E JUMP JUMPDEST PUSH1 0x0 DUP2 MSTORE PUSH1 0x60 DUP4 DUP3 ADD MSTORE PUSH1 0x0 PUSH1 0x40 DUP3 ADD MSTORE DUP3 DUP3 DUP7 ADD ADD MSTORE ADD SWAP4 SWAP3 SWAP4 PUSH2 0xD75 JUMP JUMPDEST POP POP PUSH1 0x0 PUSH2 0xD49 JUMP JUMPDEST CALLVALUE PUSH2 0x1BE JUMPI PUSH1 0x20 CALLDATASIZE PUSH1 0x3 NOT ADD SLT PUSH2 0x1BE JUMPI PUSH1 0x4 CALLDATALOAD PUSH1 0x0 MSTORE PUSH1 0x5 PUSH1 0x20 MSTORE PUSH2 0x1BA PUSH2 0x1A6 PUSH1 0x9 PUSH1 0x40 PUSH1 0x0 KECCAK256 ADD PUSH2 0x1CFC JUMP JUMPDEST CALLVALUE PUSH2 0x1BE JUMPI PUSH1 0x0 CALLDATASIZE PUSH1 0x3 NOT ADD SLT PUSH2 0x1BE JUMPI PUSH1 0x0 SLOAD PUSH1 0x40 MLOAD PUSH1 0x1 PUSH1 0x1 PUSH1 0xA0 SHL SUB SWAP1 SWAP2 AND DUP2 MSTORE PUSH1 0x20 SWAP1 RETURN JUMPDEST CALLVALUE PUSH2 0x1BE JUMPI PUSH1 0x0 CALLDATASIZE PUSH1 0x3 NOT ADD SLT PUSH2 0x1BE JUMPI PUSH2 0xF5D PUSH2 0x1EE0 JUMP JUMPDEST PUSH1 0x0 DUP1 SLOAD PUSH1 0x1 PUSH1 0x1 PUSH1 0xA0 SHL SUB NOT DUP2 AND DUP3 SSTORE PUSH1 0x1 PUSH1 0x1 PUSH1 0xA0 SHL SUB AND PUSH32 0x8BE0079C531659141344CD1FD0A4F28419497F9722A3DAAFE3B4186F6B6457E0 DUP3 DUP1 LOG3 STOP JUMPDEST CALLVALUE PUSH2 0x1BE JUMPI PUSH1 0x20 CALLDATASIZE PUSH1 0x3 NOT ADD SLT PUSH2 0x1BE JUMPI PUSH1 0x4 CALLDATALOAD PUSH1 0x0 MSTORE PUSH1 0x8 PUSH1 0x20 MSTORE PUSH2 0x1BA PUSH2 0x1A6 PUSH1 0x40 PUSH1 0x0 KECCAK256 PUSH2 0x1CFC JUMP JUMPDEST CALLVALUE PUSH2 0x1BE JUMPI PUSH2 0xFD7 CALLDATASIZE PUSH2 0x199D JUMP JUMPDEST SWAP1 PUSH1 0x0 MSTORE PUSH1 0x8 PUSH1 0x20 MSTORE PUSH1 0x40 PUSH1 0x0 KECCAK256 DUP1 SLOAD DUP3 LT ISZERO PUSH2 0x1BE JUMPI PUSH1 0x20 SWAP2 PUSH2 0xFFA SWAP2 PUSH2 0x1A1C JUMP JUMPDEST SWAP1 SLOAD SWAP1 PUSH1 0x3 SHL SHR PUSH1 0x40 MLOAD SWAP1 DUP2 MSTORE RETURN JUMPDEST CALLVALUE PUSH2 0x1BE JUMPI PUSH1 0x20 CALLDATASIZE PUSH1 0x3 NOT ADD SLT PUSH2 0x1BE JUMPI PUSH32 0x59AE418981AE00500624DCA49FA8395D59A12E54CC5AF94604258B6402CFB004 PUSH1 0x20 PUSH1 0x4 CALLDATALOAD PUSH2 0x1048 PUSH2 0x1EE0 JUMP JUMPDEST DUP1 PUSH1 0x0 MSTORE PUSH1 0x5 DUP3 MSTORE PUSH1 0x7 PUSH1 0x40 PUSH1 0x0 KECCAK256 ADD PUSH2 0x100 PUSH2 0xFF00 NOT DUP3 SLOAD AND OR SWAP1 SSTORE PUSH1 0x40 MLOAD SWAP1 DUP2 MSTORE LOG1 STOP JUMPDEST CALLVALUE PUSH2 0x1BE JUMPI PUSH1 0x20 CALLDATASIZE PUSH1 0x3 NOT ADD SLT PUSH2 0x1BE JUMPI PUSH1 0x4 CALLDATALOAD PUSH1 0x0 MSTORE PUSH1 0x5 PUSH1 0x20 MSTORE PUSH2 0x120 PUSH1 0x40 PUSH1 0x0 KECCAK256 PUSH1 0xFF DUP2 SLOAD SWAP2 PUSH1 0x1 DUP2 ADD SLOAD SWAP1 PUSH1 0x2 DUP2 ADD SLOAD PUSH1 0x3 DUP3 ADD SLOAD PUSH1 0x4 DUP4 ADD SLOAD SWAP1 PUSH1 0x5 DUP5 ADD SLOAD SWAP3 PUSH1 0x7 PUSH1 0x6 DUP7 ADD SLOAD SWAP6 ADD SLOAD SWAP6 PUSH1 0x40 MLOAD SWAP9 DUP10 MSTORE PUSH1 0x20 DUP10 ADD MSTORE PUSH1 0x40 DUP9 ADD MSTORE PUSH1 0x60 DUP8 ADD MSTORE PUSH1 0x80 DUP7 ADD MSTORE PUSH1 0xA0 DUP6 ADD MSTORE PUSH1 0xC0 DUP5 ADD MSTORE DUP2 DUP2 AND ISZERO ISZERO PUSH1 0xE0 DUP5 ADD MSTORE PUSH1 0x8 SHR AND ISZERO ISZERO PUSH2 0x100 DUP3 ADD MSTORE RETURN JUMPDEST CALLVALUE PUSH2 0x1BE JUMPI PUSH1 0x60 CALLDATASIZE PUSH1 0x3 NOT ADD SLT PUSH2 0x1BE JUMPI PUSH2 0x1113 PUSH2 0x19B3 JUMP JUMPDEST PUSH1 0x44 CALLDATALOAD SWAP1 PUSH1 0x4 CALLDATALOAD PUSH1 0x0 MSTORE PUSH1 0x9 PUSH1 0x20 MSTORE PUSH1 0x40 PUSH1 0x0 KECCAK256 SWAP1 PUSH1 0x1 DUP1 PUSH1 0xA0 SHL SUB AND PUSH1 0x0 MSTORE PUSH1 0x20 MSTORE PUSH1 0x40 PUSH1 0x0 KECCAK256 DUP1 SLOAD DUP3 LT ISZERO PUSH2 0x1BE JUMPI PUSH1 0x20 SWAP2 PUSH2 0xFFA SWAP2 PUSH2 0x1A1C JUMP JUMPDEST CALLVALUE PUSH2 0x1BE JUMPI PUSH1 0x0 CALLDATASIZE PUSH1 0x3 NOT ADD SLT PUSH2 0x1BE JUMPI PUSH1 0x20 PUSH1 0xFF PUSH1 0x2 SLOAD AND PUSH1 0x40 MLOAD SWAP1 ISZERO ISZERO DUP2 MSTORE RETURN JUMPDEST CALLVALUE PUSH2 0x1BE JUMPI PUSH1 0x0 CALLDATASIZE PUSH1 0x3 NOT ADD SLT PUSH2 0x1BE JUMPI PUSH1 0x20 PUSH1 0x4 SLOAD PUSH1 0x40 MLOAD SWAP1 DUP2 MSTORE RETURN JUMPDEST CALLVALUE PUSH2 0x1BE JUMPI PUSH1 0x20 CALLDATASIZE PUSH1 0x3 NOT ADD SLT PUSH2 0x1BE JUMPI PUSH32 0x88D20D5EA9EABA2406719D2E3E97A5BA16FB0748F87067B5D315FFA7ED7A0101 PUSH1 0x20 PUSH1 0x4 CALLDATALOAD PUSH2 0x11D0 PUSH2 0x1EE0 JUMP JUMPDEST DUP1 PUSH1 0x0 MSTORE PUSH1 0x5 DUP3 MSTORE PUSH1 0x7 PUSH1 0x40 PUSH1 0x0 KECCAK256 ADD PUSH2 0xFF00 NOT DUP2 SLOAD AND SWAP1 SSTORE PUSH1 0x40 MLOAD SWAP1 DUP2 MSTORE LOG1 STOP JUMPDEST CALLVALUE PUSH2 0x1BE JUMPI PUSH1 0x20 CALLDATASIZE PUSH1 0x3 NOT ADD SLT PUSH2 0x1BE JUMPI PUSH1 0x4 CALLDATALOAD PUSH1 0x0 MSTORE PUSH1 0x5 PUSH1 0x20 MSTORE PUSH2 0x1BA PUSH2 0x1221 PUSH1 0x8 PUSH1 0x40 PUSH1 0x0 KECCAK256 ADD PUSH2 0x1ABC JUMP JUMPDEST PUSH1 0x40 MLOAD SWAP2 DUP3 SWAP2 PUSH1 0x20 DUP4 MSTORE PUSH1 0x20 DUP4 ADD SWAP1 PUSH2 0x19DF JUMP JUMPDEST CALLVALUE PUSH2 0x1BE JUMPI PUSH1 0x0 CALLDATASIZE PUSH1 0x3 NOT ADD SLT PUSH2 0x1BE JUMPI PUSH2 0x124E PUSH2 0x1EE0 JUMP JUMPDEST PUSH2 0x1256 PUSH2 0x1EC3 JUMP JUMPDEST PUSH1 0x1 PUSH1 0xFF NOT PUSH1 0x2 SLOAD AND OR PUSH1 0x2 SSTORE PUSH32 0x62E78CEA01BEE320CD4E420270B5EA74000D11B0C9F74754EBDBFC544B05A258 PUSH1 0x20 PUSH1 0x40 MLOAD CALLER DUP2 MSTORE LOG1 STOP JUMPDEST CALLVALUE PUSH2 0x1BE JUMPI PUSH1 0x80 CALLDATASIZE PUSH1 0x3 NOT ADD SLT PUSH2 0x1BE JUMPI PUSH1 0x4 CALLDATALOAD PUSH1 0x24 CALLDATALOAD PUSH1 0x64 CALLDATALOAD PUSH1 0x44 CALLDATALOAD PUSH2 0x12B4 PUSH2 0x1EE0 JUMP JUMPDEST PUSH2 0x12BC PUSH2 0x1EC3 JUMP JUMPDEST DUP4 DUP4 LT PUSH2 0x13BD JUMPI TIMESTAMP DUP3 GT ISZERO PUSH2 0x1387 JUMPI DUP1 ISZERO PUSH2 0x1356 JUMPI PUSH1 0x20 SWAP4 PUSH32 0xFCC13AAAF4660281E2662AE91069E5F95CC7863D25A6A68E620806A99354FA1A SWAP3 DUP3 PUSH1 0xA0 SWAP4 PUSH1 0x4 PUSH2 0x1307 PUSH1 0x3 SLOAD PUSH2 0x1CA0 JUMP JUMPDEST DUP1 PUSH1 0x3 SSTORE DUP1 PUSH1 0x0 MSTORE PUSH1 0x5 DUP11 MSTORE PUSH1 0x40 PUSH1 0x0 KECCAK256 SWAP1 DUP2 SSTORE DUP6 PUSH1 0x1 DUP3 ADD SSTORE DUP9 PUSH1 0x2 DUP3 ADD SSTORE DUP5 PUSH1 0x3 DUP3 ADD SSTORE ADD SSTORE PUSH1 0x3 SLOAD SWAP6 PUSH1 0x40 MLOAD SWAP4 DUP8 DUP6 MSTORE DUP9 DUP6 ADD MSTORE PUSH1 0x40 DUP5 ADD MSTORE PUSH1 0x60 DUP4 ADD MSTORE PUSH1 0x80 DUP3 ADD MSTORE LOG1 PUSH1 0x40 MLOAD SWAP1 DUP2 MSTORE RETURN JUMPDEST PUSH1 0x40 MLOAD PUSH3 0x461BCD PUSH1 0xE5 SHL DUP2 MSTORE PUSH1 0x20 PUSH1 0x4 DUP3 ADD MSTORE PUSH1 0x9 PUSH1 0x24 DUP3 ADD MSTORE PUSH9 0x7072696365203E203 PUSH1 0xBC SHL PUSH1 0x44 DUP3 ADD MSTORE PUSH1 0x64 SWAP1 REVERT JUMPDEST PUSH1 0x40 MLOAD PUSH3 0x461BCD PUSH1 0xE5 SHL DUP2 MSTORE PUSH1 0x20 PUSH1 0x4 DUP3 ADD MSTORE PUSH1 0xE PUSH1 0x24 DUP3 ADD MSTORE PUSH14 0x6D75737420626520667574757265 PUSH1 0x90 SHL PUSH1 0x44 DUP3 ADD MSTORE PUSH1 0x64 SWAP1 REVERT JUMPDEST PUSH1 0x40 MLOAD PUSH3 0x461BCD PUSH1 0xE5 SHL DUP2 MSTORE PUSH1 0x20 PUSH1 0x4 DUP3 ADD MSTORE PUSH1 0xD PUSH1 0x24 DUP3 ADD MSTORE PUSH13 0x696E76616C69642072616E6765 PUSH1 0x98 SHL PUSH1 0x44 DUP3 ADD MSTORE PUSH1 0x64 SWAP1 REVERT JUMPDEST CALLVALUE PUSH2 0x1BE JUMPI PUSH2 0x1400 CALLDATASIZE PUSH2 0x199D JUMP JUMPDEST SWAP1 PUSH1 0x0 MSTORE PUSH1 0x7 PUSH1 0x20 MSTORE PUSH1 0x40 PUSH1 0x0 KECCAK256 SWAP1 PUSH1 0x0 MSTORE PUSH1 0x20 MSTORE PUSH1 0x20 PUSH1 0xFF PUSH1 0x40 PUSH1 0x0 KECCAK256 SLOAD AND PUSH1 0x40 MLOAD SWAP1 ISZERO ISZERO DUP2 MSTORE RETURN JUMPDEST CALLVALUE PUSH2 0x1BE JUMPI PUSH1 0x20 CALLDATASIZE PUSH1 0x3 NOT ADD SLT PUSH2 0x1BE JUMPI PUSH2 0x1453 PUSH1 0x1 DUP1 PUSH1 0xA0 SHL SUB PUSH1 0x2 SLOAD PUSH1 0x8 SHR AND CALLER EQ PUSH2 0x1B86 JUMP JUMPDEST PUSH2 0x145B PUSH2 0x1EA1 JUMP JUMPDEST PUSH2 0x1463 PUSH2 0x1EC3 JUMP JUMPDEST PUSH1 0x4 CALLDATALOAD PUSH1 0x0 MSTORE PUSH1 0x5 PUSH1 0x20 MSTORE PUSH1 0x40 PUSH1 0x0 KECCAK256 PUSH2 0x1484 PUSH1 0xFF PUSH1 0x7 DUP4 ADD SLOAD AND ISZERO PUSH2 0x1BC5 JUMP JUMPDEST PUSH2 0x1494 PUSH1 0x3 DUP3 ADD SLOAD TIMESTAMP LT ISZERO PUSH2 0x1BFA JUMP JUMPDEST PUSH1 0x6 DUP2 ADD SLOAD SWAP1 PUSH1 0x1 DUP3 EQ PUSH2 0x18A5 JUMPI PUSH1 0x2 DUP3 LT PUSH2 0x186E JUMPI PUSH1 0xA DUP3 DIV SWAP2 DUP3 ISZERO PUSH2 0x1865 JUMPI JUMPDEST PUSH1 0x4 CALLDATALOAD PUSH1 0x0 MSTORE PUSH1 0x8 PUSH1 0x20 MSTORE PUSH1 0x40 PUSH1 0x0 KECCAK256 SWAP1 DUP2 SLOAD SUB PUSH2 0x1830 JUMPI PUSH1 0x5 DUP3 ADD DUP1 SLOAD SWAP1 PUSH1 0x64 DUP3 MUL SWAP2 DUP1 DUP4 DIV PUSH1 0x64 EQ SWAP1 ISZERO OR ISZERO PUSH2 0xBBB JUMPI PUSH2 0x2710 PUSH2 0x1506 SWAP3 DIV SWAP1 PUSH2 0x14FD DUP3 PUSH1 0x4 SLOAD PUSH2 0x1C3C JUMP JUMPDEST PUSH1 0x4 SSTORE SLOAD PUSH2 0x1C49 JUMP JUMPDEST SWAP2 PUSH2 0x1511 DUP5 DUP5 PUSH2 0x1C32 JUMP JUMPDEST SWAP2 PUSH2 0x151B DUP6 PUSH2 0x1C56 JUMP JUMPDEST SWAP5 PUSH2 0x1529 PUSH1 0x40 MLOAD SWAP7 DUP8 PUSH2 0x1A9A JUMP JUMPDEST DUP1 DUP7 MSTORE PUSH1 0x1F NOT PUSH2 0x1538 DUP3 PUSH2 0x1C56 JUMP JUMPDEST ADD CALLDATASIZE PUSH1 0x20 DUP9 ADD CALLDATACOPY PUSH2 0x1548 DUP2 PUSH2 0x1C6E JUMP JUMPDEST SWAP4 DUP3 SLOAD PUSH2 0x1554 DUP2 PUSH2 0x1C56 JUMP JUMPDEST SWAP1 PUSH2 0x1562 PUSH1 0x40 MLOAD SWAP3 DUP4 PUSH2 0x1A9A JUMP JUMPDEST DUP1 DUP3 MSTORE PUSH2 0x1571 PUSH1 0x1F NOT SWAP2 PUSH2 0x1C56 JUMP JUMPDEST ADD CALLDATASIZE PUSH1 0x20 DUP4 ADD CALLDATACOPY PUSH1 0x0 SWAP4 DUP5 JUMPDEST DUP5 DUP2 LT PUSH2 0x15F8 JUMPI PUSH32 0x2E06104A98358BBA565E1F150AD940870A6BFC130C4012ABC2AEBFDFAA2F8CF3 PUSH2 0x15DB DUP12 DUP12 PUSH2 0x15E9 DUP13 DUP13 PUSH1 0x7 PUSH1 0x1 PUSH1 0xFF NOT DUP3 DUP5 ADD SLOAD AND OR SWAP2 ADD SSTORE PUSH1 0x40 MLOAD SWAP5 DUP6 SWAP5 PUSH1 0x4 CALLDATALOAD DUP7 MSTORE PUSH1 0x80 PUSH1 0x20 DUP8 ADD MSTORE PUSH1 0x80 DUP7 ADD SWAP1 PUSH2 0x19DF JUMP JUMPDEST SWAP1 DUP5 DUP3 SUB PUSH1 0x40 DUP7 ADD MSTORE PUSH2 0x1A4A JUMP JUMPDEST SWAP1 PUSH1 0x60 DUP4 ADD MSTORE SUB SWAP1 LOG1 PUSH1 0x1 DUP1 SSTORE STOP JUMPDEST PUSH1 0x40 MLOAD PUSH1 0x20 DUP2 ADD SWAP1 TIMESTAMP DUP3 MSTORE PREVRANDAO PUSH1 0x40 DUP3 ADD MSTORE CALLER PUSH1 0x60 SHL PUSH1 0x60 DUP3 ADD MSTORE DUP8 PUSH1 0x74 DUP3 ADD MSTORE PUSH1 0x4 CALLDATALOAD PUSH1 0x94 DUP3 ADD MSTORE PUSH1 0x94 DUP2 MSTORE PUSH2 0x162F PUSH1 0xB4 DUP3 PUSH2 0x1A9A JUMP JUMPDEST MLOAD SWAP1 KECCAK256 DUP3 SLOAD SWAP1 DUP2 ISZERO PUSH2 0x181A JUMPI MOD PUSH2 0x1646 DUP2 DUP6 PUSH2 0x1B12 JUMP JUMPDEST MLOAD PUSH2 0x180F JUMPI DUP1 PUSH1 0x1 PUSH2 0x165B PUSH2 0x1662 SWAP4 DUP8 PUSH2 0x1B12 JUMP JUMPDEST MSTORE DUP4 PUSH2 0x1A1C JUMP JUMPDEST SWAP1 SLOAD SWAP1 PUSH1 0x3 SHL SHR PUSH1 0x4 CALLDATALOAD PUSH1 0x0 MSTORE PUSH1 0x6 PUSH1 0x20 MSTORE PUSH1 0x40 PUSH1 0x0 KECCAK256 DUP2 PUSH1 0x0 MSTORE PUSH1 0x20 MSTORE PUSH1 0x1 DUP1 PUSH1 0xA0 SHL SUB PUSH1 0x40 PUSH1 0x0 KECCAK256 SLOAD AND SWAP1 DUP12 DUP3 ISZERO PUSH2 0x17FC JUMPI PUSH2 0x16A1 DUP5 DUP5 SWAP3 PUSH2 0x1B12 JUMP JUMPDEST MSTORE DUP1 PUSH2 0x16AD DUP5 DUP13 PUSH2 0x1B12 JUMP JUMPDEST MSTORE PUSH1 0x8 DUP10 ADD SLOAD SWAP1 PUSH1 0x1 PUSH1 0x40 SHL DUP3 LT ISZERO PUSH2 0x17E6 JUMPI PUSH2 0x1736 SWAP3 PUSH2 0x1705 DUP9 SWAP3 PUSH2 0x16E0 DUP6 PUSH1 0x8 DUP16 PUSH1 0x1 PUSH1 0x20 SWAP10 ADD DUP3 DUP3 ADD SSTORE ADD PUSH2 0x1A1C JUMP JUMPDEST DUP2 SLOAD PUSH1 0x1 PUSH1 0x1 PUSH1 0xA0 SHL SUB PUSH1 0x3 SWAP3 SWAP1 SWAP3 SHL SWAP2 DUP3 SHL NOT AND SWAP1 DUP6 SWAP1 SHL OR SWAP1 SSTORE PUSH1 0x9 DUP14 ADD PUSH2 0x1CAF JUMP JUMPDEST PUSH1 0x40 MLOAD PUSH4 0xA9059CBB PUSH1 0xE0 SHL DUP2 MSTORE PUSH1 0x1 PUSH1 0x1 PUSH1 0xA0 SHL SUB SWAP1 SWAP2 AND PUSH1 0x4 DUP3 ADD MSTORE PUSH1 0x24 DUP2 ADD SWAP2 SWAP1 SWAP2 MSTORE SWAP2 DUP3 SWAP1 DUP2 SWAP1 PUSH1 0x44 DUP3 ADD SWAP1 JUMP JUMPDEST SUB DUP2 PUSH1 0x0 PUSH32 0x0 PUSH1 0x1 PUSH1 0x1 PUSH1 0xA0 SHL SUB AND GAS CALL SWAP1 DUP2 ISZERO PUSH2 0x3DC JUMPI PUSH1 0x0 SWAP2 PUSH2 0x17C8 JUMPI JUMPDEST POP ISZERO PUSH2 0x1796 JUMPI PUSH2 0x1787 PUSH2 0x178D SWAP2 PUSH2 0x1CA0 JUMP JUMPDEST SWAP6 PUSH2 0x1CA0 JUMP JUMPDEST SWAP4 JUMPDEST SWAP4 SWAP5 PUSH2 0x157D JUMP JUMPDEST PUSH1 0x40 MLOAD PUSH3 0x461BCD PUSH1 0xE5 SHL DUP2 MSTORE PUSH1 0x20 PUSH1 0x4 DUP3 ADD MSTORE PUSH1 0xA PUSH1 0x24 DUP3 ADD MSTORE PUSH10 0x1C185E4B59985A5B1959 PUSH1 0xB2 SHL PUSH1 0x44 DUP3 ADD MSTORE PUSH1 0x64 SWAP1 REVERT JUMPDEST PUSH2 0x17E0 SWAP2 POP PUSH1 0x20 RETURNDATASIZE DUP2 GT PUSH2 0x3D5 JUMPI PUSH2 0x3C7 DUP2 DUP4 PUSH2 0x1A9A JUMP JUMPDEST DUP12 PUSH2 0x1775 JUMP JUMPDEST PUSH4 0x4E487B71 PUSH1 0xE0 SHL PUSH1 0x0 MSTORE PUSH1 0x41 PUSH1 0x4 MSTORE PUSH1 0x24 PUSH1 0x0 REVERT JUMPDEST POP POP POP SWAP5 PUSH2 0x1809 SWAP1 PUSH2 0x1CA0 JUMP JUMPDEST SWAP4 PUSH2 0x178F JUMP JUMPDEST POP SWAP5 PUSH2 0x1809 SWAP1 PUSH2 0x1CA0 JUMP JUMPDEST PUSH4 0x4E487B71 PUSH1 0xE0 SHL PUSH1 0x0 MSTORE PUSH1 0x12 PUSH1 0x4 MSTORE PUSH1 0x24 PUSH1 0x0 REVERT JUMPDEST PUSH1 0x40 MLOAD PUSH3 0x461BCD PUSH1 0xE5 SHL DUP2 MSTORE PUSH1 0x20 PUSH1 0x4 DUP3 ADD MSTORE PUSH1 0xD PUSH1 0x24 DUP3 ADD MSTORE PUSH13 0xE0DEDED840DAD2E6DAC2E8C6D PUSH1 0x9B SHL PUSH1 0x44 DUP3 ADD MSTORE PUSH1 0x64 SWAP1 REVERT JUMPDEST PUSH1 0x1 SWAP3 POP PUSH2 0x14B6 JUMP JUMPDEST PUSH1 0x40 MLOAD PUSH3 0x461BCD PUSH1 0xE5 SHL DUP2 MSTORE PUSH1 0x20 PUSH1 0x4 DUP3 ADD MSTORE PUSH1 0xF PUSH1 0x24 DUP3 ADD MSTORE PUSH15 0x6E6F207061727469636970616E7473 PUSH1 0x88 SHL PUSH1 0x44 DUP3 ADD MSTORE PUSH1 0x64 SWAP1 REVERT JUMPDEST PUSH1 0x40 MLOAD PUSH3 0x461BCD PUSH1 0xE5 SHL DUP2 MSTORE PUSH1 0x20 PUSH1 0x4 DUP3 ADD MSTORE PUSH1 0x23 PUSH1 0x24 DUP3 ADD MSTORE PUSH32 0x75736520726566756E64526166666C65282920666F72203120656E747279206F PUSH1 0x44 DUP3 ADD MSTORE PUSH3 0x6E6C79 PUSH1 0xE8 SHL PUSH1 0x64 DUP3 ADD MSTORE PUSH1 0x84 SWAP1 REVERT JUMPDEST CALLVALUE PUSH2 0x1BE JUMPI PUSH1 0x40 CALLDATASIZE PUSH1 0x3 NOT ADD SLT PUSH2 0x1BE JUMPI PUSH1 0x20 PUSH2 0x191C PUSH2 0x1914 PUSH2 0x19B3 JUMP JUMPDEST PUSH1 0x4 CALLDATALOAD PUSH2 0x1B26 JUMP JUMPDEST PUSH1 0x40 MLOAD SWAP1 ISZERO ISZERO DUP2 MSTORE RETURN JUMPDEST CALLVALUE PUSH2 0x1BE JUMPI PUSH1 0x0 CALLDATASIZE PUSH1 0x3 NOT ADD SLT PUSH2 0x1BE JUMPI PUSH1 0x40 MLOAD PUSH32 0x0 PUSH1 0x1 PUSH1 0x1 PUSH1 0xA0 SHL SUB AND DUP2 MSTORE PUSH1 0x20 SWAP1 RETURN JUMPDEST CALLVALUE PUSH2 0x1BE JUMPI PUSH1 0x20 SWAP1 PUSH2 0x197C CALLDATASIZE PUSH2 0x199D JUMP JUMPDEST SWAP1 PUSH1 0x0 MSTORE PUSH1 0x7 DUP4 MSTORE PUSH1 0x40 PUSH1 0x0 KECCAK256 SWAP1 PUSH1 0x0 MSTORE DUP3 MSTORE PUSH1 0xFF PUSH1 0x40 PUSH1 0x0 KECCAK256 SLOAD AND ISZERO DUP2 MSTORE RETURN JUMPDEST PUSH1 0x40 SWAP1 PUSH1 0x3 NOT ADD SLT PUSH2 0x1BE JUMPI PUSH1 0x4 CALLDATALOAD SWAP1 PUSH1 0x24 CALLDATALOAD SWAP1 JUMP JUMPDEST PUSH1 0x24 CALLDATALOAD SWAP1 PUSH1 0x1 PUSH1 0x1 PUSH1 0xA0 SHL SUB DUP3 AND DUP3 SUB PUSH2 0x1BE JUMPI JUMP JUMPDEST PUSH1 0x4 CALLDATALOAD SWAP1 PUSH1 0x1 PUSH1 0x1 PUSH1 0xA0 SHL SUB DUP3 AND DUP3 SUB PUSH2 0x1BE JUMPI JUMP JUMPDEST SWAP1 PUSH1 0x20 DUP1 DUP4 MLOAD SWAP3 DUP4 DUP2 MSTORE ADD SWAP3 ADD SWAP1 PUSH1 0x0 JUMPDEST DUP2 DUP2 LT PUSH2 0x19FD JUMPI POP POP POP SWAP1 JUMP JUMPDEST DUP3 MLOAD PUSH1 0x1 PUSH1 0x1 PUSH1 0xA0 SHL SUB AND DUP5 MSTORE PUSH1 0x20 SWAP4 DUP5 ADD SWAP4 SWAP1 SWAP3 ADD SWAP2 PUSH1 0x1 ADD PUSH2 0x19F0 JUMP JUMPDEST DUP1 SLOAD DUP3 LT ISZERO PUSH2 0x1A34 JUMPI PUSH1 0x0 MSTORE PUSH1 0x20 PUSH1 0x0 KECCAK256 ADD SWAP1 PUSH1 0x0 SWAP1 JUMP JUMPDEST PUSH4 0x4E487B71 PUSH1 0xE0 SHL PUSH1 0x0 MSTORE PUSH1 0x32 PUSH1 0x4 MSTORE PUSH1 0x24 PUSH1 0x0 REVERT JUMPDEST SWAP1 PUSH1 0x20 DUP1 DUP4 MLOAD SWAP3 DUP4 DUP2 MSTORE ADD SWAP3 ADD SWAP1 PUSH1 0x0 JUMPDEST DUP2 DUP2 LT PUSH2 0x1A68 JUMPI POP POP POP SWAP1 JUMP JUMPDEST DUP3 MLOAD DUP5 MSTORE PUSH1 0x20 SWAP4 DUP5 ADD SWAP4 SWAP1 SWAP3 ADD SWAP2 PUSH1 0x1 ADD PUSH2 0x1A5B JUMP JUMPDEST PUSH1 0x60 DUP2 ADD SWAP1 DUP2 LT PUSH8 0xFFFFFFFFFFFFFFFF DUP3 GT OR PUSH2 0x17E6 JUMPI PUSH1 0x40 MSTORE JUMP JUMPDEST SWAP1 PUSH1 0x1F DUP1 NOT SWAP2 ADD AND DUP2 ADD SWAP1 DUP2 LT PUSH8 0xFFFFFFFFFFFFFFFF DUP3 GT OR PUSH2 0x17E6 JUMPI PUSH1 0x40 MSTORE JUMP JUMPDEST SWAP1 PUSH1 0x40 MLOAD SWAP2 DUP3 DUP2 SLOAD SWAP2 DUP3 DUP3 MSTORE PUSH1 0x20 DUP3 ADD SWAP1 PUSH1 0x0 MSTORE PUSH1 0x20 PUSH1 0x0 KECCAK256 SWAP3 PUSH1 0x0 JUMPDEST DUP2 DUP2 LT PUSH2 0x1AF0 JUMPI POP POP PUSH2 0x1AEE SWAP3 POP SUB DUP4 PUSH2 0x1A9A JUMP JUMPDEST JUMP JUMPDEST DUP5 SLOAD PUSH1 0x1 PUSH1 0x1 PUSH1 0xA0 SHL SUB AND DUP4 MSTORE PUSH1 0x1 SWAP5 DUP6 ADD SWAP5 DUP8 SWAP5 POP PUSH1 0x20 SWAP1 SWAP4 ADD SWAP3 ADD PUSH2 0x1AD9 JUMP JUMPDEST DUP1 MLOAD DUP3 LT ISZERO PUSH2 0x1A34 JUMPI PUSH1 0x20 SWAP2 PUSH1 0x5 SHL ADD ADD SWAP1 JUMP JUMPDEST PUSH1 0x0 MSTORE PUSH1 0x5 PUSH1 0x20 MSTORE PUSH2 0x1B3E PUSH1 0x8 PUSH1 0x40 PUSH1 0x0 KECCAK256 ADD PUSH2 0x1ABC JUMP JUMPDEST SWAP1 PUSH1 0x0 JUMPDEST DUP3 MLOAD DUP2 LT ISZERO PUSH2 0x1B7E JUMPI PUSH1 0x1 PUSH1 0x1 PUSH1 0xA0 SHL SUB PUSH2 0x1B5D DUP3 DUP6 PUSH2 0x1B12 JUMP JUMPDEST MLOAD AND PUSH1 0x1 PUSH1 0x1 PUSH1 0xA0 SHL SUB DUP4 AND EQ PUSH2 0x1B76 JUMPI PUSH1 0x1 ADD PUSH2 0x1B42 JUMP JUMPDEST POP POP POP PUSH1 0x1 SWAP1 JUMP JUMPDEST POP POP POP PUSH1 0x0 SWAP1 JUMP JUMPDEST ISZERO PUSH2 0x1B8D JUMPI JUMP JUMPDEST PUSH1 0x40 MLOAD PUSH3 0x461BCD PUSH1 0xE5 SHL DUP2 MSTORE PUSH1 0x20 PUSH1 0x4 DUP3 ADD MSTORE PUSH1 0x10 PUSH1 0x24 DUP3 ADD MSTORE PUSH16 0x18D85B1B195C8B5B9BDD0B5859D95B9D PUSH1 0x82 SHL PUSH1 0x44 DUP3 ADD MSTORE PUSH1 0x64 SWAP1 REVERT JUMPDEST ISZERO PUSH2 0x1BCC JUMPI JUMP JUMPDEST PUSH1 0x40 MLOAD PUSH3 0x461BCD PUSH1 0xE5 SHL DUP2 MSTORE PUSH1 0x20 PUSH1 0x4 DUP3 ADD MSTORE PUSH1 0x6 PUSH1 0x24 DUP3 ADD MSTORE PUSH6 0x18DB1BDCD959 PUSH1 0xD2 SHL PUSH1 0x44 DUP3 ADD MSTORE PUSH1 0x64 SWAP1 REVERT JUMPDEST ISZERO PUSH2 0x1C01 JUMPI JUMP JUMPDEST PUSH1 0x40 MLOAD PUSH3 0x461BCD PUSH1 0xE5 SHL DUP2 MSTORE PUSH1 0x20 PUSH1 0x4 DUP3 ADD MSTORE PUSH1 0x9 PUSH1 0x24 DUP3 ADD MSTORE PUSH9 0x1B9BDD0B595B991959 PUSH1 0xBA SHL PUSH1 0x44 DUP3 ADD MSTORE PUSH1 0x64 SWAP1 REVERT JUMPDEST DUP2 ISZERO PUSH2 0x181A JUMPI DIV SWAP1 JUMP JUMPDEST SWAP2 SWAP1 DUP3 ADD DUP1 SWAP3 GT PUSH2 0xBBB JUMPI JUMP JUMPDEST SWAP2 SWAP1 DUP3 SUB SWAP2 DUP3 GT PUSH2 0xBBB JUMPI JUMP JUMPDEST PUSH8 0xFFFFFFFFFFFFFFFF DUP2 GT PUSH2 0x17E6 JUMPI PUSH1 0x5 SHL PUSH1 0x20 ADD SWAP1 JUMP JUMPDEST SWAP1 PUSH2 0x1C78 DUP3 PUSH2 0x1C56 JUMP JUMPDEST PUSH2 0x1C85 PUSH1 0x40 MLOAD SWAP2 DUP3 PUSH2 0x1A9A JUMP JUMPDEST DUP3 DUP2 MSTORE DUP1 SWAP3 PUSH2 0x1C96 PUSH1 0x1F NOT SWAP2 PUSH2 0x1C56 JUMP JUMPDEST ADD SWAP1 PUSH1 0x20 CALLDATASIZE SWAP2 ADD CALLDATACOPY JUMP JUMPDEST PUSH1 0x0 NOT DUP2 EQ PUSH2 0xBBB JUMPI PUSH1 0x1 ADD SWAP1 JUMP JUMPDEST DUP1 SLOAD PUSH1 0x1 PUSH1 0x40 SHL DUP2 LT ISZERO PUSH2 0x17E6 JUMPI PUSH2 0x1CCC SWAP2 PUSH1 0x1 DUP3 ADD DUP2 SSTORE PUSH2 0x1A1C JUMP JUMPDEST DUP2 SWAP3 SWAP2 SLOAD SWAP1 PUSH1 0x3 SHL SWAP2 DUP3 SHL SWAP2 PUSH1 0x0 NOT SWAP1 SHL NOT AND OR SWAP1 SSTORE JUMP JUMPDEST SWAP1 DUP2 PUSH1 0x20 SWAP2 SUB SLT PUSH2 0x1BE JUMPI MLOAD DUP1 ISZERO ISZERO DUP2 SUB PUSH2 0x1BE JUMPI SWAP1 JUMP JUMPDEST SWAP1 PUSH1 0x40 MLOAD SWAP2 DUP3 DUP2 SLOAD SWAP2 DUP3 DUP3 MSTORE PUSH1 0x20 DUP3 ADD SWAP1 PUSH1 0x0 MSTORE PUSH1 0x20 PUSH1 0x0 KECCAK256 SWAP3 PUSH1 0x0 JUMPDEST DUP2 DUP2 LT PUSH2 0x1D2E JUMPI POP POP PUSH2 0x1AEE SWAP3 POP SUB DUP4 PUSH2 0x1A9A JUMP JUMPDEST DUP5 SLOAD DUP4 MSTORE PUSH1 0x1 SWAP5 DUP6 ADD SWAP5 DUP8 SWAP5 POP PUSH1 0x20 SWAP1 SWAP4 ADD SWAP3 ADD PUSH2 0x1D19 JUMP JUMPDEST ISZERO PUSH2 0x1D4E JUMPI JUMP JUMPDEST PUSH1 0x40 MLOAD PUSH3 0x461BCD PUSH1 0xE5 SHL DUP2 MSTORE PUSH1 0x20 PUSH1 0x4 DUP3 ADD MSTORE PUSH1 0x11 PUSH1 0x24 DUP3 ADD MSTORE PUSH17 0x1C9859999B19481B9BDD0818DB1BDCD959 PUSH1 0x7A SHL PUSH1 0x44 DUP3 ADD MSTORE PUSH1 0x64 SWAP1 REVERT JUMPDEST PUSH1 0x0 MSTORE PUSH1 0x5 PUSH1 0x20 MSTORE PUSH1 0x40 PUSH1 0x0 KECCAK256 PUSH2 0x1DA4 PUSH1 0xFF PUSH1 0x7 DUP4 ADD SLOAD AND PUSH2 0x1D47 JUMP JUMPDEST PUSH1 0x8 DUP2 ADD DUP1 SLOAD SWAP2 PUSH1 0x0 DUP1 JUMPDEST DUP5 DUP2 LT PUSH2 0x1E5E JUMPI POP DUP1 ISZERO PUSH2 0x1E3F JUMPI PUSH2 0x1DC6 SWAP1 PUSH2 0x1C6E JUMP JUMPDEST SWAP4 PUSH1 0x0 SWAP3 PUSH1 0x0 JUMPDEST DUP6 DUP2 LT PUSH2 0x1DDD JUMPI POP POP POP POP POP POP SWAP1 JUMP JUMPDEST PUSH2 0x1DE7 DUP2 DUP4 PUSH2 0x1A1C JUMP JUMPDEST SWAP1 SLOAD PUSH1 0x3 SWAP2 SWAP1 SWAP2 SHL SHR PUSH1 0x1 PUSH1 0x1 PUSH1 0xA0 SHL SUB SWAP1 DUP2 AND SWAP1 DUP5 AND EQ PUSH2 0x1E0C JUMPI JUMPDEST PUSH1 0x1 ADD PUSH2 0x1DCD JUMP JUMPDEST SWAP4 PUSH2 0x1E37 PUSH1 0x1 SWAP2 PUSH2 0x1E20 DUP8 PUSH1 0x9 DUP9 ADD PUSH2 0x1A1C JUMP JUMPDEST SWAP1 SLOAD SWAP1 PUSH1 0x3 SHL SHR PUSH2 0x1E31 DUP3 DUP12 PUSH2 0x1B12 JUMP JUMPDEST MSTORE PUSH2 0x1CA0 JUMP JUMPDEST SWAP5 SWAP1 POP PUSH2 0x1E04 JUMP JUMPDEST POP POP POP POP POP PUSH1 0x40 MLOAD PUSH2 0x1E52 PUSH1 0x20 DUP3 PUSH2 0x1A9A JUMP JUMPDEST PUSH1 0x0 DUP2 MSTORE PUSH1 0x0 CALLDATASIZE DUP2 CALLDATACOPY SWAP1 JUMP JUMPDEST PUSH2 0x1E68 DUP2 DUP6 PUSH2 0x1A1C JUMP JUMPDEST SWAP1 SLOAD PUSH1 0x3 SWAP2 SWAP1 SWAP2 SHL SHR PUSH1 0x1 PUSH1 0x1 PUSH1 0xA0 SHL SUB SWAP1 DUP2 AND SWAP1 DUP8 AND EQ PUSH2 0x1E8D JUMPI JUMPDEST PUSH1 0x1 ADD PUSH2 0x1DAF JUMP JUMPDEST SWAP1 PUSH2 0x1E99 PUSH1 0x1 SWAP2 PUSH2 0x1CA0 JUMP JUMPDEST SWAP2 SWAP1 POP PUSH2 0x1E85 JUMP JUMPDEST PUSH1 0x2 PUSH1 0x1 SLOAD EQ PUSH2 0x1EB2 JUMPI PUSH1 0x2 PUSH1 0x1 SSTORE JUMP JUMPDEST PUSH4 0x3EE5AEB5 PUSH1 0xE0 SHL PUSH1 0x0 MSTORE PUSH1 0x4 PUSH1 0x0 REVERT JUMPDEST PUSH1 0xFF PUSH1 0x2 SLOAD AND PUSH2 0x1ECF JUMPI JUMP JUMPDEST PUSH4 0xD93C0665 PUSH1 0xE0 SHL PUSH1 0x0 MSTORE PUSH1 0x4 PUSH1 0x0 REVERT JUMPDEST PUSH1 0x0 SLOAD PUSH1 0x1 PUSH1 0x1 PUSH1 0xA0 SHL SUB AND CALLER SUB PUSH2 0x1EF4 JUMPI JUMP JUMPDEST PUSH4 0x118CDAA7 PUSH1 0xE0 SHL PUSH1 0x0 MSTORE CALLER PUSH1 0x4 MSTORE PUSH1 0x24 PUSH1 0x0 REVERT INVALID LOG2 PUSH5 0x6970667358 0x22 SLT KECCAK256 0x4D LOG4 0xDD 0xB4 0xBC SWAP8 CALLVALUE STATICCALL 0xF 0x4C 0xE2 0xFB 0xC0 0xB7 0xF9 0xE4 0xC2 0xCA STOP 0xE3 PUSH5 0x52EBA8A5E5 0xD4 GASLIMIT PUSH4 0x86097564 PUSH20 0x6F6C634300081C00330000000000000000000000 "
        },
        "methodIdentifiers": {
          "FEE_BASIS_POINTS()": "a525ad3c",
          "accumulatedFees()": "587f5ed7",
          "agent()": "f5ff5c76",
          "cUSD()": "1fccf672",
          "closeRaffle(uint256)": "234d0001",
          "createRaffle(uint256,uint256,uint256,uint256)": "39510c85",
          "didUserWin(uint256,address)": "20226ece",
          "getPurchasedNumbers(uint256)": "6ef5addb",
          "getRaffleWinners(uint256)": "4823b026",
          "getUserSelectedNumbers(uint256,address)": "ac7908af",
          "getUserWinningNumbers(uint256,address)": "fcf3f5e0",
          "getWinnersWithNumbers(uint256)": "a21701ba",
          "getWinningNumbers(uint256)": "9d5c35ae",
          "isNumberAvailable(uint256,uint256)": "1952eb81",
          "joinRaffle(uint256,uint256[])": "aa1200c2",
          "numberOwner(uint256,uint256)": "ad711014",
          "numberTaken(uint256,uint256)": "24e30327",
          "owner()": "8da5cb5b",
          "pauseContract()": "439766ce",
          "pauseRaffle(uint256)": "5eaee86d",
          "paused()": "5c975abb",
          "purchasedNumbers(uint256,uint256)": "6c473b1e",
          "raffleCount()": "a54c120c",
          "raffles(uint256)": "5d4bc0ce",
          "refundRaffle(uint256)": "ea0a61c4",
          "renounceOwnership()": "715018a6",
          "setAgent(address)": "bcf685ed",
          "transferOwnership(address)": "f2fde38b",
          "unpauseContract()": "b33712c5",
          "unpauseRaffle(uint256)": "539cd3e5",
          "userSelectedNumbers(uint256,address,uint256)": "5caaad77",
          "withdrawPlatformFees(address)": "ec3889b5"
        }
      }
    }
  }
}