{
  "contracts/RaffleUp.sol": {
    "RaffleUp": {
      "abi": [
        {
          "inputs": [
            {
              "internalType": "address",
              "name": "_cUSD",
              "type": "address"
            },
            {
              "internalType": "address",
              "name": "_agent",
              "type": "address"
            }
          ],
          "stateMutability": "nonpayable",
          "type": "constructor"
        },
        {
          "inputs": [],
          "name": "EnforcedPause",
          "type": "error"
        },
        {
          "inputs": [],
          "name": "ExpectedPause",
          "type": "error"
        },
        {
          "inputs": [
            {
              "internalType": "address",
              "name": "owner",
              "type": "address"
            }
          ],
          "name": "OwnableInvalidOwner",
          "type": "error"
        },
        {
          "inputs": [
            {
              "internalType": "address",
              "name": "account",
              "type": "address"
            }
          ],
          "name": "OwnableUnauthorizedAccount",
          "type": "error"
        },
        {
          "inputs": [],
          "name": "ReentrancyGuardReentrantCall",
          "type": "error"
        },
        {
          "anonymous": false,
          "inputs": [
            {
              "indexed": false,
              "internalType": "address",
              "name": "oldAgent",
              "type": "address"
            },
            {
              "indexed": false,
              "internalType": "address",
              "name": "newAgent",
              "type": "address"
            }
          ],
          "name": "AgentChanged",
          "type": "event"
        },
        {
          "anonymous": false,
          "inputs": [
            {
              "indexed": false,
              "internalType": "uint256",
              "name": "raffleId",
              "type": "uint256"
            },
            {
              "indexed": false,
              "internalType": "uint256",
              "name": "number",
              "type": "uint256"
            },
            {
              "indexed": false,
              "internalType": "address",
              "name": "buyer",
              "type": "address"
            }
          ],
          "name": "NumberPurchased",
          "type": "event"
        },
        {
          "anonymous": false,
          "inputs": [
            {
              "indexed": true,
              "internalType": "address",
              "name": "previousOwner",
              "type": "address"
            },
            {
              "indexed": true,
              "internalType": "address",
              "name": "newOwner",
              "type": "address"
            }
          ],
          "name": "OwnershipTransferred",
          "type": "event"
        },
        {
          "anonymous": false,
          "inputs": [
            {
              "indexed": false,
              "internalType": "address",
              "name": "account",
              "type": "address"
            }
          ],
          "name": "Paused",
          "type": "event"
        },
        {
          "anonymous": false,
          "inputs": [
            {
              "indexed": false,
              "internalType": "address",
              "name": "to",
              "type": "address"
            },
            {
              "indexed": false,
              "internalType": "uint256",
              "name": "amount",
              "type": "uint256"
            }
          ],
          "name": "PlatformFeesWithdrawn",
          "type": "event"
        },
        {
          "anonymous": false,
          "inputs": [
            {
              "indexed": false,
              "internalType": "uint256",
              "name": "raffleId",
              "type": "uint256"
            },
            {
              "indexed": false,
              "internalType": "address[]",
              "name": "winners",
              "type": "address[]"
            },
            {
              "indexed": false,
              "internalType": "uint256",
              "name": "totalDistributable",
              "type": "uint256"
            }
          ],
          "name": "RaffleClosed",
          "type": "event"
        },
        {
          "anonymous": false,
          "inputs": [
            {
              "indexed": false,
              "internalType": "uint256",
              "name": "raffleId",
              "type": "uint256"
            },
            {
              "indexed": false,
              "internalType": "uint256",
              "name": "startNum",
              "type": "uint256"
            },
            {
              "indexed": false,
              "internalType": "uint256",
              "name": "endNum",
              "type": "uint256"
            },
            {
              "indexed": false,
              "internalType": "uint256",
              "name": "entryPrice",
              "type": "uint256"
            },
            {
              "indexed": false,
              "internalType": "uint256",
              "name": "end",
              "type": "uint256"
            }
          ],
          "name": "RaffleCreated",
          "type": "event"
        },
        {
          "anonymous": false,
          "inputs": [
            {
              "indexed": false,
              "internalType": "uint256",
              "name": "raffleId",
              "type": "uint256"
            }
          ],
          "name": "RafflePaused",
          "type": "event"
        },
        {
          "anonymous": false,
          "inputs": [
            {
              "indexed": false,
              "internalType": "uint256",
              "name": "raffleId",
              "type": "uint256"
            }
          ],
          "name": "RaffleRefunded",
          "type": "event"
        },
        {
          "anonymous": false,
          "inputs": [
            {
              "indexed": false,
              "internalType": "uint256",
              "name": "raffleId",
              "type": "uint256"
            }
          ],
          "name": "RaffleUnpaused",
          "type": "event"
        },
        {
          "anonymous": false,
          "inputs": [
            {
              "indexed": false,
              "internalType": "address",
              "name": "account",
              "type": "address"
            }
          ],
          "name": "Unpaused",
          "type": "event"
        },
        {
          "inputs": [],
          "name": "FEE_BASIS_POINTS",
          "outputs": [
            {
              "internalType": "uint256",
              "name": "",
              "type": "uint256"
            }
          ],
          "stateMutability": "view",
          "type": "function"
        },
        {
          "inputs": [],
          "name": "accumulatedFees",
          "outputs": [
            {
              "internalType": "uint256",
              "name": "",
              "type": "uint256"
            }
          ],
          "stateMutability": "view",
          "type": "function"
        },
        {
          "inputs": [],
          "name": "agent",
          "outputs": [
            {
              "internalType": "address",
              "name": "",
              "type": "address"
            }
          ],
          "stateMutability": "view",
          "type": "function"
        },
        {
          "inputs": [],
          "name": "cUSD",
          "outputs": [
            {
              "internalType": "contract IERC20",
              "name": "",
              "type": "address"
            }
          ],
          "stateMutability": "view",
          "type": "function"
        },
        {
          "inputs": [
            {
              "internalType": "uint256",
              "name": "raffleId",
              "type": "uint256"
            }
          ],
          "name": "closeRaffle",
          "outputs": [],
          "stateMutability": "nonpayable",
          "type": "function"
        },
        {
          "inputs": [
            {
              "internalType": "uint256",
              "name": "startNumber",
              "type": "uint256"
            },
            {
              "internalType": "uint256",
              "name": "endNumber",
              "type": "uint256"
            },
            {
              "internalType": "uint256",
              "name": "entryPrice",
              "type": "uint256"
            },
            {
              "internalType": "uint256",
              "name": "endTime",
              "type": "uint256"
            }
          ],
          "name": "createRaffle",
          "outputs": [
            {
              "internalType": "uint256",
              "name": "",
              "type": "uint256"
            }
          ],
          "stateMutability": "nonpayable",
          "type": "function"
        },
        {
          "inputs": [
            {
              "internalType": "uint256",
              "name": "raffleId",
              "type": "uint256"
            }
          ],
          "name": "getPurchasedNumbers",
          "outputs": [
            {
              "internalType": "uint256[]",
              "name": "",
              "type": "uint256[]"
            }
          ],
          "stateMutability": "view",
          "type": "function"
        },
        {
          "inputs": [
            {
              "internalType": "uint256",
              "name": "raffleId",
              "type": "uint256"
            }
          ],
          "name": "getRaffleWinners",
          "outputs": [
            {
              "internalType": "address[]",
              "name": "",
              "type": "address[]"
            }
          ],
          "stateMutability": "view",
          "type": "function"
        },
        {
          "inputs": [
            {
              "internalType": "uint256",
              "name": "raffleId",
              "type": "uint256"
            },
            {
              "internalType": "uint256",
              "name": "number",
              "type": "uint256"
            }
          ],
          "name": "isNumberAvailable",
          "outputs": [
            {
              "internalType": "bool",
              "name": "",
              "type": "bool"
            }
          ],
          "stateMutability": "view",
          "type": "function"
        },
        {
          "inputs": [
            {
              "internalType": "uint256",
              "name": "raffleId",
              "type": "uint256"
            },
            {
              "internalType": "uint256[]",
              "name": "numbers",
              "type": "uint256[]"
            }
          ],
          "name": "joinRaffle",
          "outputs": [],
          "stateMutability": "nonpayable",
          "type": "function"
        },
        {
          "inputs": [
            {
              "internalType": "uint256",
              "name": "",
              "type": "uint256"
            },
            {
              "internalType": "uint256",
              "name": "",
              "type": "uint256"
            }
          ],
          "name": "numberOwner",
          "outputs": [
            {
              "internalType": "address",
              "name": "",
              "type": "address"
            }
          ],
          "stateMutability": "view",
          "type": "function"
        },
        {
          "inputs": [
            {
              "internalType": "uint256",
              "name": "",
              "type": "uint256"
            },
            {
              "internalType": "uint256",
              "name": "",
              "type": "uint256"
            }
          ],
          "name": "numberTaken",
          "outputs": [
            {
              "internalType": "bool",
              "name": "",
              "type": "bool"
            }
          ],
          "stateMutability": "view",
          "type": "function"
        },
        {
          "inputs": [],
          "name": "owner",
          "outputs": [
            {
              "internalType": "address",
              "name": "",
              "type": "address"
            }
          ],
          "stateMutability": "view",
          "type": "function"
        },
        {
          "inputs": [],
          "name": "pauseContract",
          "outputs": [],
          "stateMutability": "nonpayable",
          "type": "function"
        },
        {
          "inputs": [
            {
              "internalType": "uint256",
              "name": "raffleId",
              "type": "uint256"
            }
          ],
          "name": "pauseRaffle",
          "outputs": [],
          "stateMutability": "nonpayable",
          "type": "function"
        },
        {
          "inputs": [],
          "name": "paused",
          "outputs": [
            {
              "internalType": "bool",
              "name": "",
              "type": "bool"
            }
          ],
          "stateMutability": "view",
          "type": "function"
        },
        {
          "inputs": [
            {
              "internalType": "uint256",
              "name": "",
              "type": "uint256"
            },
            {
              "internalType": "uint256",
              "name": "",
              "type": "uint256"
            }
          ],
          "name": "purchasedNumbers",
          "outputs": [
            {
              "internalType": "uint256",
              "name": "",
              "type": "uint256"
            }
          ],
          "stateMutability": "view",
          "type": "function"
        },
        {
          "inputs": [],
          "name": "raffleCount",
          "outputs": [
            {
              "internalType": "uint256",
              "name": "",
              "type": "uint256"
            }
          ],
          "stateMutability": "view",
          "type": "function"
        },
        {
          "inputs": [
            {
              "internalType": "uint256",
              "name": "",
              "type": "uint256"
            }
          ],
          "name": "raffles",
          "outputs": [
            {
              "internalType": "uint256",
              "name": "id",
              "type": "uint256"
            },
            {
              "internalType": "uint256",
              "name": "startNumber",
              "type": "uint256"
            },
            {
              "internalType": "uint256",
              "name": "endNumber",
              "type": "uint256"
            },
            {
              "internalType": "uint256",
              "name": "endTime",
              "type": "uint256"
            },
            {
              "internalType": "uint256",
              "name": "entryPrice",
              "type": "uint256"
            },
            {
              "internalType": "uint256",
              "name": "totalCollected",
              "type": "uint256"
            },
            {
              "internalType": "uint256",
              "name": "totalEntries",
              "type": "uint256"
            },
            {
              "internalType": "bool",
              "name": "closed",
              "type": "bool"
            },
            {
              "internalType": "bool",
              "name": "paused",
              "type": "bool"
            }
          ],
          "stateMutability": "view",
          "type": "function"
        },
        {
          "inputs": [
            {
              "internalType": "uint256",
              "name": "raffleId",
              "type": "uint256"
            }
          ],
          "name": "refundRaffle",
          "outputs": [],
          "stateMutability": "nonpayable",
          "type": "function"
        },
        {
          "inputs": [],
          "name": "renounceOwnership",
          "outputs": [],
          "stateMutability": "nonpayable",
          "type": "function"
        },
        {
          "inputs": [
            {
              "internalType": "address",
              "name": "_agent",
              "type": "address"
            }
          ],
          "name": "setAgent",
          "outputs": [],
          "stateMutability": "nonpayable",
          "type": "function"
        },
        {
          "inputs": [
            {
              "internalType": "address",
              "name": "newOwner",
              "type": "address"
            }
          ],
          "name": "transferOwnership",
          "outputs": [],
          "stateMutability": "nonpayable",
          "type": "function"
        },
        {
          "inputs": [],
          "name": "unpauseContract",
          "outputs": [],
          "stateMutability": "nonpayable",
          "type": "function"
        },
        {
          "inputs": [
            {
              "internalType": "uint256",
              "name": "raffleId",
              "type": "uint256"
            }
          ],
          "name": "unpauseRaffle",
          "outputs": [],
          "stateMutability": "nonpayable",
          "type": "function"
        },
        {
          "inputs": [
            {
              "internalType": "address",
              "name": "to",
              "type": "address"
            }
          ],
          "name": "withdrawPlatformFees",
          "outputs": [],
          "stateMutability": "nonpayable",
          "type": "function"
        }
      ],
      "evm": {
        "bytecode": {
          "linkReferences": {},
          "object": "60a03461019e57601f611aca38819003918201601f19168301916001600160401b038311848410176101a357808492604094855283398101031261019e57610052602061004b836101b9565b92016101b9565b9033156101885760008054336001600160a01b0319821681178355604051939290916001600160a01b0316907f8be0079c531659141344cd1fd0a4f28419497f9722a3daafe3b4186f6b6457e09080a3600180556001600160a01b031690811561015757506001600160a01b038216156101225760805260028054610100600160a81b03191660089290921b610100600160a81b03169190911790556040516118fc90816101ce8239608051818181610279015281816104b8015281816108c201528181611306015261164e0152f35b60405162461bcd60e51b815260206004820152600d60248201526c1a5b9d985b1a59081859d95b9d609a1b6044820152606490fd5b62461bcd60e51b815260206004820152600c60248201526b1a5b9d985b1a590818d554d160a21b6044820152606490fd5b631e4fbdf760e01b600052600060045260246000fd5b600080fd5b634e487b7160e01b600052604160045260246000fd5b51906001600160a01b038216820361019e5756fe608080604052600436101561001357600080fd5b60003560e01c9081631952eb811461167d575080631fccf67214611638578063234d0001146111b157806324e303271461117957806339510c8514611016578063439766ce14610fbc5780634823b02614610f2f578063539cd3e514610ece578063587f5ed714610eb05780635c975abb14610e8d5780635d4bc0ce14610e015780635eaee86d14610d9c5780636c473b1e14610d5c5780636ef5addb14610cb0578063715018a614610c575780638da5cb5b14610c2e578063a525ad3c14610c12578063a54c120c14610bf4578063aa1200c2146107da578063ad7110141461079f578063b33712c514610736578063bcf685ed1461066c578063ea0a61c4146103d3578063ec3889b5146101fc578063f2fde38b1461016f5763f5ff5c761461013d57600080fd5b3461016a57600036600319011261016a5760025460405160089190911c6001600160a01b03168152602090f35b600080fd5b3461016a57602036600319011261016a576004356001600160a01b0381169081900361016a5761019d61189d565b80156101e657600080546001600160a01b03198116831782556001600160a01b0316907f8be0079c531659141344cd1fd0a4f28419497f9722a3daafe3b4186f6b6457e09080a3005b631e4fbdf760e01b600052600060045260246000fd5b3461016a57602036600319011261016a576004356001600160a01b03811680820361016a5761022961189d565b61023161185e565b1561039c57600454801561036d576000600490815560405163a9059cbb60e01b81526001600160a01b03841691810191909152602481018290526020818060448101038160007f00000000000000000000000000000000000000000000000000000000000000006001600160a01b03165af190811561036157600091610332575b50156102fb57604080516001600160a01b0393909316835260208301919091527ffc7ad544ff6a06d6499925723d25b6fe70457a42939995b1d3d6f560fe33633391a160018055005b60405162461bcd60e51b815260206004820152600f60248201526e1dda5d1a191c985dcb59985a5b1959608a1b6044820152606490fd5b610354915060203d60201161035a575b61034c81836117e9565b810190611846565b836102b2565b503d610342565b6040513d6000823e3d90fd5b60405162461bcd60e51b81526020600482015260076024820152666e6f206665657360c81b6044820152606490fd5b60405162461bcd60e51b815260206004820152600f60248201526e696e76616c6964206164647265737360881b6044820152606490fd5b3461016a57602036600319011261016a576004356103ff60018060a01b0360025460081c163314611730565b61040761185e565b61040f611880565b8060005260056020526040600020906007820161043060ff8254161561176f565b61044060038401544210156117a4565b6001600684015403610627576000828152600860205260408120805415610613578152602090819020546000848152600683526040808220838352845280822054600497880154915163a9059cbb60e01b81526001600160a01b039091169781019790975260248701529490918180604481010381887f00000000000000000000000000000000000000000000000000000000000000006001600160a01b03165af19081156106085785916105e9575b50156105b457828452600660205260408420818552602052604084206bffffffffffffffffffffffff60a01b81541690558284526007602052604084209084526020526040832060ff19815416905581835260086020526040832080549084815581610596575b847f4f5be5093383310c2ec5a4cada25a72670734885840f655f42cde6ceb2ccb22860208686600160ff19825416179055604051908152a16001805580f35b845260208420908101905b81811015610557578481556001016105a1565b60405162461bcd60e51b815260206004820152600d60248201526c1c99599d5b990b59985a5b1959609a1b6044820152606490fd5b610602915060203d60201161035a5761034c81836117e9565b856104f0565b6040513d87823e3d90fd5b634e487b7160e01b82526032600452602482fd5b60405162461bcd60e51b815260206004820152601860248201527f726566756e64206f6e6c79207768656e203120656e74727900000000000000006044820152606490fd5b3461016a57602036600319011261016a576004356001600160a01b0381169081810361016a5761069a61189d565b8115610701577fb21f1bf0d206b43eb02be4f423c2788a95affbda226125eaecabe3def8ba5c4260406002549381519060018060a01b038660081c1682526020820152a1610100600160a81b031990911660089190911b610100600160a81b031617600255005b60405162461bcd60e51b815260206004820152600d60248201526c1a5b9d985b1a59081859d95b9d609a1b6044820152606490fd5b3461016a57600036600319011261016a5761074f61189d565b60025460ff81161561078e5760ff19166002557f5db9ee0a495bf2e6ff9c91a7834c1ba4fdd244a5e8aa4e537bd38aeae4b073aa6020604051338152a1005b638dfc202b60e01b60005260046000fd5b3461016a576107ad366116af565b906000526006602052604060002090600052602052602060018060a01b0360406000205416604051908152f35b3461016a57604036600319011261016a5760043560243567ffffffffffffffff811161016a573660238201121561016a57806004013567ffffffffffffffff811161016a573660248260051b8401011161016a5761083661185e565b61083e611880565b8015610bc257826000526005602052604060002091825415610b915760ff600784015461086d8282161561176f565b60081c16610b63576003830154421015610b365760048301549282840293808504841490151715610b20576040516323b872dd60e01b81523360048201523060248201526044810185905260208160648160007f00000000000000000000000000000000000000000000000000000000000000006001600160a01b03165af190811561036157600091610b01575b5015610aca57919260018301929060005b85811015610aa057600060248260051b8601013590865482101580610a92575b15610a5e5788815260076020526040812082825260205260ff604082205416610a315788815260076020526040812082825260205260408120600160ff1982541617905588815260066020526040812082825260205260408120336bffffffffffffffffffffffff60a01b825416179055888152600860205260408120805491600160401b831015610a1d5750600193926109ef83606093877f373a96a13bf6138b98bb34a767ecebde6ed77916085685c78effb698238b12fa96018155611702565b81549060031b9083821b91600019901b1916179055604051908b82526020820152336040820152a10161090c565b634e487b7160e01b81526041600452602490fd5b60405162461bcd60e51b81526020600482015260056024820152643a30b5b2b760d91b6044820152606490fd5b60405162461bcd60e51b815260206004820152600c60248201526b6f75742d6f662d72616e676560a01b6044820152606490fd5b50600285015482111561092c565b50610ac260058387610ab7600683019182546117dc565b9055019182546117dc565b905560018055005b60405162461bcd60e51b815260206004820152600f60248201526e1d1c985b9cd9995c8b59985a5b1959608a1b6044820152606490fd5b610b1a915060203d60201161035a5761034c81836117e9565b866108fb565b634e487b7160e01b600052601160045260246000fd5b60405162461bcd60e51b8152602060048201526005602482015264195b99195960da1b6044820152606490fd5b60405162461bcd60e51b81526020600482015260066024820152651c185d5cd95960d21b6044820152606490fd5b60405162461bcd60e51b81526020600482015260096024820152681b9bdd0b595e1a5cdd60ba1b6044820152606490fd5b60405162461bcd60e51b815260206004820152600a6024820152696e6f206e756d6265727360b01b6044820152606490fd5b3461016a57600036600319011261016a576020600354604051908152f35b3461016a57600036600319011261016a57602060405160648152f35b3461016a57600036600319011261016a576000546040516001600160a01b039091168152602090f35b3461016a57600036600319011261016a57610c7061189d565b600080546001600160a01b0319811682556001600160a01b03167f8be0079c531659141344cd1fd0a4f28419497f9722a3daafe3b4186f6b6457e08280a3005b3461016a57602036600319011261016a57600435600052600860205260406000206040518060208354918281520190819360005260206000209060005b818110610d465750505081610d039103826117e9565b6040519182916020830190602084525180915260408301919060005b818110610d2d575050500390f35b8251845285945060209384019390920191600101610d1f565b8254845260209093019260019283019201610ced565b3461016a57610d6a366116af565b9060005260086020526040600020805482101561016a57602091610d8d91611702565b90549060031b1c604051908152f35b3461016a57602036600319011261016a577f59ae418981ae00500624dca49fa8395d59a12e54cc5af94604258b6402cfb0046020600435610ddb61189d565b8060005260058252600760406000200161010061ff0019825416179055604051908152a1005b3461016a57602036600319011261016a576004356000526005602052610120604060002060ff815491600181015490600281015460038201546004830154906005840154926007600686015495015495604051988952602089015260408801526060870152608086015260a085015260c0840152818116151560e084015260081c161515610100820152f35b3461016a57600036600319011261016a57602060ff600254166040519015158152f35b3461016a57600036600319011261016a576020600454604051908152f35b3461016a57602036600319011261016a577f88d20d5ea9eaba2406719d2e3e97a5ba16fb0748f87067b5d315ffa7ed7a01016020600435610f0d61189d565b8060005260058252600760406000200161ff00198154169055604051908152a1005b3461016a57602036600319011261016a576004356000526005602052600860406000200160405190816020825491828152019160005260206000209060005b818110610f9d57610f9985610f85818703826117e9565b6040519182916020835260208301906116c5565b0390f35b82546001600160a01b0316845260209093019260019283019201610f6e565b3461016a57600036600319011261016a57610fd561189d565b610fdd611880565b600160ff1960025416176002557f62e78cea01bee320cd4e420270b5ea74000d11b0c9f74754ebdbfc544b05a2586020604051338152a1005b3461016a57608036600319011261016a5760043560243560643560443561103b61189d565b611043611880565b838310611144574282111561110e5780156110dd576020937ffcc13aaaf4660281e2662ae91069e5f95cc7863d25a6a68e620806a99354fa1a928260a093600461108e600354611837565b806003558060005260058a5260406000209081558560018201558860028201558460038201550155600354956040519387855288850152604084015260608301526080820152a1604051908152f35b60405162461bcd60e51b815260206004820152600960248201526807072696365203e20360bc1b6044820152606490fd5b60405162461bcd60e51b815260206004820152600e60248201526d6d7573742062652066757475726560901b6044820152606490fd5b60405162461bcd60e51b815260206004820152600d60248201526c696e76616c69642072616e676560981b6044820152606490fd5b3461016a57611187366116af565b906000526007602052604060002090600052602052602060ff604060002054166040519015158152f35b3461016a57602036600319011261016a576004356111dd60018060a01b0360025460081c163314611730565b6111e561185e565b6111ed611880565b8060005260056020526040600020600781019161120e60ff8454161561176f565b61121e60038301544210156117a4565b6006820154600181146115e757600281106115b057600a81049384156115a7575b8260005260086020526040600020918254036115725760058401918254606481029080820460641490151715610b2057612710900492611281846004546117dc565b60045554928303928311610b2057851561155c579493848304946112a48161180b565b956112b260405197886117e9565b818752601f196112c18361180b565b013660208901378754906112d48261180b565b916112e260405193846117e9565b8083526112f1601f199161180b565b013660208401373360601b98600094600801927f00000000000000000000000000000000000000000000000000000000000000006001600160a01b031691865b868110611393577f77cf96c3480e3074cf8f30803b5564056c8c5a6d53043f4ebff6094f89ae7c5d8c8c8c8c600160ff1982541617905561138460405193849384526060602085015260608401906116c5565b9060408301520390a160018055005b8c604051602081019142835244604083015260608201528960748201528c6094820152609481526113c560b4826117e9565b519020825490811561155c57066113dc8185611823565b51611551578060016113f16113f89387611823565b5283611702565b90549060031b1c8b600052600660205260406000209060005260205260018060a01b03604060002054168c811561153f57611434838392611823565b52865490600160401b821015611529578660209161145b8460016114a296018c558b611702565b81546001600160a01b0360039290921b82811b199091169084901b1790915560405163a9059cbb60e01b815291166004820152602481019190915291829081906044820190565b03816000895af19081156103615760009161150b575b50156114d9576114ca6114d091611837565b97611837565b955b9596611331565b60405162461bcd60e51b815260206004820152600a6024820152691c185e4b59985a5b195960b21b6044820152606490fd5b611523915060203d811161035a5761034c81836117e9565b8e6114b8565b634e487b7160e01b600052604160045260246000fd5b50509661154b90611837565b956114d2565b509661154b90611837565b634e487b7160e01b600052601260045260246000fd5b60405162461bcd60e51b815260206004820152600d60248201526c0e0deded840dad2e6dac2e8c6d609b1b6044820152606490fd5b6001945061123f565b60405162461bcd60e51b815260206004820152600f60248201526e6e6f207061727469636970616e747360881b6044820152606490fd5b60405162461bcd60e51b815260206004820152602360248201527f75736520726566756e64526166666c65282920666f72203120656e747279206f6044820152626e6c7960e81b6064820152608490fd5b3461016a57600036600319011261016a576040517f00000000000000000000000000000000000000000000000000000000000000006001600160a01b03168152602090f35b3461016a5760209061168e366116af565b9060005260078352604060002090600052825260ff60406000205416158152f35b604090600319011261016a576004359060243590565b906020808351928381520192019060005b8181106116e35750505090565b82516001600160a01b03168452602093840193909201916001016116d6565b805482101561171a5760005260206000200190600090565b634e487b7160e01b600052603260045260246000fd5b1561173757565b60405162461bcd60e51b815260206004820152601060248201526f18d85b1b195c8b5b9bdd0b5859d95b9d60821b6044820152606490fd5b1561177657565b60405162461bcd60e51b815260206004820152600660248201526518db1bdcd95960d21b6044820152606490fd5b156117ab57565b60405162461bcd60e51b81526020600482015260096024820152681b9bdd0b595b99195960ba1b6044820152606490fd5b91908201809211610b2057565b90601f8019910116810190811067ffffffffffffffff82111761152957604052565b67ffffffffffffffff81116115295760051b60200190565b805182101561171a5760209160051b010190565b6000198114610b205760010190565b9081602091031261016a5751801515810361016a5790565b60026001541461186f576002600155565b633ee5aeb560e01b60005260046000fd5b60ff6002541661188c57565b63d93c066560e01b60005260046000fd5b6000546001600160a01b031633036118b157565b63118cdaa760e01b6000523360045260246000fdfea2646970667358221220cab09bd2c42fb08325271f2ec00112c0517923e0a7ed383f92371268b1b59f3c64736f6c634300081c0033",
          "opcodes": "PUSH1 0xA0 CALLVALUE PUSH2 0x19E JUMPI PUSH1 0x1F PUSH2 0x1ACA CODESIZE DUP2 SWAP1 SUB SWAP2 DUP3 ADD PUSH1 0x1F NOT AND DUP4 ADD SWAP2 PUSH1 0x1 PUSH1 0x1 PUSH1 0x40 SHL SUB DUP4 GT DUP5 DUP5 LT OR PUSH2 0x1A3 JUMPI DUP1 DUP5 SWAP3 PUSH1 0x40 SWAP5 DUP6 MSTORE DUP4 CODECOPY DUP2 ADD SUB SLT PUSH2 0x19E JUMPI PUSH2 0x52 PUSH1 0x20 PUSH2 0x4B DUP4 PUSH2 0x1B9 JUMP JUMPDEST SWAP3 ADD PUSH2 0x1B9 JUMP JUMPDEST SWAP1 CALLER ISZERO PUSH2 0x188 JUMPI PUSH1 0x0 DUP1 SLOAD CALLER PUSH1 0x1 PUSH1 0x1 PUSH1 0xA0 SHL SUB NOT DUP3 AND DUP2 OR DUP4 SSTORE PUSH1 0x40 MLOAD SWAP4 SWAP3 SWAP1 SWAP2 PUSH1 0x1 PUSH1 0x1 PUSH1 0xA0 SHL SUB AND SWAP1 PUSH32 0x8BE0079C531659141344CD1FD0A4F28419497F9722A3DAAFE3B4186F6B6457E0 SWAP1 DUP1 LOG3 PUSH1 0x1 DUP1 SSTORE PUSH1 0x1 PUSH1 0x1 PUSH1 0xA0 SHL SUB AND SWAP1 DUP2 ISZERO PUSH2 0x157 JUMPI POP PUSH1 0x1 PUSH1 0x1 PUSH1 0xA0 SHL SUB DUP3 AND ISZERO PUSH2 0x122 JUMPI PUSH1 0x80 MSTORE PUSH1 0x2 DUP1 SLOAD PUSH2 0x100 PUSH1 0x1 PUSH1 0xA8 SHL SUB NOT AND PUSH1 0x8 SWAP3 SWAP1 SWAP3 SHL PUSH2 0x100 PUSH1 0x1 PUSH1 0xA8 SHL SUB AND SWAP2 SWAP1 SWAP2 OR SWAP1 SSTORE PUSH1 0x40 MLOAD PUSH2 0x18FC SWAP1 DUP2 PUSH2 0x1CE DUP3 CODECOPY PUSH1 0x80 MLOAD DUP2 DUP2 DUP2 PUSH2 0x279 ADD MSTORE DUP2 DUP2 PUSH2 0x4B8 ADD MSTORE DUP2 DUP2 PUSH2 0x8C2 ADD MSTORE DUP2 DUP2 PUSH2 0x1306 ADD MSTORE PUSH2 0x164E ADD MSTORE RETURN JUMPDEST PUSH1 0x40 MLOAD PUSH3 0x461BCD PUSH1 0xE5 SHL DUP2 MSTORE PUSH1 0x20 PUSH1 0x4 DUP3 ADD MSTORE PUSH1 0xD PUSH1 0x24 DUP3 ADD MSTORE PUSH13 0x1A5B9D985B1A59081859D95B9D PUSH1 0x9A SHL PUSH1 0x44 DUP3 ADD MSTORE PUSH1 0x64 SWAP1 REVERT JUMPDEST PUSH3 0x461BCD PUSH1 0xE5 SHL DUP2 MSTORE PUSH1 0x20 PUSH1 0x4 DUP3 ADD MSTORE PUSH1 0xC PUSH1 0x24 DUP3 ADD MSTORE PUSH12 0x1A5B9D985B1A590818D554D1 PUSH1 0xA2 SHL PUSH1 0x44 DUP3 ADD MSTORE PUSH1 0x64 SWAP1 REVERT JUMPDEST PUSH4 0x1E4FBDF7 PUSH1 0xE0 SHL PUSH1 0x0 MSTORE PUSH1 0x0 PUSH1 0x4 MSTORE PUSH1 0x24 PUSH1 0x0 REVERT JUMPDEST PUSH1 0x0 DUP1 REVERT JUMPDEST PUSH4 0x4E487B71 PUSH1 0xE0 SHL PUSH1 0x0 MSTORE PUSH1 0x41 PUSH1 0x4 MSTORE PUSH1 0x24 PUSH1 0x0 REVERT JUMPDEST MLOAD SWAP1 PUSH1 0x1 PUSH1 0x1 PUSH1 0xA0 SHL SUB DUP3 AND DUP3 SUB PUSH2 0x19E JUMPI JUMP INVALID PUSH1 0x80 DUP1 PUSH1 0x40 MSTORE PUSH1 0x4 CALLDATASIZE LT ISZERO PUSH2 0x13 JUMPI PUSH1 0x0 DUP1 REVERT JUMPDEST PUSH1 0x0 CALLDATALOAD PUSH1 0xE0 SHR SWAP1 DUP2 PUSH4 0x1952EB81 EQ PUSH2 0x167D JUMPI POP DUP1 PUSH4 0x1FCCF672 EQ PUSH2 0x1638 JUMPI DUP1 PUSH4 0x234D0001 EQ PUSH2 0x11B1 JUMPI DUP1 PUSH4 0x24E30327 EQ PUSH2 0x1179 JUMPI DUP1 PUSH4 0x39510C85 EQ PUSH2 0x1016 JUMPI DUP1 PUSH4 0x439766CE EQ PUSH2 0xFBC JUMPI DUP1 PUSH4 0x4823B026 EQ PUSH2 0xF2F JUMPI DUP1 PUSH4 0x539CD3E5 EQ PUSH2 0xECE JUMPI DUP1 PUSH4 0x587F5ED7 EQ PUSH2 0xEB0 JUMPI DUP1 PUSH4 0x5C975ABB EQ PUSH2 0xE8D JUMPI DUP1 PUSH4 0x5D4BC0CE EQ PUSH2 0xE01 JUMPI DUP1 PUSH4 0x5EAEE86D EQ PUSH2 0xD9C JUMPI DUP1 PUSH4 0x6C473B1E EQ PUSH2 0xD5C JUMPI DUP1 PUSH4 0x6EF5ADDB EQ PUSH2 0xCB0 JUMPI DUP1 PUSH4 0x715018A6 EQ PUSH2 0xC57 JUMPI DUP1 PUSH4 0x8DA5CB5B EQ PUSH2 0xC2E JUMPI DUP1 PUSH4 0xA525AD3C EQ PUSH2 0xC12 JUMPI DUP1 PUSH4 0xA54C120C EQ PUSH2 0xBF4 JUMPI DUP1 PUSH4 0xAA1200C2 EQ PUSH2 0x7DA JUMPI DUP1 PUSH4 0xAD711014 EQ PUSH2 0x79F JUMPI DUP1 PUSH4 0xB33712C5 EQ PUSH2 0x736 JUMPI DUP1 PUSH4 0xBCF685ED EQ PUSH2 0x66C JUMPI DUP1 PUSH4 0xEA0A61C4 EQ PUSH2 0x3D3 JUMPI DUP1 PUSH4 0xEC3889B5 EQ PUSH2 0x1FC JUMPI DUP1 PUSH4 0xF2FDE38B EQ PUSH2 0x16F JUMPI PUSH4 0xF5FF5C76 EQ PUSH2 0x13D JUMPI PUSH1 0x0 DUP1 REVERT JUMPDEST CALLVALUE PUSH2 0x16A JUMPI PUSH1 0x0 CALLDATASIZE PUSH1 0x3 NOT ADD SLT PUSH2 0x16A JUMPI PUSH1 0x2 SLOAD PUSH1 0x40 MLOAD PUSH1 0x8 SWAP2 SWAP1 SWAP2 SHR PUSH1 0x1 PUSH1 0x1 PUSH1 0xA0 SHL SUB AND DUP2 MSTORE PUSH1 0x20 SWAP1 RETURN JUMPDEST PUSH1 0x0 DUP1 REVERT JUMPDEST CALLVALUE PUSH2 0x16A JUMPI PUSH1 0x20 CALLDATASIZE PUSH1 0x3 NOT ADD SLT PUSH2 0x16A JUMPI PUSH1 0x4 CALLDATALOAD PUSH1 0x1 PUSH1 0x1 PUSH1 0xA0 SHL SUB DUP2 AND SWAP1 DUP2 SWAP1 SUB PUSH2 0x16A JUMPI PUSH2 0x19D PUSH2 0x189D JUMP JUMPDEST DUP1 ISZERO PUSH2 0x1E6 JUMPI PUSH1 0x0 DUP1 SLOAD PUSH1 0x1 PUSH1 0x1 PUSH1 0xA0 SHL SUB NOT DUP2 AND DUP4 OR DUP3 SSTORE PUSH1 0x1 PUSH1 0x1 PUSH1 0xA0 SHL SUB AND SWAP1 PUSH32 0x8BE0079C531659141344CD1FD0A4F28419497F9722A3DAAFE3B4186F6B6457E0 SWAP1 DUP1 LOG3 STOP JUMPDEST PUSH4 0x1E4FBDF7 PUSH1 0xE0 SHL PUSH1 0x0 MSTORE PUSH1 0x0 PUSH1 0x4 MSTORE PUSH1 0x24 PUSH1 0x0 REVERT JUMPDEST CALLVALUE PUSH2 0x16A JUMPI PUSH1 0x20 CALLDATASIZE PUSH1 0x3 NOT ADD SLT PUSH2 0x16A JUMPI PUSH1 0x4 CALLDATALOAD PUSH1 0x1 PUSH1 0x1 PUSH1 0xA0 SHL SUB DUP2 AND DUP1 DUP3 SUB PUSH2 0x16A JUMPI PUSH2 0x229 PUSH2 0x189D JUMP JUMPDEST PUSH2 0x231 PUSH2 0x185E JUMP JUMPDEST ISZERO PUSH2 0x39C JUMPI PUSH1 0x4 SLOAD DUP1 ISZERO PUSH2 0x36D JUMPI PUSH1 0x0 PUSH1 0x4 SWAP1 DUP2 SSTORE PUSH1 0x40 MLOAD PUSH4 0xA9059CBB PUSH1 0xE0 SHL DUP2 MSTORE PUSH1 0x1 PUSH1 0x1 PUSH1 0xA0 SHL SUB DUP5 AND SWAP2 DUP2 ADD SWAP2 SWAP1 SWAP2 MSTORE PUSH1 0x24 DUP2 ADD DUP3 SWAP1 MSTORE PUSH1 0x20 DUP2 DUP1 PUSH1 0x44 DUP2 ADD SUB DUP2 PUSH1 0x0 PUSH32 0x0 PUSH1 0x1 PUSH1 0x1 PUSH1 0xA0 SHL SUB AND GAS CALL SWAP1 DUP2 ISZERO PUSH2 0x361 JUMPI PUSH1 0x0 SWAP2 PUSH2 0x332 JUMPI JUMPDEST POP ISZERO PUSH2 0x2FB JUMPI PUSH1 0x40 DUP1 MLOAD PUSH1 0x1 PUSH1 0x1 PUSH1 0xA0 SHL SUB SWAP4 SWAP1 SWAP4 AND DUP4 MSTORE PUSH1 0x20 DUP4 ADD SWAP2 SWAP1 SWAP2 MSTORE PUSH32 0xFC7AD544FF6A06D6499925723D25B6FE70457A42939995B1D3D6F560FE336333 SWAP2 LOG1 PUSH1 0x1 DUP1 SSTORE STOP JUMPDEST PUSH1 0x40 MLOAD PUSH3 0x461BCD PUSH1 0xE5 SHL DUP2 MSTORE PUSH1 0x20 PUSH1 0x4 DUP3 ADD MSTORE PUSH1 0xF PUSH1 0x24 DUP3 ADD MSTORE PUSH15 0x1DDA5D1A191C985DCB59985A5B1959 PUSH1 0x8A SHL PUSH1 0x44 DUP3 ADD MSTORE PUSH1 0x64 SWAP1 REVERT JUMPDEST PUSH2 0x354 SWAP2 POP PUSH1 0x20 RETURNDATASIZE PUSH1 0x20 GT PUSH2 0x35A JUMPI JUMPDEST PUSH2 0x34C DUP2 DUP4 PUSH2 0x17E9 JUMP JUMPDEST DUP2 ADD SWAP1 PUSH2 0x1846 JUMP JUMPDEST DUP4 PUSH2 0x2B2 JUMP JUMPDEST POP RETURNDATASIZE PUSH2 0x342 JUMP JUMPDEST PUSH1 0x40 MLOAD RETURNDATASIZE PUSH1 0x0 DUP3 RETURNDATACOPY RETURNDATASIZE SWAP1 REVERT JUMPDEST PUSH1 0x40 MLOAD PUSH3 0x461BCD PUSH1 0xE5 SHL DUP2 MSTORE PUSH1 0x20 PUSH1 0x4 DUP3 ADD MSTORE PUSH1 0x7 PUSH1 0x24 DUP3 ADD MSTORE PUSH7 0x6E6F2066656573 PUSH1 0xC8 SHL PUSH1 0x44 DUP3 ADD MSTORE PUSH1 0x64 SWAP1 REVERT JUMPDEST PUSH1 0x40 MLOAD PUSH3 0x461BCD PUSH1 0xE5 SHL DUP2 MSTORE PUSH1 0x20 PUSH1 0x4 DUP3 ADD MSTORE PUSH1 0xF PUSH1 0x24 DUP3 ADD MSTORE PUSH15 0x696E76616C69642061646472657373 PUSH1 0x88 SHL PUSH1 0x44 DUP3 ADD MSTORE PUSH1 0x64 SWAP1 REVERT JUMPDEST CALLVALUE PUSH2 0x16A JUMPI PUSH1 0x20 CALLDATASIZE PUSH1 0x3 NOT ADD SLT PUSH2 0x16A JUMPI PUSH1 0x4 CALLDATALOAD PUSH2 0x3FF PUSH1 0x1 DUP1 PUSH1 0xA0 SHL SUB PUSH1 0x2 SLOAD PUSH1 0x8 SHR AND CALLER EQ PUSH2 0x1730 JUMP JUMPDEST PUSH2 0x407 PUSH2 0x185E JUMP JUMPDEST PUSH2 0x40F PUSH2 0x1880 JUMP JUMPDEST DUP1 PUSH1 0x0 MSTORE PUSH1 0x5 PUSH1 0x20 MSTORE PUSH1 0x40 PUSH1 0x0 KECCAK256 SWAP1 PUSH1 0x7 DUP3 ADD PUSH2 0x430 PUSH1 0xFF DUP3 SLOAD AND ISZERO PUSH2 0x176F JUMP JUMPDEST PUSH2 0x440 PUSH1 0x3 DUP5 ADD SLOAD TIMESTAMP LT ISZERO PUSH2 0x17A4 JUMP JUMPDEST PUSH1 0x1 PUSH1 0x6 DUP5 ADD SLOAD SUB PUSH2 0x627 JUMPI PUSH1 0x0 DUP3 DUP2 MSTORE PUSH1 0x8 PUSH1 0x20 MSTORE PUSH1 0x40 DUP2 KECCAK256 DUP1 SLOAD ISZERO PUSH2 0x613 JUMPI DUP2 MSTORE PUSH1 0x20 SWAP1 DUP2 SWAP1 KECCAK256 SLOAD PUSH1 0x0 DUP5 DUP2 MSTORE PUSH1 0x6 DUP4 MSTORE PUSH1 0x40 DUP1 DUP3 KECCAK256 DUP4 DUP4 MSTORE DUP5 MSTORE DUP1 DUP3 KECCAK256 SLOAD PUSH1 0x4 SWAP8 DUP9 ADD SLOAD SWAP2 MLOAD PUSH4 0xA9059CBB PUSH1 0xE0 SHL DUP2 MSTORE PUSH1 0x1 PUSH1 0x1 PUSH1 0xA0 SHL SUB SWAP1 SWAP2 AND SWAP8 DUP2 ADD SWAP8 SWAP1 SWAP8 MSTORE PUSH1 0x24 DUP8 ADD MSTORE SWAP5 SWAP1 SWAP2 DUP2 DUP1 PUSH1 0x44 DUP2 ADD SUB DUP2 DUP9 PUSH32 0x0 PUSH1 0x1 PUSH1 0x1 PUSH1 0xA0 SHL SUB AND GAS CALL SWAP1 DUP2 ISZERO PUSH2 0x608 JUMPI DUP6 SWAP2 PUSH2 0x5E9 JUMPI JUMPDEST POP ISZERO PUSH2 0x5B4 JUMPI DUP3 DUP5 MSTORE PUSH1 0x6 PUSH1 0x20 MSTORE PUSH1 0x40 DUP5 KECCAK256 DUP2 DUP6 MSTORE PUSH1 0x20 MSTORE PUSH1 0x40 DUP5 KECCAK256 PUSH12 0xFFFFFFFFFFFFFFFFFFFFFFFF PUSH1 0xA0 SHL DUP2 SLOAD AND SWAP1 SSTORE DUP3 DUP5 MSTORE PUSH1 0x7 PUSH1 0x20 MSTORE PUSH1 0x40 DUP5 KECCAK256 SWAP1 DUP5 MSTORE PUSH1 0x20 MSTORE PUSH1 0x40 DUP4 KECCAK256 PUSH1 0xFF NOT DUP2 SLOAD AND SWAP1 SSTORE DUP2 DUP4 MSTORE PUSH1 0x8 PUSH1 0x20 MSTORE PUSH1 0x40 DUP4 KECCAK256 DUP1 SLOAD SWAP1 DUP5 DUP2 SSTORE DUP2 PUSH2 0x596 JUMPI JUMPDEST DUP5 PUSH32 0x4F5BE5093383310C2EC5A4CADA25A72670734885840F655F42CDE6CEB2CCB228 PUSH1 0x20 DUP7 DUP7 PUSH1 0x1 PUSH1 0xFF NOT DUP3 SLOAD AND OR SWAP1 SSTORE PUSH1 0x40 MLOAD SWAP1 DUP2 MSTORE LOG1 PUSH1 0x1 DUP1 SSTORE DUP1 RETURN JUMPDEST DUP5 MSTORE PUSH1 0x20 DUP5 KECCAK256 SWAP1 DUP2 ADD SWAP1 JUMPDEST DUP2 DUP2 LT ISZERO PUSH2 0x557 JUMPI DUP5 DUP2 SSTORE PUSH1 0x1 ADD PUSH2 0x5A1 JUMP JUMPDEST PUSH1 0x40 MLOAD PUSH3 0x461BCD PUSH1 0xE5 SHL DUP2 MSTORE PUSH1 0x20 PUSH1 0x4 DUP3 ADD MSTORE PUSH1 0xD PUSH1 0x24 DUP3 ADD MSTORE PUSH13 0x1C99599D5B990B59985A5B1959 PUSH1 0x9A SHL PUSH1 0x44 DUP3 ADD MSTORE PUSH1 0x64 SWAP1 REVERT JUMPDEST PUSH2 0x602 SWAP2 POP PUSH1 0x20 RETURNDATASIZE PUSH1 0x20 GT PUSH2 0x35A JUMPI PUSH2 0x34C DUP2 DUP4 PUSH2 0x17E9 JUMP JUMPDEST DUP6 PUSH2 0x4F0 JUMP JUMPDEST PUSH1 0x40 MLOAD RETURNDATASIZE DUP8 DUP3 RETURNDATACOPY RETURNDATASIZE SWAP1 REVERT JUMPDEST PUSH4 0x4E487B71 PUSH1 0xE0 SHL DUP3 MSTORE PUSH1 0x32 PUSH1 0x4 MSTORE PUSH1 0x24 DUP3 REVERT JUMPDEST PUSH1 0x40 MLOAD PUSH3 0x461BCD PUSH1 0xE5 SHL DUP2 MSTORE PUSH1 0x20 PUSH1 0x4 DUP3 ADD MSTORE PUSH1 0x18 PUSH1 0x24 DUP3 ADD MSTORE PUSH32 0x726566756E64206F6E6C79207768656E203120656E7472790000000000000000 PUSH1 0x44 DUP3 ADD MSTORE PUSH1 0x64 SWAP1 REVERT JUMPDEST CALLVALUE PUSH2 0x16A JUMPI PUSH1 0x20 CALLDATASIZE PUSH1 0x3 NOT ADD SLT PUSH2 0x16A JUMPI PUSH1 0x4 CALLDATALOAD PUSH1 0x1 PUSH1 0x1 PUSH1 0xA0 SHL SUB DUP2 AND SWAP1 DUP2 DUP2 SUB PUSH2 0x16A JUMPI PUSH2 0x69A PUSH2 0x189D JUMP JUMPDEST DUP2 ISZERO PUSH2 0x701 JUMPI PUSH32 0xB21F1BF0D206B43EB02BE4F423C2788A95AFFBDA226125EAECABE3DEF8BA5C42 PUSH1 0x40 PUSH1 0x2 SLOAD SWAP4 DUP2 MLOAD SWAP1 PUSH1 0x1 DUP1 PUSH1 0xA0 SHL SUB DUP7 PUSH1 0x8 SHR AND DUP3 MSTORE PUSH1 0x20 DUP3 ADD MSTORE LOG1 PUSH2 0x100 PUSH1 0x1 PUSH1 0xA8 SHL SUB NOT SWAP1 SWAP2 AND PUSH1 0x8 SWAP2 SWAP1 SWAP2 SHL PUSH2 0x100 PUSH1 0x1 PUSH1 0xA8 SHL SUB AND OR PUSH1 0x2 SSTORE STOP JUMPDEST PUSH1 0x40 MLOAD PUSH3 0x461BCD PUSH1 0xE5 SHL DUP2 MSTORE PUSH1 0x20 PUSH1 0x4 DUP3 ADD MSTORE PUSH1 0xD PUSH1 0x24 DUP3 ADD MSTORE PUSH13 0x1A5B9D985B1A59081859D95B9D PUSH1 0x9A SHL PUSH1 0x44 DUP3 ADD MSTORE PUSH1 0x64 SWAP1 REVERT JUMPDEST CALLVALUE PUSH2 0x16A JUMPI PUSH1 0x0 CALLDATASIZE PUSH1 0x3 NOT ADD SLT PUSH2 0x16A JUMPI PUSH2 0x74F PUSH2 0x189D JUMP JUMPDEST PUSH1 0x2 SLOAD PUSH1 0xFF DUP2 AND ISZERO PUSH2 0x78E JUMPI PUSH1 0xFF NOT AND PUSH1 0x2 SSTORE PUSH32 0x5DB9EE0A495BF2E6FF9C91A7834C1BA4FDD244A5E8AA4E537BD38AEAE4B073AA PUSH1 0x20 PUSH1 0x40 MLOAD CALLER DUP2 MSTORE LOG1 STOP JUMPDEST PUSH4 0x8DFC202B PUSH1 0xE0 SHL PUSH1 0x0 MSTORE PUSH1 0x4 PUSH1 0x0 REVERT JUMPDEST CALLVALUE PUSH2 0x16A JUMPI PUSH2 0x7AD CALLDATASIZE PUSH2 0x16AF JUMP JUMPDEST SWAP1 PUSH1 0x0 MSTORE PUSH1 0x6 PUSH1 0x20 MSTORE PUSH1 0x40 PUSH1 0x0 KECCAK256 SWAP1 PUSH1 0x0 MSTORE PUSH1 0x20 MSTORE PUSH1 0x20 PUSH1 0x1 DUP1 PUSH1 0xA0 SHL SUB PUSH1 0x40 PUSH1 0x0 KECCAK256 SLOAD AND PUSH1 0x40 MLOAD SWAP1 DUP2 MSTORE RETURN JUMPDEST CALLVALUE PUSH2 0x16A JUMPI PUSH1 0x40 CALLDATASIZE PUSH1 0x3 NOT ADD SLT PUSH2 0x16A JUMPI PUSH1 0x4 CALLDATALOAD PUSH1 0x24 CALLDATALOAD PUSH8 0xFFFFFFFFFFFFFFFF DUP2 GT PUSH2 0x16A JUMPI CALLDATASIZE PUSH1 0x23 DUP3 ADD SLT ISZERO PUSH2 0x16A JUMPI DUP1 PUSH1 0x4 ADD CALLDATALOAD PUSH8 0xFFFFFFFFFFFFFFFF DUP2 GT PUSH2 0x16A JUMPI CALLDATASIZE PUSH1 0x24 DUP3 PUSH1 0x5 SHL DUP5 ADD ADD GT PUSH2 0x16A JUMPI PUSH2 0x836 PUSH2 0x185E JUMP JUMPDEST PUSH2 0x83E PUSH2 0x1880 JUMP JUMPDEST DUP1 ISZERO PUSH2 0xBC2 JUMPI DUP3 PUSH1 0x0 MSTORE PUSH1 0x5 PUSH1 0x20 MSTORE PUSH1 0x40 PUSH1 0x0 KECCAK256 SWAP2 DUP3 SLOAD ISZERO PUSH2 0xB91 JUMPI PUSH1 0xFF PUSH1 0x7 DUP5 ADD SLOAD PUSH2 0x86D DUP3 DUP3 AND ISZERO PUSH2 0x176F JUMP JUMPDEST PUSH1 0x8 SHR AND PUSH2 0xB63 JUMPI PUSH1 0x3 DUP4 ADD SLOAD TIMESTAMP LT ISZERO PUSH2 0xB36 JUMPI PUSH1 0x4 DUP4 ADD SLOAD SWAP3 DUP3 DUP5 MUL SWAP4 DUP1 DUP6 DIV DUP5 EQ SWAP1 ISZERO OR ISZERO PUSH2 0xB20 JUMPI PUSH1 0x40 MLOAD PUSH4 0x23B872DD PUSH1 0xE0 SHL DUP2 MSTORE CALLER PUSH1 0x4 DUP3 ADD MSTORE ADDRESS PUSH1 0x24 DUP3 ADD MSTORE PUSH1 0x44 DUP2 ADD DUP6 SWAP1 MSTORE PUSH1 0x20 DUP2 PUSH1 0x64 DUP2 PUSH1 0x0 PUSH32 0x0 PUSH1 0x1 PUSH1 0x1 PUSH1 0xA0 SHL SUB AND GAS CALL SWAP1 DUP2 ISZERO PUSH2 0x361 JUMPI PUSH1 0x0 SWAP2 PUSH2 0xB01 JUMPI JUMPDEST POP ISZERO PUSH2 0xACA JUMPI SWAP2 SWAP3 PUSH1 0x1 DUP4 ADD SWAP3 SWAP1 PUSH1 0x0 JUMPDEST DUP6 DUP2 LT ISZERO PUSH2 0xAA0 JUMPI PUSH1 0x0 PUSH1 0x24 DUP3 PUSH1 0x5 SHL DUP7 ADD ADD CALLDATALOAD SWAP1 DUP7 SLOAD DUP3 LT ISZERO DUP1 PUSH2 0xA92 JUMPI JUMPDEST ISZERO PUSH2 0xA5E JUMPI DUP9 DUP2 MSTORE PUSH1 0x7 PUSH1 0x20 MSTORE PUSH1 0x40 DUP2 KECCAK256 DUP3 DUP3 MSTORE PUSH1 0x20 MSTORE PUSH1 0xFF PUSH1 0x40 DUP3 KECCAK256 SLOAD AND PUSH2 0xA31 JUMPI DUP9 DUP2 MSTORE PUSH1 0x7 PUSH1 0x20 MSTORE PUSH1 0x40 DUP2 KECCAK256 DUP3 DUP3 MSTORE PUSH1 0x20 MSTORE PUSH1 0x40 DUP2 KECCAK256 PUSH1 0x1 PUSH1 0xFF NOT DUP3 SLOAD AND OR SWAP1 SSTORE DUP9 DUP2 MSTORE PUSH1 0x6 PUSH1 0x20 MSTORE PUSH1 0x40 DUP2 KECCAK256 DUP3 DUP3 MSTORE PUSH1 0x20 MSTORE PUSH1 0x40 DUP2 KECCAK256 CALLER PUSH12 0xFFFFFFFFFFFFFFFFFFFFFFFF PUSH1 0xA0 SHL DUP3 SLOAD AND OR SWAP1 SSTORE DUP9 DUP2 MSTORE PUSH1 0x8 PUSH1 0x20 MSTORE PUSH1 0x40 DUP2 KECCAK256 DUP1 SLOAD SWAP2 PUSH1 0x1 PUSH1 0x40 SHL DUP4 LT ISZERO PUSH2 0xA1D JUMPI POP PUSH1 0x1 SWAP4 SWAP3 PUSH2 0x9EF DUP4 PUSH1 0x60 SWAP4 DUP8 PUSH32 0x373A96A13BF6138B98BB34A767ECEBDE6ED77916085685C78EFFB698238B12FA SWAP7 ADD DUP2 SSTORE PUSH2 0x1702 JUMP JUMPDEST DUP2 SLOAD SWAP1 PUSH1 0x3 SHL SWAP1 DUP4 DUP3 SHL SWAP2 PUSH1 0x0 NOT SWAP1 SHL NOT AND OR SWAP1 SSTORE PUSH1 0x40 MLOAD SWAP1 DUP12 DUP3 MSTORE PUSH1 0x20 DUP3 ADD MSTORE CALLER PUSH1 0x40 DUP3 ADD MSTORE LOG1 ADD PUSH2 0x90C JUMP JUMPDEST PUSH4 0x4E487B71 PUSH1 0xE0 SHL DUP2 MSTORE PUSH1 0x41 PUSH1 0x4 MSTORE PUSH1 0x24 SWAP1 REVERT JUMPDEST PUSH1 0x40 MLOAD PUSH3 0x461BCD PUSH1 0xE5 SHL DUP2 MSTORE PUSH1 0x20 PUSH1 0x4 DUP3 ADD MSTORE PUSH1 0x5 PUSH1 0x24 DUP3 ADD MSTORE PUSH5 0x3A30B5B2B7 PUSH1 0xD9 SHL PUSH1 0x44 DUP3 ADD MSTORE PUSH1 0x64 SWAP1 REVERT JUMPDEST PUSH1 0x40 MLOAD PUSH3 0x461BCD PUSH1 0xE5 SHL DUP2 MSTORE PUSH1 0x20 PUSH1 0x4 DUP3 ADD MSTORE PUSH1 0xC PUSH1 0x24 DUP3 ADD MSTORE PUSH12 0x6F75742D6F662D72616E6765 PUSH1 0xA0 SHL PUSH1 0x44 DUP3 ADD MSTORE PUSH1 0x64 SWAP1 REVERT JUMPDEST POP PUSH1 0x2 DUP6 ADD SLOAD DUP3 GT ISZERO PUSH2 0x92C JUMP JUMPDEST POP PUSH2 0xAC2 PUSH1 0x5 DUP4 DUP8 PUSH2 0xAB7 PUSH1 0x6 DUP4 ADD SWAP2 DUP3 SLOAD PUSH2 0x17DC JUMP JUMPDEST SWAP1 SSTORE ADD SWAP2 DUP3 SLOAD PUSH2 0x17DC JUMP JUMPDEST SWAP1 SSTORE PUSH1 0x1 DUP1 SSTORE STOP JUMPDEST PUSH1 0x40 MLOAD PUSH3 0x461BCD PUSH1 0xE5 SHL DUP2 MSTORE PUSH1 0x20 PUSH1 0x4 DUP3 ADD MSTORE PUSH1 0xF PUSH1 0x24 DUP3 ADD MSTORE PUSH15 0x1D1C985B9CD9995C8B59985A5B1959 PUSH1 0x8A SHL PUSH1 0x44 DUP3 ADD MSTORE PUSH1 0x64 SWAP1 REVERT JUMPDEST PUSH2 0xB1A SWAP2 POP PUSH1 0x20 RETURNDATASIZE PUSH1 0x20 GT PUSH2 0x35A JUMPI PUSH2 0x34C DUP2 DUP4 PUSH2 0x17E9 JUMP JUMPDEST DUP7 PUSH2 0x8FB JUMP JUMPDEST PUSH4 0x4E487B71 PUSH1 0xE0 SHL PUSH1 0x0 MSTORE PUSH1 0x11 PUSH1 0x4 MSTORE PUSH1 0x24 PUSH1 0x0 REVERT JUMPDEST PUSH1 0x40 MLOAD PUSH3 0x461BCD PUSH1 0xE5 SHL DUP2 MSTORE PUSH1 0x20 PUSH1 0x4 DUP3 ADD MSTORE PUSH1 0x5 PUSH1 0x24 DUP3 ADD MSTORE PUSH5 0x195B991959 PUSH1 0xDA SHL PUSH1 0x44 DUP3 ADD MSTORE PUSH1 0x64 SWAP1 REVERT JUMPDEST PUSH1 0x40 MLOAD PUSH3 0x461BCD PUSH1 0xE5 SHL DUP2 MSTORE PUSH1 0x20 PUSH1 0x4 DUP3 ADD MSTORE PUSH1 0x6 PUSH1 0x24 DUP3 ADD MSTORE PUSH6 0x1C185D5CD959 PUSH1 0xD2 SHL PUSH1 0x44 DUP3 ADD MSTORE PUSH1 0x64 SWAP1 REVERT JUMPDEST PUSH1 0x40 MLOAD PUSH3 0x461BCD PUSH1 0xE5 SHL DUP2 MSTORE PUSH1 0x20 PUSH1 0x4 DUP3 ADD MSTORE PUSH1 0x9 PUSH1 0x24 DUP3 ADD MSTORE PUSH9 0x1B9BDD0B595E1A5CDD PUSH1 0xBA SHL PUSH1 0x44 DUP3 ADD MSTORE PUSH1 0x64 SWAP1 REVERT JUMPDEST PUSH1 0x40 MLOAD PUSH3 0x461BCD PUSH1 0xE5 SHL DUP2 MSTORE PUSH1 0x20 PUSH1 0x4 DUP3 ADD MSTORE PUSH1 0xA PUSH1 0x24 DUP3 ADD MSTORE PUSH10 0x6E6F206E756D62657273 PUSH1 0xB0 SHL PUSH1 0x44 DUP3 ADD MSTORE PUSH1 0x64 SWAP1 REVERT JUMPDEST CALLVALUE PUSH2 0x16A JUMPI PUSH1 0x0 CALLDATASIZE PUSH1 0x3 NOT ADD SLT PUSH2 0x16A JUMPI PUSH1 0x20 PUSH1 0x3 SLOAD PUSH1 0x40 MLOAD SWAP1 DUP2 MSTORE RETURN JUMPDEST CALLVALUE PUSH2 0x16A JUMPI PUSH1 0x0 CALLDATASIZE PUSH1 0x3 NOT ADD SLT PUSH2 0x16A JUMPI PUSH1 0x20 PUSH1 0x40 MLOAD PUSH1 0x64 DUP2 MSTORE RETURN JUMPDEST CALLVALUE PUSH2 0x16A JUMPI PUSH1 0x0 CALLDATASIZE PUSH1 0x3 NOT ADD SLT PUSH2 0x16A JUMPI PUSH1 0x0 SLOAD PUSH1 0x40 MLOAD PUSH1 0x1 PUSH1 0x1 PUSH1 0xA0 SHL SUB SWAP1 SWAP2 AND DUP2 MSTORE PUSH1 0x20 SWAP1 RETURN JUMPDEST CALLVALUE PUSH2 0x16A JUMPI PUSH1 0x0 CALLDATASIZE PUSH1 0x3 NOT ADD SLT PUSH2 0x16A JUMPI PUSH2 0xC70 PUSH2 0x189D JUMP JUMPDEST PUSH1 0x0 DUP1 SLOAD PUSH1 0x1 PUSH1 0x1 PUSH1 0xA0 SHL SUB NOT DUP2 AND DUP3 SSTORE PUSH1 0x1 PUSH1 0x1 PUSH1 0xA0 SHL SUB AND PUSH32 0x8BE0079C531659141344CD1FD0A4F28419497F9722A3DAAFE3B4186F6B6457E0 DUP3 DUP1 LOG3 STOP JUMPDEST CALLVALUE PUSH2 0x16A JUMPI PUSH1 0x20 CALLDATASIZE PUSH1 0x3 NOT ADD SLT PUSH2 0x16A JUMPI PUSH1 0x4 CALLDATALOAD PUSH1 0x0 MSTORE PUSH1 0x8 PUSH1 0x20 MSTORE PUSH1 0x40 PUSH1 0x0 KECCAK256 PUSH1 0x40 MLOAD DUP1 PUSH1 0x20 DUP4 SLOAD SWAP2 DUP3 DUP2 MSTORE ADD SWAP1 DUP2 SWAP4 PUSH1 0x0 MSTORE PUSH1 0x20 PUSH1 0x0 KECCAK256 SWAP1 PUSH1 0x0 JUMPDEST DUP2 DUP2 LT PUSH2 0xD46 JUMPI POP POP POP DUP2 PUSH2 0xD03 SWAP2 SUB DUP3 PUSH2 0x17E9 JUMP JUMPDEST PUSH1 0x40 MLOAD SWAP2 DUP3 SWAP2 PUSH1 0x20 DUP4 ADD SWAP1 PUSH1 0x20 DUP5 MSTORE MLOAD DUP1 SWAP2 MSTORE PUSH1 0x40 DUP4 ADD SWAP2 SWAP1 PUSH1 0x0 JUMPDEST DUP2 DUP2 LT PUSH2 0xD2D JUMPI POP POP POP SUB SWAP1 RETURN JUMPDEST DUP3 MLOAD DUP5 MSTORE DUP6 SWAP5 POP PUSH1 0x20 SWAP4 DUP5 ADD SWAP4 SWAP1 SWAP3 ADD SWAP2 PUSH1 0x1 ADD PUSH2 0xD1F JUMP JUMPDEST DUP3 SLOAD DUP5 MSTORE PUSH1 0x20 SWAP1 SWAP4 ADD SWAP3 PUSH1 0x1 SWAP3 DUP4 ADD SWAP3 ADD PUSH2 0xCED JUMP JUMPDEST CALLVALUE PUSH2 0x16A JUMPI PUSH2 0xD6A CALLDATASIZE PUSH2 0x16AF JUMP JUMPDEST SWAP1 PUSH1 0x0 MSTORE PUSH1 0x8 PUSH1 0x20 MSTORE PUSH1 0x40 PUSH1 0x0 KECCAK256 DUP1 SLOAD DUP3 LT ISZERO PUSH2 0x16A JUMPI PUSH1 0x20 SWAP2 PUSH2 0xD8D SWAP2 PUSH2 0x1702 JUMP JUMPDEST SWAP1 SLOAD SWAP1 PUSH1 0x3 SHL SHR PUSH1 0x40 MLOAD SWAP1 DUP2 MSTORE RETURN JUMPDEST CALLVALUE PUSH2 0x16A JUMPI PUSH1 0x20 CALLDATASIZE PUSH1 0x3 NOT ADD SLT PUSH2 0x16A JUMPI PUSH32 0x59AE418981AE00500624DCA49FA8395D59A12E54CC5AF94604258B6402CFB004 PUSH1 0x20 PUSH1 0x4 CALLDATALOAD PUSH2 0xDDB PUSH2 0x189D JUMP JUMPDEST DUP1 PUSH1 0x0 MSTORE PUSH1 0x5 DUP3 MSTORE PUSH1 0x7 PUSH1 0x40 PUSH1 0x0 KECCAK256 ADD PUSH2 0x100 PUSH2 0xFF00 NOT DUP3 SLOAD AND OR SWAP1 SSTORE PUSH1 0x40 MLOAD SWAP1 DUP2 MSTORE LOG1 STOP JUMPDEST CALLVALUE PUSH2 0x16A JUMPI PUSH1 0x20 CALLDATASIZE PUSH1 0x3 NOT ADD SLT PUSH2 0x16A JUMPI PUSH1 0x4 CALLDATALOAD PUSH1 0x0 MSTORE PUSH1 0x5 PUSH1 0x20 MSTORE PUSH2 0x120 PUSH1 0x40 PUSH1 0x0 KECCAK256 PUSH1 0xFF DUP2 SLOAD SWAP2 PUSH1 0x1 DUP2 ADD SLOAD SWAP1 PUSH1 0x2 DUP2 ADD SLOAD PUSH1 0x3 DUP3 ADD SLOAD PUSH1 0x4 DUP4 ADD SLOAD SWAP1 PUSH1 0x5 DUP5 ADD SLOAD SWAP3 PUSH1 0x7 PUSH1 0x6 DUP7 ADD SLOAD SWAP6 ADD SLOAD SWAP6 PUSH1 0x40 MLOAD SWAP9 DUP10 MSTORE PUSH1 0x20 DUP10 ADD MSTORE PUSH1 0x40 DUP9 ADD MSTORE PUSH1 0x60 DUP8 ADD MSTORE PUSH1 0x80 DUP7 ADD MSTORE PUSH1 0xA0 DUP6 ADD MSTORE PUSH1 0xC0 DUP5 ADD MSTORE DUP2 DUP2 AND ISZERO ISZERO PUSH1 0xE0 DUP5 ADD MSTORE PUSH1 0x8 SHR AND ISZERO ISZERO PUSH2 0x100 DUP3 ADD MSTORE RETURN JUMPDEST CALLVALUE PUSH2 0x16A JUMPI PUSH1 0x0 CALLDATASIZE PUSH1 0x3 NOT ADD SLT PUSH2 0x16A JUMPI PUSH1 0x20 PUSH1 0xFF PUSH1 0x2 SLOAD AND PUSH1 0x40 MLOAD SWAP1 ISZERO ISZERO DUP2 MSTORE RETURN JUMPDEST CALLVALUE PUSH2 0x16A JUMPI PUSH1 0x0 CALLDATASIZE PUSH1 0x3 NOT ADD SLT PUSH2 0x16A JUMPI PUSH1 0x20 PUSH1 0x4 SLOAD PUSH1 0x40 MLOAD SWAP1 DUP2 MSTORE RETURN JUMPDEST CALLVALUE PUSH2 0x16A JUMPI PUSH1 0x20 CALLDATASIZE PUSH1 0x3 NOT ADD SLT PUSH2 0x16A JUMPI PUSH32 0x88D20D5EA9EABA2406719D2E3E97A5BA16FB0748F87067B5D315FFA7ED7A0101 PUSH1 0x20 PUSH1 0x4 CALLDATALOAD PUSH2 0xF0D PUSH2 0x189D JUMP JUMPDEST DUP1 PUSH1 0x0 MSTORE PUSH1 0x5 DUP3 MSTORE PUSH1 0x7 PUSH1 0x40 PUSH1 0x0 KECCAK256 ADD PUSH2 0xFF00 NOT DUP2 SLOAD AND SWAP1 SSTORE PUSH1 0x40 MLOAD SWAP1 DUP2 MSTORE LOG1 STOP JUMPDEST CALLVALUE PUSH2 0x16A JUMPI PUSH1 0x20 CALLDATASIZE PUSH1 0x3 NOT ADD SLT PUSH2 0x16A JUMPI PUSH1 0x4 CALLDATALOAD PUSH1 0x0 MSTORE PUSH1 0x5 PUSH1 0x20 MSTORE PUSH1 0x8 PUSH1 0x40 PUSH1 0x0 KECCAK256 ADD PUSH1 0x40 MLOAD SWAP1 DUP2 PUSH1 0x20 DUP3 SLOAD SWAP2 DUP3 DUP2 MSTORE ADD SWAP2 PUSH1 0x0 MSTORE PUSH1 0x20 PUSH1 0x0 KECCAK256 SWAP1 PUSH1 0x0 JUMPDEST DUP2 DUP2 LT PUSH2 0xF9D JUMPI PUSH2 0xF99 DUP6 PUSH2 0xF85 DUP2 DUP8 SUB DUP3 PUSH2 0x17E9 JUMP JUMPDEST PUSH1 0x40 MLOAD SWAP2 DUP3 SWAP2 PUSH1 0x20 DUP4 MSTORE PUSH1 0x20 DUP4 ADD SWAP1 PUSH2 0x16C5 JUMP JUMPDEST SUB SWAP1 RETURN JUMPDEST DUP3 SLOAD PUSH1 0x1 PUSH1 0x1 PUSH1 0xA0 SHL SUB AND DUP5 MSTORE PUSH1 0x20 SWAP1 SWAP4 ADD SWAP3 PUSH1 0x1 SWAP3 DUP4 ADD SWAP3 ADD PUSH2 0xF6E JUMP JUMPDEST CALLVALUE PUSH2 0x16A JUMPI PUSH1 0x0 CALLDATASIZE PUSH1 0x3 NOT ADD SLT PUSH2 0x16A JUMPI PUSH2 0xFD5 PUSH2 0x189D JUMP JUMPDEST PUSH2 0xFDD PUSH2 0x1880 JUMP JUMPDEST PUSH1 0x1 PUSH1 0xFF NOT PUSH1 0x2 SLOAD AND OR PUSH1 0x2 SSTORE PUSH32 0x62E78CEA01BEE320CD4E420270B5EA74000D11B0C9F74754EBDBFC544B05A258 PUSH1 0x20 PUSH1 0x40 MLOAD CALLER DUP2 MSTORE LOG1 STOP JUMPDEST CALLVALUE PUSH2 0x16A JUMPI PUSH1 0x80 CALLDATASIZE PUSH1 0x3 NOT ADD SLT PUSH2 0x16A JUMPI PUSH1 0x4 CALLDATALOAD PUSH1 0x24 CALLDATALOAD PUSH1 0x64 CALLDATALOAD PUSH1 0x44 CALLDATALOAD PUSH2 0x103B PUSH2 0x189D JUMP JUMPDEST PUSH2 0x1043 PUSH2 0x1880 JUMP JUMPDEST DUP4 DUP4 LT PUSH2 0x1144 JUMPI TIMESTAMP DUP3 GT ISZERO PUSH2 0x110E JUMPI DUP1 ISZERO PUSH2 0x10DD JUMPI PUSH1 0x20 SWAP4 PUSH32 0xFCC13AAAF4660281E2662AE91069E5F95CC7863D25A6A68E620806A99354FA1A SWAP3 DUP3 PUSH1 0xA0 SWAP4 PUSH1 0x4 PUSH2 0x108E PUSH1 0x3 SLOAD PUSH2 0x1837 JUMP JUMPDEST DUP1 PUSH1 0x3 SSTORE DUP1 PUSH1 0x0 MSTORE PUSH1 0x5 DUP11 MSTORE PUSH1 0x40 PUSH1 0x0 KECCAK256 SWAP1 DUP2 SSTORE DUP6 PUSH1 0x1 DUP3 ADD SSTORE DUP9 PUSH1 0x2 DUP3 ADD SSTORE DUP5 PUSH1 0x3 DUP3 ADD SSTORE ADD SSTORE PUSH1 0x3 SLOAD SWAP6 PUSH1 0x40 MLOAD SWAP4 DUP8 DUP6 MSTORE DUP9 DUP6 ADD MSTORE PUSH1 0x40 DUP5 ADD MSTORE PUSH1 0x60 DUP4 ADD MSTORE PUSH1 0x80 DUP3 ADD MSTORE LOG1 PUSH1 0x40 MLOAD SWAP1 DUP2 MSTORE RETURN JUMPDEST PUSH1 0x40 MLOAD PUSH3 0x461BCD PUSH1 0xE5 SHL DUP2 MSTORE PUSH1 0x20 PUSH1 0x4 DUP3 ADD MSTORE PUSH1 0x9 PUSH1 0x24 DUP3 ADD MSTORE PUSH9 0x7072696365203E203 PUSH1 0xBC SHL PUSH1 0x44 DUP3 ADD MSTORE PUSH1 0x64 SWAP1 REVERT JUMPDEST PUSH1 0x40 MLOAD PUSH3 0x461BCD PUSH1 0xE5 SHL DUP2 MSTORE PUSH1 0x20 PUSH1 0x4 DUP3 ADD MSTORE PUSH1 0xE PUSH1 0x24 DUP3 ADD MSTORE PUSH14 0x6D75737420626520667574757265 PUSH1 0x90 SHL PUSH1 0x44 DUP3 ADD MSTORE PUSH1 0x64 SWAP1 REVERT JUMPDEST PUSH1 0x40 MLOAD PUSH3 0x461BCD PUSH1 0xE5 SHL DUP2 MSTORE PUSH1 0x20 PUSH1 0x4 DUP3 ADD MSTORE PUSH1 0xD PUSH1 0x24 DUP3 ADD MSTORE PUSH13 0x696E76616C69642072616E6765 PUSH1 0x98 SHL PUSH1 0x44 DUP3 ADD MSTORE PUSH1 0x64 SWAP1 REVERT JUMPDEST CALLVALUE PUSH2 0x16A JUMPI PUSH2 0x1187 CALLDATASIZE PUSH2 0x16AF JUMP JUMPDEST SWAP1 PUSH1 0x0 MSTORE PUSH1 0x7 PUSH1 0x20 MSTORE PUSH1 0x40 PUSH1 0x0 KECCAK256 SWAP1 PUSH1 0x0 MSTORE PUSH1 0x20 MSTORE PUSH1 0x20 PUSH1 0xFF PUSH1 0x40 PUSH1 0x0 KECCAK256 SLOAD AND PUSH1 0x40 MLOAD SWAP1 ISZERO ISZERO DUP2 MSTORE RETURN JUMPDEST CALLVALUE PUSH2 0x16A JUMPI PUSH1 0x20 CALLDATASIZE PUSH1 0x3 NOT ADD SLT PUSH2 0x16A JUMPI PUSH1 0x4 CALLDATALOAD PUSH2 0x11DD PUSH1 0x1 DUP1 PUSH1 0xA0 SHL SUB PUSH1 0x2 SLOAD PUSH1 0x8 SHR AND CALLER EQ PUSH2 0x1730 JUMP JUMPDEST PUSH2 0x11E5 PUSH2 0x185E JUMP JUMPDEST PUSH2 0x11ED PUSH2 0x1880 JUMP JUMPDEST DUP1 PUSH1 0x0 MSTORE PUSH1 0x5 PUSH1 0x20 MSTORE PUSH1 0x40 PUSH1 0x0 KECCAK256 PUSH1 0x7 DUP2 ADD SWAP2 PUSH2 0x120E PUSH1 0xFF DUP5 SLOAD AND ISZERO PUSH2 0x176F JUMP JUMPDEST PUSH2 0x121E PUSH1 0x3 DUP4 ADD SLOAD TIMESTAMP LT ISZERO PUSH2 0x17A4 JUMP JUMPDEST PUSH1 0x6 DUP3 ADD SLOAD PUSH1 0x1 DUP2 EQ PUSH2 0x15E7 JUMPI PUSH1 0x2 DUP2 LT PUSH2 0x15B0 JUMPI PUSH1 0xA DUP2 DIV SWAP4 DUP5 ISZERO PUSH2 0x15A7 JUMPI JUMPDEST DUP3 PUSH1 0x0 MSTORE PUSH1 0x8 PUSH1 0x20 MSTORE PUSH1 0x40 PUSH1 0x0 KECCAK256 SWAP2 DUP3 SLOAD SUB PUSH2 0x1572 JUMPI PUSH1 0x5 DUP5 ADD SWAP2 DUP3 SLOAD PUSH1 0x64 DUP2 MUL SWAP1 DUP1 DUP3 DIV PUSH1 0x64 EQ SWAP1 ISZERO OR ISZERO PUSH2 0xB20 JUMPI PUSH2 0x2710 SWAP1 DIV SWAP3 PUSH2 0x1281 DUP5 PUSH1 0x4 SLOAD PUSH2 0x17DC JUMP JUMPDEST PUSH1 0x4 SSTORE SLOAD SWAP3 DUP4 SUB SWAP3 DUP4 GT PUSH2 0xB20 JUMPI DUP6 ISZERO PUSH2 0x155C JUMPI SWAP5 SWAP4 DUP5 DUP4 DIV SWAP5 PUSH2 0x12A4 DUP2 PUSH2 0x180B JUMP JUMPDEST SWAP6 PUSH2 0x12B2 PUSH1 0x40 MLOAD SWAP8 DUP9 PUSH2 0x17E9 JUMP JUMPDEST DUP2 DUP8 MSTORE PUSH1 0x1F NOT PUSH2 0x12C1 DUP4 PUSH2 0x180B JUMP JUMPDEST ADD CALLDATASIZE PUSH1 0x20 DUP10 ADD CALLDATACOPY DUP8 SLOAD SWAP1 PUSH2 0x12D4 DUP3 PUSH2 0x180B JUMP JUMPDEST SWAP2 PUSH2 0x12E2 PUSH1 0x40 MLOAD SWAP4 DUP5 PUSH2 0x17E9 JUMP JUMPDEST DUP1 DUP4 MSTORE PUSH2 0x12F1 PUSH1 0x1F NOT SWAP2 PUSH2 0x180B JUMP JUMPDEST ADD CALLDATASIZE PUSH1 0x20 DUP5 ADD CALLDATACOPY CALLER PUSH1 0x60 SHL SWAP9 PUSH1 0x0 SWAP5 PUSH1 0x8 ADD SWAP3 PUSH32 0x0 PUSH1 0x1 PUSH1 0x1 PUSH1 0xA0 SHL SUB AND SWAP2 DUP7 JUMPDEST DUP7 DUP2 LT PUSH2 0x1393 JUMPI PUSH32 0x77CF96C3480E3074CF8F30803B5564056C8C5A6D53043F4EBFF6094F89AE7C5D DUP13 DUP13 DUP13 DUP13 PUSH1 0x1 PUSH1 0xFF NOT DUP3 SLOAD AND OR SWAP1 SSTORE PUSH2 0x1384 PUSH1 0x40 MLOAD SWAP4 DUP5 SWAP4 DUP5 MSTORE PUSH1 0x60 PUSH1 0x20 DUP6 ADD MSTORE PUSH1 0x60 DUP5 ADD SWAP1 PUSH2 0x16C5 JUMP JUMPDEST SWAP1 PUSH1 0x40 DUP4 ADD MSTORE SUB SWAP1 LOG1 PUSH1 0x1 DUP1 SSTORE STOP JUMPDEST DUP13 PUSH1 0x40 MLOAD PUSH1 0x20 DUP2 ADD SWAP2 TIMESTAMP DUP4 MSTORE PREVRANDAO PUSH1 0x40 DUP4 ADD MSTORE PUSH1 0x60 DUP3 ADD MSTORE DUP10 PUSH1 0x74 DUP3 ADD MSTORE DUP13 PUSH1 0x94 DUP3 ADD MSTORE PUSH1 0x94 DUP2 MSTORE PUSH2 0x13C5 PUSH1 0xB4 DUP3 PUSH2 0x17E9 JUMP JUMPDEST MLOAD SWAP1 KECCAK256 DUP3 SLOAD SWAP1 DUP2 ISZERO PUSH2 0x155C JUMPI MOD PUSH2 0x13DC DUP2 DUP6 PUSH2 0x1823 JUMP JUMPDEST MLOAD PUSH2 0x1551 JUMPI DUP1 PUSH1 0x1 PUSH2 0x13F1 PUSH2 0x13F8 SWAP4 DUP8 PUSH2 0x1823 JUMP JUMPDEST MSTORE DUP4 PUSH2 0x1702 JUMP JUMPDEST SWAP1 SLOAD SWAP1 PUSH1 0x3 SHL SHR DUP12 PUSH1 0x0 MSTORE PUSH1 0x6 PUSH1 0x20 MSTORE PUSH1 0x40 PUSH1 0x0 KECCAK256 SWAP1 PUSH1 0x0 MSTORE PUSH1 0x20 MSTORE PUSH1 0x1 DUP1 PUSH1 0xA0 SHL SUB PUSH1 0x40 PUSH1 0x0 KECCAK256 SLOAD AND DUP13 DUP2 ISZERO PUSH2 0x153F JUMPI PUSH2 0x1434 DUP4 DUP4 SWAP3 PUSH2 0x1823 JUMP JUMPDEST MSTORE DUP7 SLOAD SWAP1 PUSH1 0x1 PUSH1 0x40 SHL DUP3 LT ISZERO PUSH2 0x1529 JUMPI DUP7 PUSH1 0x20 SWAP2 PUSH2 0x145B DUP5 PUSH1 0x1 PUSH2 0x14A2 SWAP7 ADD DUP13 SSTORE DUP12 PUSH2 0x1702 JUMP JUMPDEST DUP2 SLOAD PUSH1 0x1 PUSH1 0x1 PUSH1 0xA0 SHL SUB PUSH1 0x3 SWAP3 SWAP1 SWAP3 SHL DUP3 DUP2 SHL NOT SWAP1 SWAP2 AND SWAP1 DUP5 SWAP1 SHL OR SWAP1 SWAP2 SSTORE PUSH1 0x40 MLOAD PUSH4 0xA9059CBB PUSH1 0xE0 SHL DUP2 MSTORE SWAP2 AND PUSH1 0x4 DUP3 ADD MSTORE PUSH1 0x24 DUP2 ADD SWAP2 SWAP1 SWAP2 MSTORE SWAP2 DUP3 SWAP1 DUP2 SWAP1 PUSH1 0x44 DUP3 ADD SWAP1 JUMP JUMPDEST SUB DUP2 PUSH1 0x0 DUP10 GAS CALL SWAP1 DUP2 ISZERO PUSH2 0x361 JUMPI PUSH1 0x0 SWAP2 PUSH2 0x150B JUMPI JUMPDEST POP ISZERO PUSH2 0x14D9 JUMPI PUSH2 0x14CA PUSH2 0x14D0 SWAP2 PUSH2 0x1837 JUMP JUMPDEST SWAP8 PUSH2 0x1837 JUMP JUMPDEST SWAP6 JUMPDEST SWAP6 SWAP7 PUSH2 0x1331 JUMP JUMPDEST PUSH1 0x40 MLOAD PUSH3 0x461BCD PUSH1 0xE5 SHL DUP2 MSTORE PUSH1 0x20 PUSH1 0x4 DUP3 ADD MSTORE PUSH1 0xA PUSH1 0x24 DUP3 ADD MSTORE PUSH10 0x1C185E4B59985A5B1959 PUSH1 0xB2 SHL PUSH1 0x44 DUP3 ADD MSTORE PUSH1 0x64 SWAP1 REVERT JUMPDEST PUSH2 0x1523 SWAP2 POP PUSH1 0x20 RETURNDATASIZE DUP2 GT PUSH2 0x35A JUMPI PUSH2 0x34C DUP2 DUP4 PUSH2 0x17E9 JUMP JUMPDEST DUP15 PUSH2 0x14B8 JUMP JUMPDEST PUSH4 0x4E487B71 PUSH1 0xE0 SHL PUSH1 0x0 MSTORE PUSH1 0x41 PUSH1 0x4 MSTORE PUSH1 0x24 PUSH1 0x0 REVERT JUMPDEST POP POP SWAP7 PUSH2 0x154B SWAP1 PUSH2 0x1837 JUMP JUMPDEST SWAP6 PUSH2 0x14D2 JUMP JUMPDEST POP SWAP7 PUSH2 0x154B SWAP1 PUSH2 0x1837 JUMP JUMPDEST PUSH4 0x4E487B71 PUSH1 0xE0 SHL PUSH1 0x0 MSTORE PUSH1 0x12 PUSH1 0x4 MSTORE PUSH1 0x24 PUSH1 0x0 REVERT JUMPDEST PUSH1 0x40 MLOAD PUSH3 0x461BCD PUSH1 0xE5 SHL DUP2 MSTORE PUSH1 0x20 PUSH1 0x4 DUP3 ADD MSTORE PUSH1 0xD PUSH1 0x24 DUP3 ADD MSTORE PUSH13 0xE0DEDED840DAD2E6DAC2E8C6D PUSH1 0x9B SHL PUSH1 0x44 DUP3 ADD MSTORE PUSH1 0x64 SWAP1 REVERT JUMPDEST PUSH1 0x1 SWAP5 POP PUSH2 0x123F JUMP JUMPDEST PUSH1 0x40 MLOAD PUSH3 0x461BCD PUSH1 0xE5 SHL DUP2 MSTORE PUSH1 0x20 PUSH1 0x4 DUP3 ADD MSTORE PUSH1 0xF PUSH1 0x24 DUP3 ADD MSTORE PUSH15 0x6E6F207061727469636970616E7473 PUSH1 0x88 SHL PUSH1 0x44 DUP3 ADD MSTORE PUSH1 0x64 SWAP1 REVERT JUMPDEST PUSH1 0x40 MLOAD PUSH3 0x461BCD PUSH1 0xE5 SHL DUP2 MSTORE PUSH1 0x20 PUSH1 0x4 DUP3 ADD MSTORE PUSH1 0x23 PUSH1 0x24 DUP3 ADD MSTORE PUSH32 0x75736520726566756E64526166666C65282920666F72203120656E747279206F PUSH1 0x44 DUP3 ADD MSTORE PUSH3 0x6E6C79 PUSH1 0xE8 SHL PUSH1 0x64 DUP3 ADD MSTORE PUSH1 0x84 SWAP1 REVERT JUMPDEST CALLVALUE PUSH2 0x16A JUMPI PUSH1 0x0 CALLDATASIZE PUSH1 0x3 NOT ADD SLT PUSH2 0x16A JUMPI PUSH1 0x40 MLOAD PUSH32 0x0 PUSH1 0x1 PUSH1 0x1 PUSH1 0xA0 SHL SUB AND DUP2 MSTORE PUSH1 0x20 SWAP1 RETURN JUMPDEST CALLVALUE PUSH2 0x16A JUMPI PUSH1 0x20 SWAP1 PUSH2 0x168E CALLDATASIZE PUSH2 0x16AF JUMP JUMPDEST SWAP1 PUSH1 0x0 MSTORE PUSH1 0x7 DUP4 MSTORE PUSH1 0x40 PUSH1 0x0 KECCAK256 SWAP1 PUSH1 0x0 MSTORE DUP3 MSTORE PUSH1 0xFF PUSH1 0x40 PUSH1 0x0 KECCAK256 SLOAD AND ISZERO DUP2 MSTORE RETURN JUMPDEST PUSH1 0x40 SWAP1 PUSH1 0x3 NOT ADD SLT PUSH2 0x16A JUMPI PUSH1 0x4 CALLDATALOAD SWAP1 PUSH1 0x24 CALLDATALOAD SWAP1 JUMP JUMPDEST SWAP1 PUSH1 0x20 DUP1 DUP4 MLOAD SWAP3 DUP4 DUP2 MSTORE ADD SWAP3 ADD SWAP1 PUSH1 0x0 JUMPDEST DUP2 DUP2 LT PUSH2 0x16E3 JUMPI POP POP POP SWAP1 JUMP JUMPDEST DUP3 MLOAD PUSH1 0x1 PUSH1 0x1 PUSH1 0xA0 SHL SUB AND DUP5 MSTORE PUSH1 0x20 SWAP4 DUP5 ADD SWAP4 SWAP1 SWAP3 ADD SWAP2 PUSH1 0x1 ADD PUSH2 0x16D6 JUMP JUMPDEST DUP1 SLOAD DUP3 LT ISZERO PUSH2 0x171A JUMPI PUSH1 0x0 MSTORE PUSH1 0x20 PUSH1 0x0 KECCAK256 ADD SWAP1 PUSH1 0x0 SWAP1 JUMP JUMPDEST PUSH4 0x4E487B71 PUSH1 0xE0 SHL PUSH1 0x0 MSTORE PUSH1 0x32 PUSH1 0x4 MSTORE PUSH1 0x24 PUSH1 0x0 REVERT JUMPDEST ISZERO PUSH2 0x1737 JUMPI JUMP JUMPDEST PUSH1 0x40 MLOAD PUSH3 0x461BCD PUSH1 0xE5 SHL DUP2 MSTORE PUSH1 0x20 PUSH1 0x4 DUP3 ADD MSTORE PUSH1 0x10 PUSH1 0x24 DUP3 ADD MSTORE PUSH16 0x18D85B1B195C8B5B9BDD0B5859D95B9D PUSH1 0x82 SHL PUSH1 0x44 DUP3 ADD MSTORE PUSH1 0x64 SWAP1 REVERT JUMPDEST ISZERO PUSH2 0x1776 JUMPI JUMP JUMPDEST PUSH1 0x40 MLOAD PUSH3 0x461BCD PUSH1 0xE5 SHL DUP2 MSTORE PUSH1 0x20 PUSH1 0x4 DUP3 ADD MSTORE PUSH1 0x6 PUSH1 0x24 DUP3 ADD MSTORE PUSH6 0x18DB1BDCD959 PUSH1 0xD2 SHL PUSH1 0x44 DUP3 ADD MSTORE PUSH1 0x64 SWAP1 REVERT JUMPDEST ISZERO PUSH2 0x17AB JUMPI JUMP JUMPDEST PUSH1 0x40 MLOAD PUSH3 0x461BCD PUSH1 0xE5 SHL DUP2 MSTORE PUSH1 0x20 PUSH1 0x4 DUP3 ADD MSTORE PUSH1 0x9 PUSH1 0x24 DUP3 ADD MSTORE PUSH9 0x1B9BDD0B595B991959 PUSH1 0xBA SHL PUSH1 0x44 DUP3 ADD MSTORE PUSH1 0x64 SWAP1 REVERT JUMPDEST SWAP2 SWAP1 DUP3 ADD DUP1 SWAP3 GT PUSH2 0xB20 JUMPI JUMP JUMPDEST SWAP1 PUSH1 0x1F DUP1 NOT SWAP2 ADD AND DUP2 ADD SWAP1 DUP2 LT PUSH8 0xFFFFFFFFFFFFFFFF DUP3 GT OR PUSH2 0x1529 JUMPI PUSH1 0x40 MSTORE JUMP JUMPDEST PUSH8 0xFFFFFFFFFFFFFFFF DUP2 GT PUSH2 0x1529 JUMPI PUSH1 0x5 SHL PUSH1 0x20 ADD SWAP1 JUMP JUMPDEST DUP1 MLOAD DUP3 LT ISZERO PUSH2 0x171A JUMPI PUSH1 0x20 SWAP2 PUSH1 0x5 SHL ADD ADD SWAP1 JUMP JUMPDEST PUSH1 0x0 NOT DUP2 EQ PUSH2 0xB20 JUMPI PUSH1 0x1 ADD SWAP1 JUMP JUMPDEST SWAP1 DUP2 PUSH1 0x20 SWAP2 SUB SLT PUSH2 0x16A JUMPI MLOAD DUP1 ISZERO ISZERO DUP2 SUB PUSH2 0x16A JUMPI SWAP1 JUMP JUMPDEST PUSH1 0x2 PUSH1 0x1 SLOAD EQ PUSH2 0x186F JUMPI PUSH1 0x2 PUSH1 0x1 SSTORE JUMP JUMPDEST PUSH4 0x3EE5AEB5 PUSH1 0xE0 SHL PUSH1 0x0 MSTORE PUSH1 0x4 PUSH1 0x0 REVERT JUMPDEST PUSH1 0xFF PUSH1 0x2 SLOAD AND PUSH2 0x188C JUMPI JUMP JUMPDEST PUSH4 0xD93C0665 PUSH1 0xE0 SHL PUSH1 0x0 MSTORE PUSH1 0x4 PUSH1 0x0 REVERT JUMPDEST PUSH1 0x0 SLOAD PUSH1 0x1 PUSH1 0x1 PUSH1 0xA0 SHL SUB AND CALLER SUB PUSH2 0x18B1 JUMPI JUMP JUMPDEST PUSH4 0x118CDAA7 PUSH1 0xE0 SHL PUSH1 0x0 MSTORE CALLER PUSH1 0x4 MSTORE PUSH1 0x24 PUSH1 0x0 REVERT INVALID LOG2 PUSH5 0x6970667358 0x22 SLT KECCAK256 0xCA 0xB0 SWAP12 0xD2 0xC4 0x2F 0xB0 DUP4 0x25 0x27 0x1F 0x2E 0xC0 ADD SLT 0xC0 MLOAD PUSH26 0x23E0A7ED383F92371268B1B59F3C64736F6C634300081C003300 "
        },
        "methodIdentifiers": {
          "FEE_BASIS_POINTS()": "a525ad3c",
          "accumulatedFees()": "587f5ed7",
          "agent()": "f5ff5c76",
          "cUSD()": "1fccf672",
          "closeRaffle(uint256)": "234d0001",
          "createRaffle(uint256,uint256,uint256,uint256)": "39510c85",
          "getPurchasedNumbers(uint256)": "6ef5addb",
          "getRaffleWinners(uint256)": "4823b026",
          "isNumberAvailable(uint256,uint256)": "1952eb81",
          "joinRaffle(uint256,uint256[])": "aa1200c2",
          "numberOwner(uint256,uint256)": "ad711014",
          "numberTaken(uint256,uint256)": "24e30327",
          "owner()": "8da5cb5b",
          "pauseContract()": "439766ce",
          "pauseRaffle(uint256)": "5eaee86d",
          "paused()": "5c975abb",
          "purchasedNumbers(uint256,uint256)": "6c473b1e",
          "raffleCount()": "a54c120c",
          "raffles(uint256)": "5d4bc0ce",
          "refundRaffle(uint256)": "ea0a61c4",
          "renounceOwnership()": "715018a6",
          "setAgent(address)": "bcf685ed",
          "transferOwnership(address)": "f2fde38b",
          "unpauseContract()": "b33712c5",
          "unpauseRaffle(uint256)": "539cd3e5",
          "withdrawPlatformFees(address)": "ec3889b5"
        }
      }
    }
  }
}